{
  "contractName": "ProjectUserMapping",
  "abi": [
    {
      "inputs": [
        {
          "internalType": "address",
          "name": "_projectAddress",
          "type": "address"
        },
        {
          "internalType": "address",
          "name": "_subProjectAddress",
          "type": "address"
        },
        {
          "internalType": "address",
          "name": "_taskAddress",
          "type": "address"
        }
      ],
      "stateMutability": "nonpayable",
      "type": "constructor"
    },
    {
      "anonymous": false,
      "inputs": [
        {
          "indexed": false,
          "internalType": "uint256",
          "name": "projectId",
          "type": "uint256"
        },
        {
          "indexed": false,
          "internalType": "string",
          "name": "financialOfficerUsername",
          "type": "string"
        },
        {
          "indexed": false,
          "internalType": "string",
          "name": "projectManagerUsernmae",
          "type": "string"
        },
        {
          "indexed": false,
          "internalType": "string",
          "name": "budgetAndProcurementManagerUsername",
          "type": "string"
        },
        {
          "indexed": false,
          "internalType": "string",
          "name": "externalAuditorUsername",
          "type": "string"
        }
      ],
      "name": "ProjectMapped",
      "type": "event"
    },
    {
      "inputs": [
        {
          "internalType": "uint256",
          "name": "projectId",
          "type": "uint256"
        },
        {
          "internalType": "string",
          "name": "financialOfficerUsername",
          "type": "string"
        },
        {
          "internalType": "string",
          "name": "projectManagerUsernmae",
          "type": "string"
        },
        {
          "internalType": "string",
          "name": "budgetAndProcurementManagerUsername",
          "type": "string"
        },
        {
          "internalType": "string",
          "name": "externalAuditorUsername",
          "type": "string"
        }
      ],
      "name": "addMapping",
      "outputs": [],
      "stateMutability": "nonpayable",
      "type": "function"
    },
    {
      "inputs": [
        {
          "internalType": "uint256",
          "name": "_id",
          "type": "uint256"
        }
      ],
      "name": "getProjectByIdFromMapping",
      "outputs": [
        {
          "components": [
            {
              "internalType": "uint256",
              "name": "id",
              "type": "uint256"
            },
            {
              "internalType": "string",
              "name": "name",
              "type": "string"
            },
            {
              "internalType": "string",
              "name": "description",
              "type": "string"
            },
            {
              "internalType": "string",
              "name": "location",
              "type": "string"
            },
            {
              "internalType": "uint256",
              "name": "estimatedBudget",
              "type": "uint256"
            },
            {
              "internalType": "uint256",
              "name": "fundedMoney",
              "type": "uint256"
            },
            {
              "internalType": "uint256",
              "name": "estimatedDuration",
              "type": "uint256"
            },
            {
              "internalType": "uint256",
              "name": "createdAt",
              "type": "uint256"
            },
            {
              "internalType": "string",
              "name": "companyId",
              "type": "string"
            },
            {
              "internalType": "string",
              "name": "accountNumber",
              "type": "string"
            },
            {
              "internalType": "enum Project.ProjectStatus",
              "name": "status",
              "type": "uint8"
            }
          ],
          "internalType": "struct Project.ProjectInfo",
          "name": "",
          "type": "tuple"
        }
      ],
      "stateMutability": "view",
      "type": "function",
      "constant": true
    },
    {
      "inputs": [
        {
          "internalType": "string",
          "name": "_username",
          "type": "string"
        }
      ],
      "name": "getProjectsListByUsername",
      "outputs": [
        {
          "components": [
            {
              "internalType": "uint256",
              "name": "id",
              "type": "uint256"
            },
            {
              "internalType": "string",
              "name": "name",
              "type": "string"
            },
            {
              "internalType": "string",
              "name": "description",
              "type": "string"
            },
            {
              "internalType": "string",
              "name": "location",
              "type": "string"
            },
            {
              "internalType": "uint256",
              "name": "estimatedBudget",
              "type": "uint256"
            },
            {
              "internalType": "uint256",
              "name": "fundedMoney",
              "type": "uint256"
            },
            {
              "internalType": "uint256",
              "name": "estimatedDuration",
              "type": "uint256"
            },
            {
              "internalType": "uint256",
              "name": "createdAt",
              "type": "uint256"
            },
            {
              "internalType": "string",
              "name": "companyId",
              "type": "string"
            },
            {
              "internalType": "string",
              "name": "accountNumber",
              "type": "string"
            },
            {
              "internalType": "enum Project.ProjectStatus",
              "name": "status",
              "type": "uint8"
            }
          ],
          "internalType": "struct Project.ProjectInfo[]",
          "name": "",
          "type": "tuple[]"
        }
      ],
      "stateMutability": "view",
      "type": "function",
      "constant": true
    },
    {
      "inputs": [
        {
          "internalType": "uint256",
          "name": "_projectId",
          "type": "uint256"
        }
      ],
      "name": "getSubProjectListByProjectId",
      "outputs": [
        {
          "components": [
            {
              "internalType": "uint256",
              "name": "id",
              "type": "uint256"
            },
            {
              "internalType": "string",
              "name": "name",
              "type": "string"
            },
            {
              "internalType": "string",
              "name": "description",
              "type": "string"
            },
            {
              "internalType": "uint256",
              "name": "projectId",
              "type": "uint256"
            },
            {
              "internalType": "uint256",
              "name": "estimatedDuration",
              "type": "uint256"
            },
            {
              "internalType": "uint256",
              "name": "createdAt",
              "type": "uint256"
            }
          ],
          "internalType": "struct SubProject.SubProjectInfo[]",
          "name": "",
          "type": "tuple[]"
        }
      ],
      "stateMutability": "view",
      "type": "function",
      "constant": true
    },
    {
      "inputs": [],
      "name": "getAllSubProjects",
      "outputs": [
        {
          "components": [
            {
              "internalType": "uint256",
              "name": "id",
              "type": "uint256"
            },
            {
              "internalType": "string",
              "name": "name",
              "type": "string"
            },
            {
              "internalType": "string",
              "name": "description",
              "type": "string"
            },
            {
              "internalType": "uint256",
              "name": "projectId",
              "type": "uint256"
            },
            {
              "internalType": "uint256",
              "name": "estimatedDuration",
              "type": "uint256"
            },
            {
              "internalType": "uint256",
              "name": "createdAt",
              "type": "uint256"
            }
          ],
          "internalType": "struct SubProject.SubProjectInfo[]",
          "name": "",
          "type": "tuple[]"
        }
      ],
      "stateMutability": "view",
      "type": "function",
      "constant": true
    },
    {
      "inputs": [
        {
          "internalType": "uint256",
          "name": "_projectId",
          "type": "uint256"
        }
      ],
      "name": "getTaskListByProjectId",
      "outputs": [
        {
          "components": [
            {
              "internalType": "uint256",
              "name": "id",
              "type": "uint256"
            },
            {
              "internalType": "string",
              "name": "name",
              "type": "string"
            },
            {
              "internalType": "string",
              "name": "description",
              "type": "string"
            },
            {
              "internalType": "uint256",
              "name": "projectId",
              "type": "uint256"
            },
            {
              "internalType": "uint256",
              "name": "subProjectId",
              "type": "uint256"
            },
            {
              "internalType": "uint256",
              "name": "estimatedDuration",
              "type": "uint256"
            },
            {
              "internalType": "enum Task.TaskStatus",
              "name": "status",
              "type": "uint8"
            },
            {
              "internalType": "uint256",
              "name": "allocatedBudget",
              "type": "uint256"
            },
            {
              "internalType": "string",
              "name": "remark",
              "type": "string"
            },
            {
              "internalType": "uint256",
              "name": "createdAt",
              "type": "uint256"
            }
          ],
          "internalType": "struct Task.TaskInfo[]",
          "name": "",
          "type": "tuple[]"
        }
      ],
      "stateMutability": "view",
      "type": "function",
      "constant": true
    },
    {
      "inputs": [
        {
          "internalType": "uint256",
          "name": "_projectId",
          "type": "uint256"
        }
      ],
      "name": "getTaskListBySubProject",
      "outputs": [
        {
          "components": [
            {
              "internalType": "uint256",
              "name": "id",
              "type": "uint256"
            },
            {
              "internalType": "string",
              "name": "name",
              "type": "string"
            },
            {
              "internalType": "string",
              "name": "description",
              "type": "string"
            },
            {
              "internalType": "uint256",
              "name": "projectId",
              "type": "uint256"
            },
            {
              "internalType": "uint256",
              "name": "subProjectId",
              "type": "uint256"
            },
            {
              "internalType": "uint256",
              "name": "estimatedDuration",
              "type": "uint256"
            },
            {
              "internalType": "enum Task.TaskStatus",
              "name": "status",
              "type": "uint8"
            },
            {
              "internalType": "uint256",
              "name": "allocatedBudget",
              "type": "uint256"
            },
            {
              "internalType": "string",
              "name": "remark",
              "type": "string"
            },
            {
              "internalType": "uint256",
              "name": "createdAt",
              "type": "uint256"
            }
          ],
          "internalType": "struct Task.TaskInfo[]",
          "name": "",
          "type": "tuple[]"
        }
      ],
      "stateMutability": "view",
      "type": "function",
      "constant": true
    },
    {
      "inputs": [
        {
          "internalType": "uint256",
          "name": "_projectId",
          "type": "uint256"
        }
      ],
      "name": "getTaskStatusByProjectId",
      "outputs": [
        {
          "internalType": "uint256",
          "name": "approved",
          "type": "uint256"
        },
        {
          "internalType": "uint256",
          "name": "unapproved",
          "type": "uint256"
        }
      ],
      "stateMutability": "view",
      "type": "function",
      "constant": true
    },
    {
      "inputs": [
        {
          "internalType": "uint256",
          "name": "_subProjectId",
          "type": "uint256"
        }
      ],
      "name": "getTaskStatusBySubProjectId",
      "outputs": [
        {
          "internalType": "uint256",
          "name": "approved",
          "type": "uint256"
        },
        {
          "internalType": "uint256",
          "name": "unapproved",
          "type": "uint256"
        }
      ],
      "stateMutability": "view",
      "type": "function",
      "constant": true
    }
  ],
  "bytecode": "0x60806040523480156200001157600080fd5b506040516200247838038062002478833981810160405281019062000037919062000174565b6000808190555082600160006101000a81548173ffffffffffffffffffffffffffffffffffffffff021916908373ffffffffffffffffffffffffffffffffffffffff16021790555081600260006101000a81548173ffffffffffffffffffffffffffffffffffffffff021916908373ffffffffffffffffffffffffffffffffffffffff16021790555080600360006101000a81548173ffffffffffffffffffffffffffffffffffffffff021916908373ffffffffffffffffffffffffffffffffffffffff160217905550505050620001d0565b600080fd5b600073ffffffffffffffffffffffffffffffffffffffff82169050919050565b60006200013c826200010f565b9050919050565b6200014e816200012f565b81146200015a57600080fd5b50565b6000815190506200016e8162000143565b92915050565b60008060006060848603121562000190576200018f6200010a565b5b6000620001a0868287016200015d565b9350506020620001b3868287016200015d565b9250506040620001c6868287016200015d565b9150509250925092565b61229880620001e06000396000f3fe608060405234801561001057600080fd5b50600436106100935760003560e01c8063a2bd1e9e11610066578063a2bd1e9e14610147578063a71205c114610177578063beccbab7146101a7578063c50c58cd146101c3578063deb1db10146101f457610093565b806341db35ca146100985780635e0f94d3146100c85780636874c5f7146100f957806393a35ef314610129575b600080fd5b6100b260048036038101906100ad9190610de5565b610224565b6040516100bf91906110db565b60405180910390f35b6100e260048036038101906100dd9190610de5565b6102dd565b6040516100f092919061110c565b60405180910390f35b610113600480360381019061010e9190610de5565b610393565b6040516101209190611288565b60405180910390f35b610131610452565b60405161013e91906113fc565b60405180910390f35b610161600480360381019061015c9190611553565b6104fe565b60405161016e9190611769565b60405180910390f35b610191600480360381019061018c9190610de5565b610798565b60405161019e91906113fc565b60405180910390f35b6101c160048036038101906101bc919061178b565b610851565b005b6101dd60048036038101906101d89190610de5565b61092d565b6040516101eb92919061110c565b60405180910390f35b61020e60048036038101906102099190610de5565b6109e3565b60405161021b91906110db565b60405180910390f35b6060600360009054906101000a900473ffffffffffffffffffffffffffffffffffffffff1673ffffffffffffffffffffffffffffffffffffffff16635ea62f56836040518263ffffffff1660e01b81526004016102819190611876565b60006040518083038186803b15801561029957600080fd5b505afa1580156102ad573d6000803e3d6000fd5b505050506040513d6000823e3d601f19601f820116820180604052508101906102d69190611b75565b9050919050565b600080600360009054906101000a900473ffffffffffffffffffffffffffffffffffffffff1673ffffffffffffffffffffffffffffffffffffffff16635e0f94d3846040518263ffffffff1660e01b815260040161033b9190611876565b604080518083038186803b15801561035257600080fd5b505afa158015610366573d6000803e3d6000fd5b505050506040513d601f19601f8201168201806040525081019061038a9190611bbe565b91509150915091565b61039b610c8c565b600160009054906101000a900473ffffffffffffffffffffffffffffffffffffffff1673ffffffffffffffffffffffffffffffffffffffff1663bee5cdca836040518263ffffffff1660e01b81526004016103f69190611876565b60006040518083038186803b15801561040e57600080fd5b505afa158015610422573d6000803e3d6000fd5b505050506040513d6000823e3d601f19601f8201168201806040525081019061044b9190611dbb565b9050919050565b6060600260009054906101000a900473ffffffffffffffffffffffffffffffffffffffff1673ffffffffffffffffffffffffffffffffffffffff166393a35ef36040518163ffffffff1660e01b815260040160006040518083038186803b1580156104bc57600080fd5b505afa1580156104d0573d6000803e3d6000fd5b505050506040513d6000823e3d601f19601f820116820180604052508101906104f99190611fbd565b905090565b6060600061050b83610a9c565b905060008167ffffffffffffffff81111561052957610528611428565b5b60405190808252806020026020018201604052801561056257816020015b61054f610c8c565b8152602001906001900390816105475790505b509050600080600190505b600160005461057c9190612035565b81101561078c578560405160200161059491906120c7565b60405160208183030381529060405280519060200120600460008381526020019081526020016000206001016040516020016105d091906121d3565b6040516020818303038152906040528051906020012014806106525750856040516020016105fe91906120c7565b604051602081830303815290604052805190602001206004600083815260200190815260200160002060030160405160200161063a91906121d3565b60405160208183030381529060405280519060200120145b806106bd57508560405160200161066991906120c7565b60405160208183030381529060405280519060200120600460008381526020019081526020016000206002016040516020016106a591906121d3565b60405160208183030381529060405280519060200120145b806107285750856040516020016106d491906120c7565b604051602081830303815290604052805190602001206004600083815260200190815260200160002060040160405160200161071091906121d3565b60405160208183030381529060405280519060200120145b156107795761074c6004600083815260200190815260200160002060000154610393565b83838151811061075f5761075e6121ea565b5b6020026020010181905250818061077590612219565b9250505b808061078490612219565b91505061056d565b50819350505050919050565b6060600260009054906101000a900473ffffffffffffffffffffffffffffffffffffffff1673ffffffffffffffffffffffffffffffffffffffff1663778f8c4e836040518263ffffffff1660e01b81526004016107f59190611876565b60006040518083038186803b15801561080d57600080fd5b505afa158015610821573d6000803e3d6000fd5b505050506040513d6000823e3d601f19601f8201168201806040525081019061084a9190611fbd565b9050919050565b60016000808282546108639190612035565b925050819055506040518060a001604052808681526020018581526020018481526020018381526020018281525060046000805481526020019081526020016000206000820151816000015560208201518160010190805190602001906108cb929190610cf8565b5060408201518160020190805190602001906108e8929190610cf8565b506060820151816003019080519060200190610905929190610cf8565b506080820151816004019080519060200190610922929190610cf8565b509050505050505050565b600080600360009054906101000a900473ffffffffffffffffffffffffffffffffffffffff1673ffffffffffffffffffffffffffffffffffffffff1663c50c58cd846040518263ffffffff1660e01b815260040161098b9190611876565b604080518083038186803b1580156109a257600080fd5b505afa1580156109b6573d6000803e3d6000fd5b505050506040513d601f19601f820116820180604052508101906109da9190611bbe565b91509150915091565b6060600360009054906101000a900473ffffffffffffffffffffffffffffffffffffffff1673ffffffffffffffffffffffffffffffffffffffff1663a83243da836040518263ffffffff1660e01b8152600401610a409190611876565b60006040518083038186803b158015610a5857600080fd5b505afa158015610a6c573d6000803e3d6000fd5b505050506040513d6000823e3d601f19601f82011682018060405250810190610a959190611b75565b9050919050565b600080600090505b6001600054610ab39190612035565b811015610c865782604051602001610acb91906120c7565b6040516020818303038152906040528051906020012060046000838152602001908152602001600020600101604051602001610b0791906121d3565b604051602081830303815290604052805190602001201480610b89575082604051602001610b3591906120c7565b6040516020818303038152906040528051906020012060046000838152602001908152602001600020600301604051602001610b7191906121d3565b60405160208183030381529060405280519060200120145b80610bf4575082604051602001610ba091906120c7565b6040516020818303038152906040528051906020012060046000838152602001908152602001600020600201604051602001610bdc91906121d3565b60405160208183030381529060405280519060200120145b80610c5f575082604051602001610c0b91906120c7565b6040516020818303038152906040528051906020012060046000838152602001908152602001600020600401604051602001610c4791906121d3565b60405160208183030381529060405280519060200120145b15610c73578180610c6f90612219565b9250505b8080610c7e90612219565b915050610aa4565b50919050565b6040518061016001604052806000815260200160608152602001606081526020016060815260200160008152602001600081526020016000815260200160008152602001606081526020016060815260200160006004811115610cf257610cf1610ee6565b5b81525090565b828054610d049061210d565b90600052602060002090601f016020900481019282610d265760008555610d6d565b82601f10610d3f57805160ff1916838001178555610d6d565b82800160010185558215610d6d579182015b82811115610d6c578251825591602001919060010190610d51565b5b509050610d7a9190610d7e565b5090565b5b80821115610d97576000816000905550600101610d7f565b5090565b6000604051905090565b600080fd5b600080fd5b6000819050919050565b610dc281610daf565b8114610dcd57600080fd5b50565b600081359050610ddf81610db9565b92915050565b600060208284031215610dfb57610dfa610da5565b5b6000610e0984828501610dd0565b91505092915050565b600081519050919050565b600082825260208201905092915050565b6000819050602082019050919050565b610e4781610daf565b82525050565b600081519050919050565b600082825260208201905092915050565b60005b83811015610e87578082015181840152602081019050610e6c565b83811115610e96576000848401525b50505050565b6000601f19601f8301169050919050565b6000610eb882610e4d565b610ec28185610e58565b9350610ed2818560208601610e69565b610edb81610e9c565b840191505092915050565b7f4e487b7100000000000000000000000000000000000000000000000000000000600052602160045260246000fd5b60088110610f2657610f25610ee6565b5b50565b6000819050610f3782610f15565b919050565b6000610f4782610f29565b9050919050565b610f5781610f3c565b82525050565b600061014083016000830151610f766000860182610e3e565b5060208301518482036020860152610f8e8282610ead565b91505060408301518482036040860152610fa88282610ead565b9150506060830151610fbd6060860182610e3e565b506080830151610fd06080860182610e3e565b5060a0830151610fe360a0860182610e3e565b5060c0830151610ff660c0860182610f4e565b5060e083015161100960e0860182610e3e565b506101008301518482036101008601526110238282610ead565b91505061012083015161103a610120860182610e3e565b508091505092915050565b60006110518383610f5d565b905092915050565b6000602082019050919050565b600061107182610e12565b61107b8185610e1d565b93508360208202850161108d85610e2e565b8060005b858110156110c957848403895281516110aa8582611045565b94506110b583611059565b925060208a01995050600181019050611091565b50829750879550505050505092915050565b600060208201905081810360008301526110f58184611066565b905092915050565b61110681610daf565b82525050565b600060408201905061112160008301856110fd565b61112e60208301846110fd565b9392505050565b6005811061114657611145610ee6565b5b50565b600081905061115782611135565b919050565b600061116782611149565b9050919050565b6111778161115c565b82525050565b6000610160830160008301516111966000860182610e3e565b50602083015184820360208601526111ae8282610ead565b915050604083015184820360408601526111c88282610ead565b915050606083015184820360608601526111e28282610ead565b91505060808301516111f76080860182610e3e565b5060a083015161120a60a0860182610e3e565b5060c083015161121d60c0860182610e3e565b5060e083015161123060e0860182610e3e565b5061010083015184820361010086015261124a8282610ead565b9150506101208301518482036101208601526112668282610ead565b91505061014083015161127d61014086018261116e565b508091505092915050565b600060208201905081810360008301526112a2818461117d565b905092915050565b600081519050919050565b600082825260208201905092915050565b6000819050602082019050919050565b600060c0830160008301516112ee6000860182610e3e565b50602083015184820360208601526113068282610ead565b915050604083015184820360408601526113208282610ead565b91505060608301516113356060860182610e3e565b5060808301516113486080860182610e3e565b5060a083015161135b60a0860182610e3e565b508091505092915050565b600061137283836112d6565b905092915050565b6000602082019050919050565b6000611392826112aa565b61139c81856112b5565b9350836020820285016113ae856112c6565b8060005b858110156113ea57848403895281516113cb8582611366565b94506113d68361137a565b925060208a019950506001810190506113b2565b50829750879550505050505092915050565b600060208201905081810360008301526114168184611387565b905092915050565b600080fd5b600080fd5b7f4e487b7100000000000000000000000000000000000000000000000000000000600052604160045260246000fd5b61146082610e9c565b810181811067ffffffffffffffff8211171561147f5761147e611428565b5b80604052505050565b6000611492610d9b565b905061149e8282611457565b919050565b600067ffffffffffffffff8211156114be576114bd611428565b5b6114c782610e9c565b9050602081019050919050565b82818337600083830152505050565b60006114f66114f1846114a3565b611488565b90508281526020810184848401111561151257611511611423565b5b61151d8482856114d4565b509392505050565b600082601f83011261153a5761153961141e565b5b813561154a8482602086016114e3565b91505092915050565b60006020828403121561156957611568610da5565b5b600082013567ffffffffffffffff81111561158757611586610daa565b5b61159384828501611525565b91505092915050565b600081519050919050565b600082825260208201905092915050565b6000819050602082019050919050565b6000610160830160008301516115e16000860182610e3e565b50602083015184820360208601526115f98282610ead565b915050604083015184820360408601526116138282610ead565b9150506060830151848203606086015261162d8282610ead565b91505060808301516116426080860182610e3e565b5060a083015161165560a0860182610e3e565b5060c083015161166860c0860182610e3e565b5060e083015161167b60e0860182610e3e565b506101008301518482036101008601526116958282610ead565b9150506101208301518482036101208601526116b18282610ead565b9150506101408301516116c861014086018261116e565b508091505092915050565b60006116df83836115c8565b905092915050565b6000602082019050919050565b60006116ff8261159c565b61170981856115a7565b93508360208202850161171b856115b8565b8060005b85811015611757578484038952815161173885826116d3565b9450611743836116e7565b925060208a0199505060018101905061171f565b50829750879550505050505092915050565b6000602082019050818103600083015261178381846116f4565b905092915050565b600080600080600060a086880312156117a7576117a6610da5565b5b60006117b588828901610dd0565b955050602086013567ffffffffffffffff8111156117d6576117d5610daa565b5b6117e288828901611525565b945050604086013567ffffffffffffffff81111561180357611802610daa565b5b61180f88828901611525565b935050606086013567ffffffffffffffff8111156118305761182f610daa565b5b61183c88828901611525565b925050608086013567ffffffffffffffff81111561185d5761185c610daa565b5b61186988828901611525565b9150509295509295909350565b600060208201905061188b60008301846110fd565b92915050565b600067ffffffffffffffff8211156118ac576118ab611428565b5b602082029050602081019050919050565b600080fd5b600080fd5b600080fd5b6000815190506118db81610db9565b92915050565b60006118f46118ef846114a3565b611488565b9050828152602081018484840111156119105761190f611423565b5b61191b848285610e69565b509392505050565b600082601f8301126119385761193761141e565b5b81516119488482602086016118e1565b91505092915050565b6008811061195e57600080fd5b50565b60008151905061197081611951565b92915050565b6000610140828403121561198d5761198c6118c2565b5b611998610140611488565b905060006119a8848285016118cc565b600083015250602082015167ffffffffffffffff8111156119cc576119cb6118c7565b5b6119d884828501611923565b602083015250604082015167ffffffffffffffff8111156119fc576119fb6118c7565b5b611a0884828501611923565b6040830152506060611a1c848285016118cc565b6060830152506080611a30848285016118cc565b60808301525060a0611a44848285016118cc565b60a08301525060c0611a5884828501611961565b60c08301525060e0611a6c848285016118cc565b60e08301525061010082015167ffffffffffffffff811115611a9157611a906118c7565b5b611a9d84828501611923565b61010083015250610120611ab3848285016118cc565b6101208301525092915050565b6000611ad3611ace84611891565b611488565b90508083825260208201905060208402830185811115611af657611af56118bd565b5b835b81811015611b3d57805167ffffffffffffffff811115611b1b57611b1a61141e565b5b808601611b288982611976565b85526020850194505050602081019050611af8565b5050509392505050565b600082601f830112611b5c57611b5b61141e565b5b8151611b6c848260208601611ac0565b91505092915050565b600060208284031215611b8b57611b8a610da5565b5b600082015167ffffffffffffffff811115611ba957611ba8610daa565b5b611bb584828501611b47565b91505092915050565b60008060408385031215611bd557611bd4610da5565b5b6000611be3858286016118cc565b9250506020611bf4858286016118cc565b9150509250929050565b60058110611c0b57600080fd5b50565b600081519050611c1d81611bfe565b92915050565b60006101608284031215611c3a57611c396118c2565b5b611c45610160611488565b90506000611c55848285016118cc565b600083015250602082015167ffffffffffffffff811115611c7957611c786118c7565b5b611c8584828501611923565b602083015250604082015167ffffffffffffffff811115611ca957611ca86118c7565b5b611cb584828501611923565b604083015250606082015167ffffffffffffffff811115611cd957611cd86118c7565b5b611ce584828501611923565b6060830152506080611cf9848285016118cc565b60808301525060a0611d0d848285016118cc565b60a08301525060c0611d21848285016118cc565b60c08301525060e0611d35848285016118cc565b60e08301525061010082015167ffffffffffffffff811115611d5a57611d596118c7565b5b611d6684828501611923565b6101008301525061012082015167ffffffffffffffff811115611d8c57611d8b6118c7565b5b611d9884828501611923565b61012083015250610140611dae84828501611c0e565b6101408301525092915050565b600060208284031215611dd157611dd0610da5565b5b600082015167ffffffffffffffff811115611def57611dee610daa565b5b611dfb84828501611c23565b91505092915050565b600067ffffffffffffffff821115611e1f57611e1e611428565b5b602082029050602081019050919050565b600060c08284031215611e4657611e456118c2565b5b611e5060c0611488565b90506000611e60848285016118cc565b600083015250602082015167ffffffffffffffff811115611e8457611e836118c7565b5b611e9084828501611923565b602083015250604082015167ffffffffffffffff811115611eb457611eb36118c7565b5b611ec084828501611923565b6040830152506060611ed4848285016118cc565b6060830152506080611ee8848285016118cc565b60808301525060a0611efc848285016118cc565b60a08301525092915050565b6000611f1b611f1684611e04565b611488565b90508083825260208201905060208402830185811115611f3e57611f3d6118bd565b5b835b81811015611f8557805167ffffffffffffffff811115611f6357611f6261141e565b5b808601611f708982611e30565b85526020850194505050602081019050611f40565b5050509392505050565b600082601f830112611fa457611fa361141e565b5b8151611fb4848260208601611f08565b91505092915050565b600060208284031215611fd357611fd2610da5565b5b600082015167ffffffffffffffff811115611ff157611ff0610daa565b5b611ffd84828501611f8f565b91505092915050565b7f4e487b7100000000000000000000000000000000000000000000000000000000600052601160045260246000fd5b600061204082610daf565b915061204b83610daf565b9250827fffffffffffffffffffffffffffffffffffffffffffffffffffffffffffffffff038211156120805761207f612006565b5b828201905092915050565b600081905092915050565b60006120a182610e4d565b6120ab818561208b565b93506120bb818560208601610e69565b80840191505092915050565b60006120d38284612096565b915081905092915050565b7f4e487b7100000000000000000000000000000000000000000000000000000000600052602260045260246000fd5b6000600282049050600182168061212557607f821691505b60208210811415612139576121386120de565b5b50919050565b60008190508160005260206000209050919050565b600081546121618161210d565b61216b818661208b565b945060018216600081146121865760018114612197576121ca565b60ff198316865281860193506121ca565b6121a08561213f565b60005b838110156121c2578154818901526001820191506020810190506121a3565b838801955050505b50505092915050565b60006121df8284612154565b915081905092915050565b7f4e487b7100000000000000000000000000000000000000000000000000000000600052603260045260246000fd5b600061222482610daf565b91507fffffffffffffffffffffffffffffffffffffffffffffffffffffffffffffffff82141561225757612256612006565b5b60018201905091905056fea2646970667358221220d8863f744e645e3efb9d47ce4addcb8be329833e06e7cafc2d92ce0611b3ac7f64736f6c63430008090033",
  "immutableReferences": {},
  "source": "//SPDX-License-Identifier: MIT\n\npragma solidity ^0.8;\n// pragma experimental ABIEncoderV2;\nimport \"./Project.sol\";\nimport \"./SubProject.sol\";\nimport \"./Task.sol\";\n\ncontract ProjectUserMapping {\n    uint256 private count;\n    Project _projectAccessor;\n    SubProject _subprojectAccessor;\n    Task _taskAccessor;\n\n    constructor(\n        address _projectAddress,\n        address _subProjectAddress,\n        address _taskAddress\n    ) {\n        count = 0;\n        _projectAccessor = Project(_projectAddress);\n        _subprojectAccessor = SubProject(_subProjectAddress);\n        _taskAccessor = Task(_taskAddress);\n    }\n\n    // constructor() {\n    //     count = 0;\n    // }\n    struct MappingInfo {\n        uint256 projectId;\n        string financialOfficerUsername;\n        string projectManagerUsernmae;\n        string budgetAndProcurementManagerUsername;\n        string externalAuditorUsername;\n    }\n\n    event ProjectMapped(\n        uint256 projectId,\n        string financialOfficerUsername,\n        string projectManagerUsernmae,\n        string budgetAndProcurementManagerUsername,\n        string externalAuditorUsername\n    );\n\n    mapping(uint256 => MappingInfo) private userProjectMappings;\n\n    /*\n    TODO only technical admin modifier\n    This functions used to add project and users mapping to the blocks.\n    */\n    function addMapping(\n        uint256 projectId,\n        string memory financialOfficerUsername,\n        string memory projectManagerUsernmae,\n        string memory budgetAndProcurementManagerUsername,\n        string memory externalAuditorUsername\n    ) public {\n        count += 1;\n        userProjectMappings[count] = MappingInfo(\n            projectId,\n            financialOfficerUsername,\n            projectManagerUsernmae,\n            budgetAndProcurementManagerUsername,\n            externalAuditorUsername\n        );\n    }\n\n    /*\n    As we cannot create dynamic array which we can push to, we should use this function to return the length of projects\n    the user is being participated\n    */\n    function getProjectCount(string memory _username)\n        internal\n        view\n        returns (uint256 length)\n    {\n        for (uint256 index = 0; index < count + 1; index++) {\n            if (\n                keccak256(\n                    abi.encodePacked(\n                        userProjectMappings[index].financialOfficerUsername\n                    )\n                ) ==\n                keccak256(abi.encodePacked(_username)) ||\n                keccak256(\n                    abi.encodePacked(\n                        userProjectMappings[index]\n                            .budgetAndProcurementManagerUsername\n                    )\n                ) ==\n                keccak256(abi.encodePacked(_username)) ||\n                keccak256(\n                    abi.encodePacked(\n                        userProjectMappings[index].projectManagerUsernmae\n                    )\n                ) ==\n                keccak256(abi.encodePacked(_username)) ||\n                keccak256(\n                    abi.encodePacked(\n                        userProjectMappings[index].externalAuditorUsername\n                    )\n                ) ==\n                keccak256(abi.encodePacked(_username))\n            ) {\n                length++;\n            }\n        }\n    }\n\n    /*\n    This function returns project using project id\n    */\n    function getProjectByIdFromMapping(uint256 _id)\n        public\n        view\n        returns (Project.ProjectInfo memory)\n    {\n        return _projectAccessor.getProjectById(_id);\n    }\n\n    /*\n    This function returns array of project ids so we can iterate over them and get projects\n    */\n    function getProjectsListByUsername(string memory _username)\n        public\n        view\n        returns (Project.ProjectInfo[] memory)\n    {\n        uint256 length = getProjectCount(_username);\n        Project.ProjectInfo[] memory projects = new Project.ProjectInfo[](\n            length\n        );\n        uint256 counter = 0;\n        for (uint256 index = 1; index < count + 1; index++) {\n            if (\n                keccak256(\n                    abi.encodePacked(\n                        userProjectMappings[index].financialOfficerUsername\n                    )\n                ) ==\n                keccak256(abi.encodePacked(_username)) ||\n                keccak256(\n                    abi.encodePacked(\n                        userProjectMappings[index]\n                            .budgetAndProcurementManagerUsername\n                    )\n                ) ==\n                keccak256(abi.encodePacked(_username)) ||\n                keccak256(\n                    abi.encodePacked(\n                        userProjectMappings[index].projectManagerUsernmae\n                    )\n                ) ==\n                keccak256(abi.encodePacked(_username)) ||\n                keccak256(\n                    abi.encodePacked(\n                        userProjectMappings[index].externalAuditorUsername\n                    )\n                ) ==\n                keccak256(abi.encodePacked(_username))\n            ) {\n                projects[counter] = getProjectByIdFromMapping(\n                    userProjectMappings[index].projectId\n                );\n                counter++;\n                // projects.push(userProjectMappings[index].projectId);\n            }\n        }\n        return projects;\n    }\n\n    function getSubProjectListByProjectId(uint256 _projectId)\n        public\n        view\n        returns (SubProject.SubProjectInfo[] memory)\n    {\n        return _subprojectAccessor.getSubProjectsListByProjectId(_projectId);\n    }\n\n    /*\n    TODO - add only technical admin flag\n    */\n    function getAllSubProjects()\n        public\n        view\n        returns (SubProject.SubProjectInfo[] memory)\n    {\n        return _subprojectAccessor.getAllSubProjects();\n    }\n\n    function getTaskListByProjectId(uint256 _projectId)\n        public\n        view\n        returns (Task.TaskInfo[] memory)\n    {\n        return _taskAccessor.getTasksListFromProjectId(_projectId);\n    }\n\n    function getTaskListBySubProject(uint256 _projectId)\n        public\n        view\n        returns (Task.TaskInfo[] memory)\n    {\n        return _taskAccessor.getTasksListFromSubProjectId(_projectId);\n    }\n\n    function getTaskStatusByProjectId(uint256 _projectId)\n        public\n        view\n        returns (uint256 approved, uint256 unapproved)\n    {\n        return _taskAccessor.getTaskStatusByProjectId(_projectId);\n    }\n\n    function getTaskStatusBySubProjectId(uint256 _subProjectId)\n        public\n        view\n        returns (uint256 approved, uint256 unapproved)\n    {\n        return _taskAccessor.getTaskStatusBySubProjectId(_subProjectId);\n    }\n}\n",
  "sourcePath": "/home/bone/WebProjects/fets_front_end/src/contracts/project_management/ProjectUserMapping.sol",
  "compiler": {
    "name": "solc",
    "version": "0.8.9+commit.e5eed63a.Emscripten.clang"
  },
  "schemaVersion": "3.4.7",
  "updatedAt": "2022-06-03T07:50:41.222Z",
  "networkType": "ethereum",
  "devdoc": {
    "kind": "dev",
    "methods": {},
    "version": 1
  },
  "userdoc": {
    "kind": "user",
    "methods": {},
    "version": 1
  }
}