{
  "contractName": "AccessControl",
  "abi": [
    {
      "anonymous": false,
      "inputs": [
        {
          "indexed": true,
          "internalType": "bytes32",
          "name": "role",
          "type": "bytes32"
        },
        {
          "indexed": true,
          "internalType": "address",
          "name": "account",
          "type": "address"
        }
      ],
      "name": "GrantRole",
      "type": "event"
    },
    {
      "anonymous": false,
      "inputs": [
        {
          "indexed": true,
          "internalType": "bytes32",
          "name": "role",
          "type": "bytes32"
        },
        {
          "indexed": true,
          "internalType": "address",
          "name": "account",
          "type": "address"
        }
      ],
      "name": "RevokeRole",
      "type": "event"
    },
    {
      "inputs": [
        {
          "internalType": "bytes32",
          "name": "",
          "type": "bytes32"
        },
        {
          "internalType": "address",
          "name": "",
          "type": "address"
        }
      ],
      "name": "roles",
      "outputs": [
        {
          "internalType": "bool",
          "name": "",
          "type": "bool"
        }
      ],
      "stateMutability": "view",
      "type": "function"
    }
  ],
  "bytecode": "0x608060405260405160200161001390610135565b6040516020818303038152906040528051906020012060015560405160200161003b90610196565b60405160208183030381529060405280519060200120600255604051602001610063906101f7565b6040516020818303038152906040528051906020012060035560405160200161008b90610258565b604051602081830303815290604052805190602001206004556040516020016100b3906102b9565b604051602081830303815290604052805190602001206005553480156100d857600080fd5b506102ce565b600081905092915050565b7f5445484e4943414c5f41444d494e000000000000000000000000000000000000600082015250565b600061011f600e836100de565b915061012a826100e9565b600e82019050919050565b600061014082610112565b9150819050919050565b7f50524f4a4543545f4d414e414745520000000000000000000000000000000000600082015250565b6000610180600f836100de565b915061018b8261014a565b600f82019050919050565b60006101a182610173565b9150819050919050565b7f46494e43414e4349414c5f4f4646494345520000000000000000000000000000600082015250565b60006101e16012836100de565b91506101ec826101ab565b601282019050919050565b6000610202826101d4565b9150819050919050565b7f4255444745545f50524f435552454d454e545f4d414e41474552000000000000600082015250565b6000610242601a836100de565b915061024d8261020c565b601a82019050919050565b600061026382610235565b9150819050919050565b7f45585445524e414c5f41554449544f5200000000000000000000000000000000600082015250565b60006102a36010836100de565b91506102ae8261026d565b601082019050919050565b60006102c482610296565b9150819050919050565b6101d4806102dd6000396000f3fe608060405234801561001057600080fd5b506004361061002b5760003560e01c8063f8fc08b914610030575b600080fd5b61004a60048036038101906100459190610128565b610060565b6040516100579190610183565b60405180910390f35b60006020528160005260406000206020528060005260406000206000915091509054906101000a900460ff1681565b600080fd5b6000819050919050565b6100a781610094565b81146100b257600080fd5b50565b6000813590506100c48161009e565b92915050565b600073ffffffffffffffffffffffffffffffffffffffff82169050919050565b60006100f5826100ca565b9050919050565b610105816100ea565b811461011057600080fd5b50565b600081359050610122816100fc565b92915050565b6000806040838503121561013f5761013e61008f565b5b600061014d858286016100b5565b925050602061015e85828601610113565b9150509250929050565b60008115159050919050565b61017d81610168565b82525050565b60006020820190506101986000830184610174565b9291505056fea2646970667358221220ab4a6dc308e79bd62ebe6a8704b5745875f987a02f65a4cc1f06290ad292f0e764736f6c63430008090033",
  "immutableReferences": {},
  "source": "// SPDX-License-Identifier: MIT\npragma solidity ^0.8.9;\n\ncontract AccessControl {\n    event GrantRole(bytes32 indexed role, address indexed account);\n    event RevokeRole(bytes32 indexed role, address indexed account);\n\n    mapping(bytes32 => mapping(address => bool)) public roles;\n\n    bytes32 private TECHNICAL_ADMIN = keccak256(abi.encodePacked('TEHNICAL_ADMIN'));\n    bytes32 private PROJECT_MANAGER = keccak256(abi.encodePacked('PROJECT_MANAGER'));\n    bytes32 private FINCANCIAL_OFFICER = keccak256(abi.encodePacked('FINCANCIAL_OFFICER'));\n    bytes32 private BUDGET_PROCUREMENT_MANAGER = keccak256(abi.encodePacked('BUDGET_PROCUREMENT_MANAGER'));\n    bytes32 private EXTERNAL_AUDITOR = keccak256(abi.encodePacked('EXTERNAL_AUDITOR'));\n\n    \n}\n",
  "sourcePath": "/home/jeremy/Desktop/fets_front_end/src/contracts/role/AccessControl.sol",
  "compiler": {
    "name": "solc",
    "version": "0.8.9+commit.e5eed63a.Emscripten.clang"
  },
  "schemaVersion": "3.4.3",
  "updatedAt": "2022-05-23T18:28:30.961Z",
  "devdoc": {
    "kind": "dev",
    "methods": {},
    "version": 1
  },
  "userdoc": {
    "kind": "user",
    "methods": {},
    "version": 1
  }
}