{
  "contractName": "Example",
  "abi": [
    {
      "inputs": [],
      "name": "x",
      "outputs": [
        {
          "internalType": "uint256",
          "name": "",
          "type": "uint256"
        }
      ],
      "stateMutability": "view",
      "type": "function",
      "constant": true
    }
  ],
  "bytecode": "0x6080604052600a60005534801561001557600080fd5b5060b3806100246000396000f3fe6080604052348015600f57600080fd5b506004361060285760003560e01c80630c55699c14602d575b600080fd5b60336047565b604051603e91906064565b60405180910390f35b60005481565b6000819050919050565b605e81604d565b82525050565b6000602082019050607760008301846057565b9291505056fea264697066735822122031ddb486577c105e8f933a53b40bf1af2980db142d5369e5a9ff1e2f843e162164736f6c63430008090033",
  "immutableReferences": {},
  "source": "//SPDX-License-Identifier: MIT\n\npragma solidity ^0.8;\n\ncontract Example {\n    uint public x = 10;\n}",
  "sourcePath": "/home/jeremy/Desktop/fets_front_end/src/contracts/Example.sol",
  "compiler": {
    "name": "solc",
    "version": "0.8.9+commit.e5eed63a.Emscripten.clang"
  },
  "schemaVersion": "3.4.3",
  "updatedAt": "2022-04-17T18:33:01.219Z",
  "networkType": "ethereum",
  "devdoc": {
    "kind": "dev",
    "methods": {},
    "version": 1
  },
  "userdoc": {
    "kind": "user",
    "methods": {},
    "version": 1
  }
}