{
  "contractName": "PaymentInformations",
  "abi": [
    {
      "inputs": [
        {
          "internalType": "address",
          "name": "_projectAddress",
          "type": "address"
        }
      ],
      "stateMutability": "nonpayable",
      "type": "constructor"
    },
    {
      "anonymous": false,
      "inputs": [
        {
          "indexed": true,
          "internalType": "string",
          "name": "donorUsername",
          "type": "string"
        },
        {
          "indexed": true,
          "internalType": "uint256",
          "name": "projectId",
          "type": "uint256"
        },
        {
          "indexed": false,
          "internalType": "uint256",
          "name": "amount",
          "type": "uint256"
        },
        {
          "indexed": false,
          "internalType": "uint256",
          "name": "donatedAt",
          "type": "uint256"
        }
      ],
      "name": "AddedPayment",
      "type": "event"
    },
    {
      "anonymous": false,
      "inputs": [
        {
          "indexed": true,
          "internalType": "string",
          "name": "donorUsername",
          "type": "string"
        },
        {
          "indexed": true,
          "internalType": "uint256",
          "name": "projectId",
          "type": "uint256"
        },
        {
          "indexed": false,
          "internalType": "uint256",
          "name": "amount",
          "type": "uint256"
        },
        {
          "indexed": false,
          "internalType": "uint256",
          "name": "donatedAt",
          "type": "uint256"
        }
      ],
      "name": "RefundedPayment",
      "type": "event"
    },
    {
      "inputs": [
        {
          "internalType": "string",
          "name": "donorUsername",
          "type": "string"
        },
        {
          "internalType": "uint256",
          "name": "projectId",
          "type": "uint256"
        },
        {
          "internalType": "uint256",
          "name": "amount",
          "type": "uint256"
        },
        {
          "internalType": "uint256",
          "name": "donatedAt",
          "type": "uint256"
        }
      ],
      "name": "addPaymentInfo",
      "outputs": [],
      "stateMutability": "nonpayable",
      "type": "function"
    },
    {
      "inputs": [],
      "name": "getOverallDonation",
      "outputs": [
        {
          "internalType": "uint256",
          "name": "",
          "type": "uint256"
        }
      ],
      "stateMutability": "nonpayable",
      "type": "function"
    },
    {
      "inputs": [],
      "name": "getTodaysDonationsAmount",
      "outputs": [
        {
          "internalType": "uint256",
          "name": "",
          "type": "uint256"
        }
      ],
      "stateMutability": "nonpayable",
      "type": "function"
    },
    {
      "inputs": [
        {
          "internalType": "string",
          "name": "donorUsername",
          "type": "string"
        },
        {
          "internalType": "uint256",
          "name": "projectId",
          "type": "uint256"
        },
        {
          "internalType": "uint256",
          "name": "amount",
          "type": "uint256"
        }
      ],
      "name": "refundMoney",
      "outputs": [],
      "stateMutability": "nonpayable",
      "type": "function"
    },
    {
      "inputs": [
        {
          "internalType": "uint256",
          "name": "id",
          "type": "uint256"
        }
      ],
      "name": "deletePaymentInfo",
      "outputs": [],
      "stateMutability": "nonpayable",
      "type": "function"
    },
    {
      "inputs": [
        {
          "internalType": "string",
          "name": "_username",
          "type": "string"
        }
      ],
      "name": "getPaymentInfoByUsername",
      "outputs": [
        {
          "components": [
            {
              "internalType": "string",
              "name": "donorUsername",
              "type": "string"
            },
            {
              "internalType": "uint256",
              "name": "projectId",
              "type": "uint256"
            },
            {
              "internalType": "uint256",
              "name": "amount",
              "type": "uint256"
            },
            {
              "internalType": "uint256",
              "name": "donatedAt",
              "type": "uint256"
            }
          ],
          "internalType": "struct PaymentInformations.PaymentInfo[]",
          "name": "",
          "type": "tuple[]"
        }
      ],
      "stateMutability": "view",
      "type": "function",
      "constant": true
    }
  ],
  "bytecode": "0x608060405234801561001057600080fd5b50604051610c64380380610c6483398101604081905261002f91610059565b600060018190558054600160a060020a031916600160a060020a0392909216919091179055610089565b60006020828403121561006b57600080fd5b8151600160a060020a038116811461008257600080fd5b9392505050565b610bcc806100986000396000f3fe608060405234801561001057600080fd5b506004361061007e577c0100000000000000000000000000000000000000000000000000000000600035046303b2ac32811461008357806330897e821461009857806356019cb0146100ab5780635ac9296a146100be578063b3f42ae2146100d9578063e05077c3146100f9575b600080fd5b61009661009136600461075e565b610101565b005b6100966100a636600461081d565b610134565b6100966100b9366004610871565b610294565b6100c6610382565b6040519081526020015b60405180910390f35b6100ec6100e73660046108bf565b6103da565b6040516100d09190610958565b6001546100c6565b60008181526002602052604081209061011a8282610688565b506000600182018190556002820181905560039091015550565b6000546040517f5413854100000000000000000000000000000000000000000000000000000000815273ffffffffffffffffffffffffffffffffffffffff9091169063541385419061018e908690869089906004016109e0565b600060405180830381600087803b1580156101a857600080fd5b505af11580156101bc573d6000803e3d6000fd5b5050600180549250905060006101d183610a21565b90915550506040805160808101825285815260208082018690528183018590526060820184905260015460009081526002825292909220815180519293919261021d92849201906106c5565b50602082015181600101556040820151816002015560608201518160030155905050828460405161024e9190610a3c565b6040805191829003822085835260208301859052917f1699b8eda85ea30c16ee9366dd53627ac9ac150f1ea015b0ab92574f4eb3e188910160405180910390a350505050565b6000546040517fe6279b4f000000000000000000000000000000000000000000000000000000008152600481018490526024810183905273ffffffffffffffffffffffffffffffffffffffff9091169063e6279b4f90604401600060405180830381600087803b15801561030757600080fd5b505af115801561031b573d6000803e3d6000fd5b50505050818360405161032e9190610a3c565b6040519081900390207f195447b6abe0b9f500cee5bcb0daae76e9c763b505c0d346788cb785c8bd510783610365426103e8610a58565b6040805192835260208301919091520160405180910390a3505050565b6000806103926201518042610a77565b90506000805b6001548110156103d357600081815260026020819052604090912001546103bf9083610a8e565b9150806103cb81610a21565b915050610398565b5092915050565b606060006103e7836105eb565b905060008167ffffffffffffffff81111561040457610404610777565b60405190808252806020026020018201604052801561046057816020015b61044d6040518060800160405280606081526020016000815260200160008152602001600081525090565b8152602001906001900390816104225790505b509050600060015b6001805461047591610a8e565b8110156105e1578560405160200161048d9190610a3c565b60408051601f1981840301815282825280516020918201206000858152600283529290922091926104bf929101610ade565b6040516020818303038152906040528051906020012014156105cf576000818152600260205260409081902081516080810190925280548290829061050390610aa6565b80601f016020809104026020016040519081016040528092919081815260200182805461052f90610aa6565b801561057c5780601f106105515761010080835404028352916020019161057c565b820191906000526020600020905b81548152906001019060200180831161055f57829003601f168201915b5050505050815260200160018201548152602001600282015481526020016003820154815250508383815181106105b5576105b5610b7d565b602002602001018190525081806105cb90610a21565b9250505b806105d981610a21565b915050610468565b5090949350505050565b6000805b600180546105fc91610a8e565b81101561068257826040516020016106149190610a3c565b60408051601f198184030181528282528051602091820120600085815260028352929092209192610646929101610ade565b604051602081830303815290604052805190602001201415610670578161066c81610a21565b9250505b8061067a81610a21565b9150506105ef565b50919050565b50805461069490610aa6565b6000825580601f106106a4575050565b601f0160209004906000526020600020908101906106c29190610749565b50565b8280546106d190610aa6565b90600052602060002090601f0160209004810192826106f35760008555610739565b82601f1061070c57805160ff1916838001178555610739565b82800160010185558215610739579182015b8281111561073957825182559160200191906001019061071e565b50610745929150610749565b5090565b5b80821115610745576000815560010161074a565b60006020828403121561077057600080fd5b5035919050565b60e060020a634e487b7102600052604160045260246000fd5b600082601f8301126107a157600080fd5b813567ffffffffffffffff808211156107bc576107bc610777565b604051601f8301601f19908116603f011681019082821181831017156107e4576107e4610777565b816040528381528660208588010111156107fd57600080fd5b836020870160208301376000602085830101528094505050505092915050565b6000806000806080858703121561083357600080fd5b843567ffffffffffffffff81111561084a57600080fd5b61085687828801610790565b97602087013597506040870135966060013595509350505050565b60008060006060848603121561088657600080fd5b833567ffffffffffffffff81111561089d57600080fd5b6108a986828701610790565b9660208601359650604090950135949350505050565b6000602082840312156108d157600080fd5b813567ffffffffffffffff8111156108e857600080fd5b6108f484828501610790565b949350505050565b60005b838110156109175781810151838201526020016108ff565b83811115610926576000848401525b50505050565b600081518084526109448160208601602086016108fc565b601f01601f19169290920160200192915050565b60208082528251828201819052600091906040908185019080840286018301878501865b838110156109d257603f198984030185528151608081518186526109a28287018261092c565b838b0151878c0152898401518a88015260609384015193909601929092525050938601939086019060010161097c565b509098975050505050505050565b8381528260208201526060604082015260006109ff606083018461092c565b95945050505050565b60e060020a634e487b7102600052601160045260246000fd5b6000600019821415610a3557610a35610a08565b5060010190565b60008251610a4e8184602087016108fc565b9190910192915050565b6000816000190483118215151615610a7257610a72610a08565b500290565b600082821015610a8957610a89610a08565b500390565b60008219821115610aa157610aa1610a08565b500190565b600281046001821680610aba57607f821691505b602082108114156106825760e060020a634e487b7102600052602260045260246000fd5b8154600090819060028104600180831680610afa57607f831692505b6020808410821415610b1d5760e060020a634e487b710286526022600452602486fd5b818015610b315760018114610b4257610b6f565b60ff19861689528489019650610b6f565b60008a81526020902060005b86811015610b675781548b820152908501908301610b4e565b505084890196505b509498975050505050505050565b60e060020a634e487b7102600052603260045260246000fdfea2646970667358221220992c1114f5d89990a2e522bd9f44ad05592d2cc7dfae88f3a68ce355ac9d7c8b64736f6c63430008090033",
  "immutableReferences": {},
  "source": "// SPDX-License-Identifier: MIT\n\npragma solidity ^0.8;\npragma experimental ABIEncoderV2;\n\nimport \"../project_management/Project.sol\";\n\ncontract PaymentInformations {\n    Project _projectAccessor;\n    uint256 private count;\n\n    constructor(address _projectAddress) {\n        count = 0;\n        _projectAccessor = Project(_projectAddress);\n    }\n\n    struct PaymentInfo {\n        string donorUsername;\n        uint256 projectId;\n        uint256 amount;\n        uint256 donatedAt;\n    }\n\n    event AddedPayment(\n        string indexed donorUsername,\n        uint256 indexed projectId,\n        uint256 amount,\n        uint256 donatedAt\n    );\n\n    event RefundedPayment(\n        string indexed donorUsername,\n        uint256 indexed projectId,\n        uint256 amount,\n        uint256 donatedAt\n    );\n\n    mapping(uint256 => PaymentInfo) private payments;\n\n    //add only donor modifier\n    function addPaymentInfo(\n        string memory donorUsername,\n        uint256 projectId,\n        uint256 amount,\n        uint256 donatedAt\n    ) external {\n        _projectAccessor.addPaymentInfo(projectId, amount, donorUsername);\n        count++;\n        payments[count] = PaymentInfo(\n            donorUsername,\n            projectId,\n            amount,\n            donatedAt\n        );\n        emit AddedPayment(donorUsername, projectId, amount, donatedAt);\n    }\n\n    function getOverallDonation() public returns (uint256) {\n        return count;\n    }\n\n    function getTodaysDonationsAmount() public returns (uint256) {\n        uint256 today = block.timestamp - 86400;\n        uint256 amount = 0;\n        for (uint256 index = 0; index < count; index++) {\n            amount += payments[index].amount;\n        }\n        return amount;\n    }\n\n    function refundMoney(\n        string memory donorUsername,\n        uint256 projectId,\n        uint256 amount\n    ) external {\n        _projectAccessor.refundMoney(projectId, amount);\n        // count++;\n        emit RefundedPayment(\n            donorUsername,\n            projectId,\n            amount,\n            block.timestamp * 1000\n        );\n    }\n\n    function deletePaymentInfo(uint256 id) external {\n        delete payments[id];\n    }\n\n    function getPaymentInfoCountByUsername(string memory _username)\n        internal\n        view\n        returns (uint256 length)\n    {\n        for (uint256 index = 0; index < count + 1; index++) {\n            if (\n                keccak256(abi.encodePacked(payments[index].donorUsername)) ==\n                keccak256(abi.encodePacked(_username))\n            ) {\n                length++;\n            }\n        }\n    }\n\n    //add only donor modifier\n    function getPaymentInfoByUsername(string memory _username)\n        external\n        view\n        returns (PaymentInfo[] memory)\n    {\n        uint256 length = getPaymentInfoCountByUsername(_username);\n        PaymentInfo[] memory ft = new PaymentInfo[](length);\n        uint256 counter = 0;\n        for (uint256 index = 1; index < count + 1; index++) {\n            if (\n                keccak256(abi.encodePacked(payments[index].donorUsername)) ==\n                keccak256(abi.encodePacked(_username))\n            ) {\n                ft[counter] = payments[index];\n                counter++;\n            }\n        }\n        return ft;\n    }\n}\n",
  "sourcePath": "/home/jeremy/Desktop/fets_front_end/src/contracts/payment_management/PaymentInformations.sol",
  "compiler": {
    "name": "solc",
    "version": "0.8.9+commit.e5eed63a.Emscripten.clang"
  },
  "schemaVersion": "3.4.3",
  "updatedAt": "2022-06-20T04:22:29.377Z",
  "networkType": "ethereum",
  "devdoc": {
    "kind": "dev",
    "methods": {},
    "version": 1
  },
  "userdoc": {
    "kind": "user",
    "methods": {},
    "version": 1
  }
}