{
  "contractName": "PaymentInformations",
  "abi": [
    {
      "inputs": [
        {
          "internalType": "address",
          "name": "_projectAddress",
          "type": "address"
        }
      ],
      "stateMutability": "nonpayable",
      "type": "constructor"
    },
    {
      "anonymous": false,
      "inputs": [
        {
          "indexed": true,
          "internalType": "string",
          "name": "donorUsername",
          "type": "string"
        },
        {
          "indexed": true,
          "internalType": "uint256",
          "name": "projectId",
          "type": "uint256"
        },
        {
          "indexed": false,
          "internalType": "uint256",
          "name": "amount",
          "type": "uint256"
        },
        {
          "indexed": false,
          "internalType": "uint256",
          "name": "donatedAt",
          "type": "uint256"
        }
      ],
      "name": "AddedPayment",
      "type": "event"
    },
    {
      "anonymous": false,
      "inputs": [
        {
          "indexed": true,
          "internalType": "string",
          "name": "donorUsername",
          "type": "string"
        },
        {
          "indexed": true,
          "internalType": "uint256",
          "name": "projectId",
          "type": "uint256"
        },
        {
          "indexed": false,
          "internalType": "uint256",
          "name": "amount",
          "type": "uint256"
        },
        {
          "indexed": false,
          "internalType": "uint256",
          "name": "donatedAt",
          "type": "uint256"
        }
      ],
      "name": "RefundedPayment",
      "type": "event"
    },
    {
      "inputs": [
        {
          "internalType": "uint256",
          "name": "",
          "type": "uint256"
        }
      ],
      "name": "payments",
      "outputs": [
        {
          "internalType": "string",
          "name": "donorUsername",
          "type": "string"
        },
        {
          "internalType": "uint256",
          "name": "projectId",
          "type": "uint256"
        },
        {
          "internalType": "uint256",
          "name": "amount",
          "type": "uint256"
        },
        {
          "internalType": "uint256",
          "name": "donatedAt",
          "type": "uint256"
        }
      ],
      "stateMutability": "view",
      "type": "function",
      "constant": true
    },
    {
      "inputs": [
        {
          "internalType": "string",
          "name": "donorUsername",
          "type": "string"
        },
        {
          "internalType": "uint256",
          "name": "projectId",
          "type": "uint256"
        },
        {
          "internalType": "uint256",
          "name": "amount",
          "type": "uint256"
        },
        {
          "internalType": "uint256",
          "name": "donatedAt",
          "type": "uint256"
        }
      ],
      "name": "addPaymentInfo",
      "outputs": [],
      "stateMutability": "nonpayable",
      "type": "function"
    },
    {
      "inputs": [
        {
          "internalType": "string",
          "name": "donorUsername",
          "type": "string"
        },
        {
          "internalType": "uint256",
          "name": "projectId",
          "type": "uint256"
        },
        {
          "internalType": "uint256",
          "name": "amount",
          "type": "uint256"
        }
      ],
      "name": "refundMoney",
      "outputs": [],
      "stateMutability": "nonpayable",
      "type": "function"
    },
    {
      "inputs": [
        {
          "internalType": "uint256",
          "name": "id",
          "type": "uint256"
        }
      ],
      "name": "deletePaymentInfo",
      "outputs": [],
      "stateMutability": "nonpayable",
      "type": "function"
    },
    {
      "inputs": [
        {
          "internalType": "string",
          "name": "_username",
          "type": "string"
        }
      ],
      "name": "getPaymentInfoByUsername",
      "outputs": [
        {
          "components": [
            {
              "internalType": "string",
              "name": "donorUsername",
              "type": "string"
            },
            {
              "internalType": "uint256",
              "name": "projectId",
              "type": "uint256"
            },
            {
              "internalType": "uint256",
              "name": "amount",
              "type": "uint256"
            },
            {
              "internalType": "uint256",
              "name": "donatedAt",
              "type": "uint256"
            }
          ],
          "internalType": "struct PaymentInformations.PaymentInfo[]",
          "name": "",
          "type": "tuple[]"
        }
      ],
      "stateMutability": "view",
      "type": "function",
      "constant": true
    }
  ],
  "bytecode": "0x608060405234801561001057600080fd5b50604051610cd2380380610cd283398101604081905261002f91610059565b600060018190558054600160a060020a031916600160a060020a0392909216919091179055610089565b60006020828403121561006b57600080fd5b8151600160a060020a038116811461008257600080fd5b9392505050565b610c3a806100986000396000f3fe608060405234801561001057600080fd5b5060043610610073577c0100000000000000000000000000000000000000000000000000000000600035046303b2ac32811461007857806330897e821461008d57806356019cb0146100a057806387d81789146100b3578063b3f42ae2146100df575b600080fd5b61008b6100863660046107b4565b6100ff565b005b61008b61009b366004610873565b610132565b61008b6100ae3660046108c7565b610292565b6100c66100c13660046107b4565b610380565b6040516100d69493929190610971565b60405180910390f35b6100f26100ed3660046109a0565b610430565b6040516100d691906109dd565b60008181526002602052604081209061011882826106de565b506000600182018190556002820181905560039091015550565b6000546040517f5413854100000000000000000000000000000000000000000000000000000000815273ffffffffffffffffffffffffffffffffffffffff9091169063541385419061018c90869086908990600401610a65565b600060405180830381600087803b1580156101a657600080fd5b505af11580156101ba573d6000803e3d6000fd5b5050600180549250905060006101cf83610aa6565b90915550506040805160808101825285815260208082018690528183018590526060820184905260015460009081526002825292909220815180519293919261021b928492019061071b565b50602082015181600101556040820151816002015560608201518160030155905050828460405161024c9190610ac1565b6040805191829003822085835260208301859052917f1699b8eda85ea30c16ee9366dd53627ac9ac150f1ea015b0ab92574f4eb3e188910160405180910390a350505050565b6000546040517fe6279b4f000000000000000000000000000000000000000000000000000000008152600481018490526024810183905273ffffffffffffffffffffffffffffffffffffffff9091169063e6279b4f90604401600060405180830381600087803b15801561030557600080fd5b505af1158015610319573d6000803e3d6000fd5b50505050818360405161032c9190610ac1565b6040519081900390207f195447b6abe0b9f500cee5bcb0daae76e9c763b505c0d346788cb785c8bd510783610363426103e8610add565b6040805192835260208301919091520160405180910390a3505050565b60026020526000908152604090208054819061039b90610afc565b80601f01602080910402602001604051908101604052809291908181526020018280546103c790610afc565b80156104145780601f106103e957610100808354040283529160200191610414565b820191906000526020600020905b8154815290600101906020018083116103f757829003601f168201915b5050505050908060010154908060020154908060030154905084565b6060600061043d83610641565b905060008167ffffffffffffffff81111561045a5761045a6107cd565b6040519080825280602002602001820160405280156104b657816020015b6104a36040518060800160405280606081526020016000815260200160008152602001600081525090565b8152602001906001900390816104785790505b509050600060015b600180546104cb91610b34565b81101561063757856040516020016104e39190610ac1565b60408051601f198184030181528282528051602091820120600085815260028352929092209192610515929101610b4c565b604051602081830303815290604052805190602001201415610625576000818152600260205260409081902081516080810190925280548290829061055990610afc565b80601f016020809104026020016040519081016040528092919081815260200182805461058590610afc565b80156105d25780601f106105a7576101008083540402835291602001916105d2565b820191906000526020600020905b8154815290600101906020018083116105b557829003601f168201915b50505050508152602001600182015481526020016002820154815260200160038201548152505083838151811061060b5761060b610beb565b6020026020010181905250818061062190610aa6565b9250505b8061062f81610aa6565b9150506104be565b5090949350505050565b6000805b6001805461065291610b34565b8110156106d8578260405160200161066a9190610ac1565b60408051601f19818403018152828252805160209182012060008581526002835292909220919261069c929101610b4c565b6040516020818303038152906040528051906020012014156106c657816106c281610aa6565b9250505b806106d081610aa6565b915050610645565b50919050565b5080546106ea90610afc565b6000825580601f106106fa575050565b601f016020900490600052602060002090810190610718919061079f565b50565b82805461072790610afc565b90600052602060002090601f016020900481019282610749576000855561078f565b82601f1061076257805160ff191683800117855561078f565b8280016001018555821561078f579182015b8281111561078f578251825591602001919060010190610774565b5061079b92915061079f565b5090565b5b8082111561079b57600081556001016107a0565b6000602082840312156107c657600080fd5b5035919050565b60e060020a634e487b7102600052604160045260246000fd5b600082601f8301126107f757600080fd5b813567ffffffffffffffff80821115610812576108126107cd565b604051601f8301601f19908116603f0116810190828211818310171561083a5761083a6107cd565b8160405283815286602085880101111561085357600080fd5b836020870160208301376000602085830101528094505050505092915050565b6000806000806080858703121561088957600080fd5b843567ffffffffffffffff8111156108a057600080fd5b6108ac878288016107e6565b97602087013597506040870135966060013595509350505050565b6000806000606084860312156108dc57600080fd5b833567ffffffffffffffff8111156108f357600080fd5b6108ff868287016107e6565b9660208601359650604090950135949350505050565b60005b83811015610930578181015183820152602001610918565b8381111561093f576000848401525b50505050565b6000815180845261095d816020860160208601610915565b601f01601f19169290920160200192915050565b6080815260006109846080830187610945565b6020830195909552506040810192909252606090910152919050565b6000602082840312156109b257600080fd5b813567ffffffffffffffff8111156109c957600080fd5b6109d5848285016107e6565b949350505050565b60208082528251828201819052600091906040908185019080840286018301878501865b83811015610a5757603f19898403018552815160808151818652610a2782870182610945565b838b0151878c0152898401518a880152606093840151939096019290925250509386019390860190600101610a01565b509098975050505050505050565b838152826020820152606060408201526000610a846060830184610945565b95945050505050565b60e060020a634e487b7102600052601160045260246000fd5b6000600019821415610aba57610aba610a8d565b5060010190565b60008251610ad3818460208701610915565b9190910192915050565b6000816000190483118215151615610af757610af7610a8d565b500290565b600281046001821680610b1057607f821691505b602082108114156106d85760e060020a634e487b7102600052602260045260246000fd5b60008219821115610b4757610b47610a8d565b500190565b8154600090819060028104600180831680610b6857607f831692505b6020808410821415610b8b5760e060020a634e487b710286526022600452602486fd5b818015610b9f5760018114610bb057610bdd565b60ff19861689528489019650610bdd565b60008a81526020902060005b86811015610bd55781548b820152908501908301610bbc565b505084890196505b509498975050505050505050565b60e060020a634e487b7102600052603260045260246000fdfea26469706673582212208df57a5678cbe583f3315f2d5e5f5f8ae35ad7841ab1d6fd691e355dd6bb221464736f6c63430008090033",
  "immutableReferences": {},
  "source": "// SPDX-License-Identifier: MIT\n\npragma solidity ^0.8;\npragma experimental ABIEncoderV2;\n\nimport \"../project_management/Project.sol\";\n\ncontract PaymentInformations {\n    Project _projectAccessor;\n    uint256 private count;\n\n    constructor(address _projectAddress) {\n        count = 0;\n        _projectAccessor = Project(_projectAddress);\n    }\n\n    struct PaymentInfo {\n        string donorUsername;\n        uint256 projectId;\n        uint256 amount;\n        uint256 donatedAt;\n    }\n\n    event AddedPayment(\n        string indexed donorUsername,\n        uint256 indexed projectId,\n        uint256 amount,\n        uint256 donatedAt\n    );\n\n    event RefundedPayment(\n        string indexed donorUsername,\n        uint256 indexed projectId,\n        uint256 amount,\n        uint256 donatedAt\n    );\n\n    mapping(uint256 => PaymentInfo) public payments;\n\n    //add only donor modifier\n    function addPaymentInfo(\n        string memory donorUsername,\n        uint256 projectId,\n        uint256 amount,\n        uint256 donatedAt\n    ) external {\n        _projectAccessor.addPaymentInfo(projectId, amount, donorUsername);\n        count++;\n        payments[count] = PaymentInfo(\n            donorUsername,\n            projectId,\n            amount,\n            donatedAt\n        );\n        emit AddedPayment(donorUsername, projectId, amount, donatedAt);\n    }\n\n    function refundMoney(\n        string memory donorUsername,\n        uint256 projectId,\n        uint256 amount\n    ) external {\n        _projectAccessor.refundMoney(projectId, amount);\n        // count++;\n        emit RefundedPayment(donorUsername, projectId, amount, block.timestamp * 1000);\n    }\n\n    function deletePaymentInfo(uint256 id) external {\n        delete payments[id];\n    }\n\n    function getPaymentInfoCountByUsername(string memory _username)\n        internal\n        view\n        returns (uint256 length)\n    {\n        for (uint256 index = 0; index < count + 1; index++) {\n            if (\n                keccak256(abi.encodePacked(payments[index].donorUsername)) ==\n                keccak256(abi.encodePacked(_username))\n            ) {\n                length++;\n            }\n        }\n    }\n\n    //add only donor modifier\n    function getPaymentInfoByUsername(string memory _username)\n        external\n        view\n        returns (PaymentInfo[] memory)\n    {\n        uint256 length = getPaymentInfoCountByUsername(_username);\n        PaymentInfo[] memory ft = new PaymentInfo[](length);\n        uint256 counter = 0;\n        for (uint256 index = 1; index < count + 1; index++) {\n            if (\n                keccak256(abi.encodePacked(payments[index].donorUsername)) ==\n                keccak256(abi.encodePacked(_username))\n            ) {\n                ft[counter] = payments[index];\n                counter++;\n            }\n        }\n        return ft;\n    }\n}\n",
  "sourcePath": "/home/jeremy/Desktop/fets_front_end/src/contracts/payment_management/PaymentInformations.sol",
  "compiler": {
    "name": "solc",
    "version": "0.8.9+commit.e5eed63a.Emscripten.clang"
  },
  "schemaVersion": "3.4.3",
  "updatedAt": "2022-06-19T21:54:34.485Z",
  "networkType": "ethereum",
  "devdoc": {
    "kind": "dev",
    "methods": {},
    "version": 1
  },
  "userdoc": {
    "kind": "user",
    "methods": {},
    "version": 1
  }
}