{
  "contractName": "PaymentInformations",
  "abi": [
    {
      "anonymous": false,
      "inputs": [
        {
          "indexed": true,
          "internalType": "string",
          "name": "donorUsername",
          "type": "string"
        },
        {
          "indexed": true,
          "internalType": "string",
          "name": "projectId",
          "type": "string"
        },
        {
          "indexed": false,
          "internalType": "uint256",
          "name": "amount",
          "type": "uint256"
        },
        {
          "indexed": false,
          "internalType": "uint256",
          "name": "donatedAt",
          "type": "uint256"
        }
      ],
      "name": "AddedPayment",
      "type": "event"
    },
    {
      "anonymous": false,
      "inputs": [
        {
          "indexed": true,
          "internalType": "string",
          "name": "donorUsername",
          "type": "string"
        },
        {
          "indexed": true,
          "internalType": "string",
          "name": "projectId",
          "type": "string"
        },
        {
          "indexed": false,
          "internalType": "uint256",
          "name": "amount",
          "type": "uint256"
        },
        {
          "indexed": false,
          "internalType": "uint256",
          "name": "donatedAt",
          "type": "uint256"
        }
      ],
      "name": "RefundedPayment",
      "type": "event"
    },
    {
      "inputs": [
        {
          "internalType": "uint256",
          "name": "",
          "type": "uint256"
        }
      ],
      "name": "payments",
      "outputs": [
        {
          "internalType": "string",
          "name": "donorUsername",
          "type": "string"
        },
        {
          "internalType": "string",
          "name": "projectId",
          "type": "string"
        },
        {
          "internalType": "uint256",
          "name": "amount",
          "type": "uint256"
        },
        {
          "internalType": "uint256",
          "name": "donatedAt",
          "type": "uint256"
        }
      ],
      "stateMutability": "view",
      "type": "function",
      "constant": true
    },
    {
      "inputs": [
        {
          "internalType": "string",
          "name": "donorUsername",
          "type": "string"
        },
        {
          "internalType": "string",
          "name": "projectId",
          "type": "string"
        },
        {
          "internalType": "uint256",
          "name": "amount",
          "type": "uint256"
        },
        {
          "internalType": "uint256",
          "name": "donatedAt",
          "type": "uint256"
        }
      ],
      "name": "addPaymentInfo",
      "outputs": [],
      "stateMutability": "nonpayable",
      "type": "function"
    },
    {
      "inputs": [
        {
          "internalType": "uint256",
          "name": "id",
          "type": "uint256"
        }
      ],
      "name": "deletePaymentInfo",
      "outputs": [],
      "stateMutability": "nonpayable",
      "type": "function"
    },
    {
      "inputs": [
        {
          "internalType": "string",
          "name": "_username",
          "type": "string"
        }
      ],
      "name": "getPaymentInfoByUsername",
      "outputs": [
        {
          "components": [
            {
              "internalType": "string",
              "name": "donorUsername",
              "type": "string"
            },
            {
              "internalType": "string",
              "name": "projectId",
              "type": "string"
            },
            {
              "internalType": "uint256",
              "name": "amount",
              "type": "uint256"
            },
            {
              "internalType": "uint256",
              "name": "donatedAt",
              "type": "uint256"
            }
          ],
          "internalType": "struct PaymentInformations.PaymentInfo[]",
          "name": "",
          "type": "tuple[]"
        }
      ],
      "stateMutability": "view",
      "type": "function",
      "constant": true
    }
  ],
  "bytecode": "0x608060405234801561001057600080fd5b50610fb3806100206000396000f3fe608060405234801561001057600080fd5b506004361061004c5760003560e01c806303b2ac32146100515780637719ca021461006d57806387d8178914610089578063b3f42ae2146100bc575b600080fd5b61006b6004803603810190610066919061080c565b6100ec565b005b6100876004803603810190610082919061097f565b610135565b005b6100a3600480360381019061009e919061080c565b610238565b6040516100b39493929190610ab5565b60405180910390f35b6100d660048036038101906100d19190610b08565b610378565b6040516100e39190610cd6565b60405180910390f35b600160008281526020019081526020016000206000808201600061011091906106b7565b60018201600061012091906106b7565b60028201600090556003820160009055505050565b60405180608001604052808581526020018481526020018381526020018281525060016000806000815461016890610d27565b919050819055815260200190815260200160002060008201518160000190805190602001906101989291906106f7565b5060208201518160010190805190602001906101b59291906106f7565b506040820151816002015560608201518160030155905050826040516101db9190610dac565b6040518091039020846040516101f19190610dac565b60405180910390207f2b90cfe3c4b3cc84ef43e0ec4f713d08fda4fc9c2990fd12dc7a502ee68c2b05848460405161022a929190610dc3565b60405180910390a350505050565b600160205280600052604060002060009150905080600001805461025b90610e1b565b80601f016020809104026020016040519081016040528092919081815260200182805461028790610e1b565b80156102d45780601f106102a9576101008083540402835291602001916102d4565b820191906000526020600020905b8154815290600101906020018083116102b757829003601f168201915b5050505050908060010180546102e990610e1b565b80601f016020809104026020016040519081016040528092919081815260200182805461031590610e1b565b80156103625780601f1061033757610100808354040283529160200191610362565b820191906000526020600020905b81548152906001019060200180831161034557829003601f168201915b5050505050908060020154908060030154905084565b6060600061038583610608565b905060008167ffffffffffffffff8111156103a3576103a2610854565b5b6040519080825280602002602001820160405280156103dc57816020015b6103c961077d565b8152602001906001900390816103c15790505b509050600080600190505b60016000546103f69190610e4d565b8110156105fc578560405160200161040e9190610dac565b604051602081830303815290604052805190602001206001600083815260200190815260200160002060000160405160200161044a9190610f37565b6040516020818303038152906040528051906020012014156105e9576001600082815260200190815260200160002060405180608001604052908160008201805461049490610e1b565b80601f01602080910402602001604051908101604052809291908181526020018280546104c090610e1b565b801561050d5780601f106104e25761010080835404028352916020019161050d565b820191906000526020600020905b8154815290600101906020018083116104f057829003601f168201915b5050505050815260200160018201805461052690610e1b565b80601f016020809104026020016040519081016040528092919081815260200182805461055290610e1b565b801561059f5780601f106105745761010080835404028352916020019161059f565b820191906000526020600020905b81548152906001019060200180831161058257829003601f168201915b50505050508152602001600282015481526020016003820154815250508383815181106105cf576105ce610f4e565b5b602002602001018190525081806105e590610d27565b9250505b80806105f490610d27565b9150506103e7565b50819350505050919050565b600080600090505b600160005461061f9190610e4d565b8110156106b157826040516020016106379190610dac565b60405160208183030381529060405280519060200120600160008381526020019081526020016000206000016040516020016106739190610f37565b60405160208183030381529060405280519060200120141561069e57818061069a90610d27565b9250505b80806106a990610d27565b915050610610565b50919050565b5080546106c390610e1b565b6000825580601f106106d557506106f4565b601f0160209004906000526020600020908101906106f391906107a5565b5b50565b82805461070390610e1b565b90600052602060002090601f016020900481019282610725576000855561076c565b82601f1061073e57805160ff191683800117855561076c565b8280016001018555821561076c579182015b8281111561076b578251825591602001919060010190610750565b5b50905061077991906107a5565b5090565b6040518060800160405280606081526020016060815260200160008152602001600081525090565b5b808211156107be5760008160009055506001016107a6565b5090565b6000604051905090565b600080fd5b600080fd5b6000819050919050565b6107e9816107d6565b81146107f457600080fd5b50565b600081359050610806816107e0565b92915050565b600060208284031215610822576108216107cc565b5b6000610830848285016107f7565b91505092915050565b600080fd5b600080fd5b6000601f19601f8301169050919050565b7f4e487b7100000000000000000000000000000000000000000000000000000000600052604160045260246000fd5b61088c82610843565b810181811067ffffffffffffffff821117156108ab576108aa610854565b5b80604052505050565b60006108be6107c2565b90506108ca8282610883565b919050565b600067ffffffffffffffff8211156108ea576108e9610854565b5b6108f382610843565b9050602081019050919050565b82818337600083830152505050565b600061092261091d846108cf565b6108b4565b90508281526020810184848401111561093e5761093d61083e565b5b610949848285610900565b509392505050565b600082601f83011261096657610965610839565b5b813561097684826020860161090f565b91505092915050565b60008060008060808587031215610999576109986107cc565b5b600085013567ffffffffffffffff8111156109b7576109b66107d1565b5b6109c387828801610951565b945050602085013567ffffffffffffffff8111156109e4576109e36107d1565b5b6109f087828801610951565b9350506040610a01878288016107f7565b9250506060610a12878288016107f7565b91505092959194509250565b600081519050919050565b600082825260208201905092915050565b60005b83811015610a58578082015181840152602081019050610a3d565b83811115610a67576000848401525b50505050565b6000610a7882610a1e565b610a828185610a29565b9350610a92818560208601610a3a565b610a9b81610843565b840191505092915050565b610aaf816107d6565b82525050565b60006080820190508181036000830152610acf8187610a6d565b90508181036020830152610ae38186610a6d565b9050610af26040830185610aa6565b610aff6060830184610aa6565b95945050505050565b600060208284031215610b1e57610b1d6107cc565b5b600082013567ffffffffffffffff811115610b3c57610b3b6107d1565b5b610b4884828501610951565b91505092915050565b600081519050919050565b600082825260208201905092915050565b6000819050602082019050919050565b600082825260208201905092915050565b6000610b9982610a1e565b610ba38185610b7d565b9350610bb3818560208601610a3a565b610bbc81610843565b840191505092915050565b610bd0816107d6565b82525050565b60006080830160008301518482036000860152610bf38282610b8e565b91505060208301518482036020860152610c0d8282610b8e565b9150506040830151610c226040860182610bc7565b506060830151610c356060860182610bc7565b508091505092915050565b6000610c4c8383610bd6565b905092915050565b6000602082019050919050565b6000610c6c82610b51565b610c768185610b5c565b935083602082028501610c8885610b6d565b8060005b85811015610cc45784840389528151610ca58582610c40565b9450610cb083610c54565b925060208a01995050600181019050610c8c565b50829750879550505050505092915050565b60006020820190508181036000830152610cf08184610c61565b905092915050565b7f4e487b7100000000000000000000000000000000000000000000000000000000600052601160045260246000fd5b6000610d32826107d6565b91507fffffffffffffffffffffffffffffffffffffffffffffffffffffffffffffffff821415610d6557610d64610cf8565b5b600182019050919050565b600081905092915050565b6000610d8682610a1e565b610d908185610d70565b9350610da0818560208601610a3a565b80840191505092915050565b6000610db88284610d7b565b915081905092915050565b6000604082019050610dd86000830185610aa6565b610de56020830184610aa6565b9392505050565b7f4e487b7100000000000000000000000000000000000000000000000000000000600052602260045260246000fd5b60006002820490506001821680610e3357607f821691505b60208210811415610e4757610e46610dec565b5b50919050565b6000610e58826107d6565b9150610e63836107d6565b9250827fffffffffffffffffffffffffffffffffffffffffffffffffffffffffffffffff03821115610e9857610e97610cf8565b5b828201905092915050565b60008190508160005260206000209050919050565b60008154610ec581610e1b565b610ecf8186610d70565b94506001821660008114610eea5760018114610efb57610f2e565b60ff19831686528186019350610f2e565b610f0485610ea3565b60005b83811015610f2657815481890152600182019150602081019050610f07565b838801955050505b50505092915050565b6000610f438284610eb8565b915081905092915050565b7f4e487b7100000000000000000000000000000000000000000000000000000000600052603260045260246000fdfea2646970667358221220efde4d0820ed6e98889bf73346f5e74f74e4848e4f9e6929a9cc52c27d0e433164736f6c63430008090033",
  "immutableReferences": {},
  "source": "// SPDX-License-Identifier: MIT\n\npragma solidity ^0.8;\npragma experimental ABIEncoderV2;\n\ncontract PaymentInformations {\n    uint256 count;\n\n    struct PaymentInfo {\n        string donorUsername;\n        string projectId;\n        uint256 amount;\n        uint256 donatedAt;\n    }\n\n    event AddedPayment(\n        string indexed donorUsername,\n        string indexed projectId,\n        uint256 amount,\n        uint256 donatedAt\n    );\n\n    event RefundedPayment(\n        string indexed donorUsername,\n        string indexed projectId,\n        uint256 amount,\n        uint256 donatedAt\n    );\n\n    mapping(uint256 => PaymentInfo) public payments;\n\n    //add only donor modifier\n    function addPaymentInfo(\n        string memory donorUsername,\n        string memory projectId,\n        uint256 amount,\n        uint256 donatedAt\n    ) external {\n        payments[++count] = PaymentInfo(\n            donorUsername,\n            projectId,\n            amount,\n            donatedAt\n        );\n        emit AddedPayment(donorUsername, projectId, amount, donatedAt);\n    }\n\n    function deletePaymentInfo(uint256 id) external {\n        delete payments[id];\n    }\n\n    function getPaymentInfoCountByUsername(string memory _username)\n        internal\n        view\n        returns (uint256 length)\n    {\n        for (uint256 index = 0; index < count + 1; index++) {\n            if (\n                keccak256(abi.encodePacked(payments[index].donorUsername)) ==\n                keccak256(abi.encodePacked(_username))\n            ) {\n                length++;\n            }\n        }\n    }\n\n    //add only donor modifier\n    function getPaymentInfoByUsername(string memory _username)\n        external\n        view\n        returns (PaymentInfo[] memory)\n    {\n        uint256 length = getPaymentInfoCountByUsername(_username);\n        PaymentInfo[] memory ft = new PaymentInfo[](length);\n        uint256 counter = 0;\n        for (uint256 index = 1; index < count + 1; index++) {\n            if (\n                keccak256(abi.encodePacked(payments[index].donorUsername)) ==\n                keccak256(abi.encodePacked(_username))\n            ) {\n                ft[counter] = payments[index];\n                counter++;\n            }\n        }\n        return ft;\n    }\n}\n",
  "sourcePath": "/home/jeremy/Desktop/fets_front_end/src/contracts/payment_management/PaymentInformations.sol",
  "compiler": {
    "name": "solc",
    "version": "0.8.9+commit.e5eed63a.Emscripten.clang"
  },
  "schemaVersion": "3.4.3",
  "updatedAt": "2022-06-17T08:47:39.975Z",
  "networkType": "ethereum",
  "devdoc": {
    "kind": "dev",
    "methods": {},
    "version": 1
  },
  "userdoc": {
    "kind": "user",
    "methods": {},
    "version": 1
  }
}