{
  "contractName": "ProjectUserMapping",
  "abi": [
    {
      "inputs": [
        {
          "internalType": "address",
          "name": "_projectAddress",
          "type": "address"
        },
        {
          "internalType": "address",
          "name": "_subProjectAddress",
          "type": "address"
        },
        {
          "internalType": "address",
          "name": "_taskAddress",
          "type": "address"
        }
      ],
      "stateMutability": "nonpayable",
      "type": "constructor"
    },
    {
      "anonymous": false,
      "inputs": [
        {
          "indexed": false,
          "internalType": "uint256",
          "name": "projectId",
          "type": "uint256"
        },
        {
          "indexed": false,
          "internalType": "string",
          "name": "financialOfficerUsername",
          "type": "string"
        },
        {
          "indexed": false,
          "internalType": "string",
          "name": "projectManagerUsernmae",
          "type": "string"
        },
        {
          "indexed": false,
          "internalType": "string",
          "name": "budgetAndProcurementManagerUsername",
          "type": "string"
        },
        {
          "indexed": false,
          "internalType": "string",
          "name": "externalAuditorUsername",
          "type": "string"
        }
      ],
      "name": "ProjectMapped",
      "type": "event"
    },
    {
      "inputs": [
        {
          "internalType": "uint256",
          "name": "projectId",
          "type": "uint256"
        },
        {
          "internalType": "string",
          "name": "financialOfficerUsername",
          "type": "string"
        },
        {
          "internalType": "string",
          "name": "projectManagerUsernmae",
          "type": "string"
        },
        {
          "internalType": "string",
          "name": "budgetAndProcurementManagerUsername",
          "type": "string"
        },
        {
          "internalType": "string",
          "name": "externalAuditorUsername",
          "type": "string"
        }
      ],
      "name": "addMapping",
      "outputs": [],
      "stateMutability": "nonpayable",
      "type": "function"
    },
    {
      "inputs": [
        {
          "internalType": "uint256",
          "name": "_id",
          "type": "uint256"
        }
      ],
      "name": "getProjectByIdFromMapping",
      "outputs": [
        {
          "components": [
            {
              "internalType": "uint256",
              "name": "id",
              "type": "uint256"
            },
            {
              "internalType": "string",
              "name": "name",
              "type": "string"
            },
            {
              "internalType": "string",
              "name": "description",
              "type": "string"
            },
            {
              "internalType": "string",
              "name": "location",
              "type": "string"
            },
            {
              "internalType": "uint256",
              "name": "estimatedBudget",
              "type": "uint256"
            },
            {
              "internalType": "uint256",
              "name": "fundedMoney",
              "type": "uint256"
            },
            {
              "internalType": "uint256",
              "name": "estimatedDuration",
              "type": "uint256"
            },
            {
              "internalType": "uint256",
              "name": "createdAt",
              "type": "uint256"
            },
            {
              "internalType": "string",
              "name": "companyId",
              "type": "string"
            },
            {
              "internalType": "string",
              "name": "accountNumber",
              "type": "string"
            },
            {
              "internalType": "enum Project.ProjectStatus",
              "name": "status",
              "type": "uint8"
            },
            {
              "internalType": "string[]",
              "name": "donors",
              "type": "string[]"
            }
          ],
          "internalType": "struct Project.ProjectInfo",
          "name": "",
          "type": "tuple"
        }
      ],
      "stateMutability": "view",
      "type": "function",
      "constant": true
    },
    {
      "inputs": [
        {
          "internalType": "string",
          "name": "_username",
          "type": "string"
        }
      ],
      "name": "getProjectsListByUsername",
      "outputs": [
        {
          "components": [
            {
              "internalType": "uint256",
              "name": "id",
              "type": "uint256"
            },
            {
              "internalType": "string",
              "name": "name",
              "type": "string"
            },
            {
              "internalType": "string",
              "name": "description",
              "type": "string"
            },
            {
              "internalType": "string",
              "name": "location",
              "type": "string"
            },
            {
              "internalType": "uint256",
              "name": "estimatedBudget",
              "type": "uint256"
            },
            {
              "internalType": "uint256",
              "name": "fundedMoney",
              "type": "uint256"
            },
            {
              "internalType": "uint256",
              "name": "estimatedDuration",
              "type": "uint256"
            },
            {
              "internalType": "uint256",
              "name": "createdAt",
              "type": "uint256"
            },
            {
              "internalType": "string",
              "name": "companyId",
              "type": "string"
            },
            {
              "internalType": "string",
              "name": "accountNumber",
              "type": "string"
            },
            {
              "internalType": "enum Project.ProjectStatus",
              "name": "status",
              "type": "uint8"
            },
            {
              "internalType": "string[]",
              "name": "donors",
              "type": "string[]"
            }
          ],
          "internalType": "struct Project.ProjectInfo[]",
          "name": "",
          "type": "tuple[]"
        }
      ],
      "stateMutability": "view",
      "type": "function",
      "constant": true
    },
    {
      "inputs": [
        {
          "internalType": "uint256",
          "name": "_projectId",
          "type": "uint256"
        }
      ],
      "name": "getSubProjectListByProjectId",
      "outputs": [
        {
          "components": [
            {
              "internalType": "uint256",
              "name": "id",
              "type": "uint256"
            },
            {
              "internalType": "string",
              "name": "name",
              "type": "string"
            },
            {
              "internalType": "string",
              "name": "description",
              "type": "string"
            },
            {
              "internalType": "uint256",
              "name": "projectId",
              "type": "uint256"
            },
            {
              "internalType": "uint256",
              "name": "estimatedDuration",
              "type": "uint256"
            },
            {
              "internalType": "uint256",
              "name": "createdAt",
              "type": "uint256"
            }
          ],
          "internalType": "struct SubProject.SubProjectInfo[]",
          "name": "",
          "type": "tuple[]"
        }
      ],
      "stateMutability": "view",
      "type": "function",
      "constant": true
    },
    {
      "inputs": [
        {
          "internalType": "uint256",
          "name": "_id",
          "type": "uint256"
        }
      ],
      "name": "getMappingById",
      "outputs": [
        {
          "components": [
            {
              "internalType": "uint256",
              "name": "projectId",
              "type": "uint256"
            },
            {
              "internalType": "string",
              "name": "financialOfficerUsername",
              "type": "string"
            },
            {
              "internalType": "string",
              "name": "projectManagerUsernmae",
              "type": "string"
            },
            {
              "internalType": "string",
              "name": "budgetAndProcurementManagerUsername",
              "type": "string"
            },
            {
              "internalType": "string",
              "name": "externalAuditorUsername",
              "type": "string"
            }
          ],
          "internalType": "struct ProjectUserMapping.MappingInfo",
          "name": "",
          "type": "tuple"
        }
      ],
      "stateMutability": "view",
      "type": "function",
      "constant": true
    },
    {
      "inputs": [],
      "name": "getAllSubProjects",
      "outputs": [
        {
          "components": [
            {
              "internalType": "uint256",
              "name": "id",
              "type": "uint256"
            },
            {
              "internalType": "string",
              "name": "name",
              "type": "string"
            },
            {
              "internalType": "string",
              "name": "description",
              "type": "string"
            },
            {
              "internalType": "uint256",
              "name": "projectId",
              "type": "uint256"
            },
            {
              "internalType": "uint256",
              "name": "estimatedDuration",
              "type": "uint256"
            },
            {
              "internalType": "uint256",
              "name": "createdAt",
              "type": "uint256"
            }
          ],
          "internalType": "struct SubProject.SubProjectInfo[]",
          "name": "",
          "type": "tuple[]"
        }
      ],
      "stateMutability": "view",
      "type": "function",
      "constant": true
    },
    {
      "inputs": [
        {
          "internalType": "uint256",
          "name": "_projectId",
          "type": "uint256"
        }
      ],
      "name": "getTaskListByProjectId",
      "outputs": [
        {
          "components": [
            {
              "internalType": "uint256",
              "name": "id",
              "type": "uint256"
            },
            {
              "internalType": "string",
              "name": "name",
              "type": "string"
            },
            {
              "internalType": "string",
              "name": "description",
              "type": "string"
            },
            {
              "internalType": "uint256",
              "name": "projectId",
              "type": "uint256"
            },
            {
              "internalType": "uint256",
              "name": "subProjectId",
              "type": "uint256"
            },
            {
              "internalType": "uint256",
              "name": "estimatedDuration",
              "type": "uint256"
            },
            {
              "internalType": "enum Task.TaskStatus",
              "name": "status",
              "type": "uint8"
            },
            {
              "internalType": "uint256",
              "name": "allocatedBudget",
              "type": "uint256"
            },
            {
              "internalType": "string",
              "name": "remark",
              "type": "string"
            },
            {
              "internalType": "uint256",
              "name": "createdAt",
              "type": "uint256"
            }
          ],
          "internalType": "struct Task.TaskInfo[]",
          "name": "",
          "type": "tuple[]"
        }
      ],
      "stateMutability": "view",
      "type": "function",
      "constant": true
    },
    {
      "inputs": [
        {
          "internalType": "uint256",
          "name": "_projectId",
          "type": "uint256"
        }
      ],
      "name": "getTaskListBySubProject",
      "outputs": [
        {
          "components": [
            {
              "internalType": "uint256",
              "name": "id",
              "type": "uint256"
            },
            {
              "internalType": "string",
              "name": "name",
              "type": "string"
            },
            {
              "internalType": "string",
              "name": "description",
              "type": "string"
            },
            {
              "internalType": "uint256",
              "name": "projectId",
              "type": "uint256"
            },
            {
              "internalType": "uint256",
              "name": "subProjectId",
              "type": "uint256"
            },
            {
              "internalType": "uint256",
              "name": "estimatedDuration",
              "type": "uint256"
            },
            {
              "internalType": "enum Task.TaskStatus",
              "name": "status",
              "type": "uint8"
            },
            {
              "internalType": "uint256",
              "name": "allocatedBudget",
              "type": "uint256"
            },
            {
              "internalType": "string",
              "name": "remark",
              "type": "string"
            },
            {
              "internalType": "uint256",
              "name": "createdAt",
              "type": "uint256"
            }
          ],
          "internalType": "struct Task.TaskInfo[]",
          "name": "",
          "type": "tuple[]"
        }
      ],
      "stateMutability": "view",
      "type": "function",
      "constant": true
    },
    {
      "inputs": [
        {
          "internalType": "uint256",
          "name": "_projectId",
          "type": "uint256"
        }
      ],
      "name": "getTaskStatusByProjectId",
      "outputs": [
        {
          "internalType": "uint256",
          "name": "approved",
          "type": "uint256"
        },
        {
          "internalType": "uint256",
          "name": "unapproved",
          "type": "uint256"
        }
      ],
      "stateMutability": "view",
      "type": "function",
      "constant": true
    },
    {
      "inputs": [
        {
          "internalType": "uint256",
          "name": "_subProjectId",
          "type": "uint256"
        }
      ],
      "name": "getTaskStatusBySubProjectId",
      "outputs": [
        {
          "internalType": "uint256",
          "name": "approved",
          "type": "uint256"
        },
        {
          "internalType": "uint256",
          "name": "unapproved",
          "type": "uint256"
        }
      ],
      "stateMutability": "view",
      "type": "function",
      "constant": true
    }
  ],
  "bytecode": "0x60806040523480156200001157600080fd5b5060405162001cdb38038062001cdb833981016040819052620000349162000098565b6000805560018054600160a060020a03948516600160a060020a031991821617909155600280549385169382169390931790925560038054919093169116179055620000e2565b8051600160a060020a03811681146200009357600080fd5b919050565b600080600060608486031215620000ae57600080fd5b620000b9846200007b565b9250620000c9602085016200007b565b9150620000d9604085016200007b565b90509250925092565b611be980620000f26000396000f3fe608060405234801561001057600080fd5b50600436106100bb576000357c010000000000000000000000000000000000000000000000000000000090048063a2bd1e9e11610083578063a2bd1e9e14610166578063a71205c114610186578063beccbab714610199578063c50c58cd146101ae578063deb1db10146101c157600080fd5b806341db35ca146100c05780635e0f94d3146100e95780636874c5f7146101115780636ee8694b1461013157806393a35ef314610151575b600080fd5b6100d36100ce366004610e4f565b6101d4565b6040516100e09190610ef1565b60405180910390f35b6100fc6100f7366004610e4f565b610275565b604080519283526020830191909152016100e0565b61012461011f366004610e4f565b610318565b6040516100e09190611138565b61014461013f366004610e4f565b6103b9565b6040516100e09190611152565b610159610662565b6040516100e091906111da565b6101796101743660046113b1565b610701565b6040516100e091906113ee565b610159610194366004610e4f565b610976565b6101ac6101a736600461144f565b610a10565b005b6100fc6101bc366004610e4f565b610ad6565b6100d36101cf366004610e4f565b610b25565b6003546040517f5ea62f5600000000000000000000000000000000000000000000000000000000815260048101839052606091600160a060020a031690635ea62f56906024015b60006040518083038186803b15801561023357600080fd5b505afa158015610247573d6000803e3d6000fd5b505050506040513d6000823e601f3d908101601f1916820160405261026f9190810190611583565b92915050565b6003546040517f5e0f94d3000000000000000000000000000000000000000000000000000000008152600481018390526000918291600160a060020a0390911690635e0f94d3906024015b604080518083038186803b1580156102d757600080fd5b505afa1580156102eb573d6000803e3d6000fd5b505050506040513d601f19601f8201168201806040525081019061030f9190611705565b91509150915091565b610320610d44565b6001546040517fbee5cdca00000000000000000000000000000000000000000000000000000000815260048101849052600160a060020a039091169063bee5cdca9060240160006040518083038186803b15801561037d57600080fd5b505afa158015610391573d6000803e3d6000fd5b505050506040513d6000823e601f3d908101601f1916820160405261026f91908101906117c0565b6103eb6040518060a0016040528060008152602001606081526020016060815260200160608152602001606081525090565b600460008381526020019081526020016000206040518060a0016040529081600082015481526020016001820180546104239061192e565b80601f016020809104026020016040519081016040528092919081815260200182805461044f9061192e565b801561049c5780601f106104715761010080835404028352916020019161049c565b820191906000526020600020905b81548152906001019060200180831161047f57829003601f168201915b505050505081526020016002820180546104b59061192e565b80601f01602080910402602001604051908101604052809291908181526020018280546104e19061192e565b801561052e5780601f106105035761010080835404028352916020019161052e565b820191906000526020600020905b81548152906001019060200180831161051157829003601f168201915b505050505081526020016003820180546105479061192e565b80601f01602080910402602001604051908101604052809291908181526020018280546105739061192e565b80156105c05780601f10610595576101008083540402835291602001916105c0565b820191906000526020600020905b8154815290600101906020018083116105a357829003601f168201915b505050505081526020016004820180546105d99061192e565b80601f01602080910402602001604051908101604052809291908181526020018280546106059061192e565b80156106525780601f1061062757610100808354040283529160200191610652565b820191906000526020600020905b81548152906001019060200180831161063557829003601f168201915b5050505050815250509050919050565b600254604080517f93a35ef30000000000000000000000000000000000000000000000000000000081529051606092600160a060020a0316916393a35ef3916004808301926000929190829003018186803b1580156106c057600080fd5b505afa1580156106d4573d6000803e3d6000fd5b505050506040513d6000823e601f3d908101601f191682016040526106fc9190810190611966565b905090565b6060600061070e83610b70565b905060008167ffffffffffffffff81111561072b5761072b611278565b60405190808252806020026020018201604052801561076457816020015b610751610d44565b8152602001906001900390816107495790505b509050600060015b60005461077a906001611aac565b81101561096c57856040516020016107929190611ac4565b60408051601f1981840301815282825280516020918201206000858152600483529290922091926107c7926001019101611ae0565b6040516020818303038152906040528051906020012014806108425750856040516020016107f59190611ac4565b60408051601f19818403018152828252805160209182012060008581526004835292909220919261082a926003019101611ae0565b60405160208183030381529060405280519060200120145b806108a65750856040516020016108599190611ac4565b60408051601f19818403018152828252805160209182012060008581526004835292909220919261088e926002019101611ae0565b60405160208183030381529060405280519060200120145b806109115750856040516020016108bd9190611ac4565b60405160208183030381529060405280519060200120600460008381526020019081526020016000206004016040516020016108f99190611ae0565b60405160208183030381529060405280519060200120145b1561095a5760008181526004602052604090205461092e90610318565b83838151811061094057610940611b7f565b6020026020010181905250818061095690611b98565b9250505b8061096481611b98565b91505061076c565b5090949350505050565b6002546040517f778f8c4e00000000000000000000000000000000000000000000000000000000815260048101839052606091600160a060020a03169063778f8c4e9060240160006040518083038186803b1580156109d457600080fd5b505afa1580156109e8573d6000803e3d6000fd5b505050506040513d6000823e601f3d908101601f1916820160405261026f9190810190611966565b6001600080828254610a229190611aac565b90915550506040805160a08101825286815260208082018781528284018790526060830186905260808301859052600089815260048352939093208251815592518051929392610a789260018501920190610db6565b5060408201518051610a94916002840191602090910190610db6565b5060608201518051610ab0916003840191602090910190610db6565b5060808201518051610acc916004840191602090910190610db6565b5050505050505050565b6003546040517fc50c58cd000000000000000000000000000000000000000000000000000000008152600481018390526000918291600160a060020a039091169063c50c58cd906024016102c0565b6003546040517fa83243da00000000000000000000000000000000000000000000000000000000815260048101839052606091600160a060020a03169063a83243da9060240161021b565b6000805b600054610b82906001611aac565b811015610d3e5782604051602001610b9a9190611ac4565b60408051601f198184030181528282528051602091820120600085815260048352929092209192610bcf926001019101611ae0565b604051602081830303815290604052805190602001201480610c4a575082604051602001610bfd9190611ac4565b60408051601f198184030181528282528051602091820120600085815260048352929092209192610c32926003019101611ae0565b60405160208183030381529060405280519060200120145b80610cae575082604051602001610c619190611ac4565b60408051601f198184030181528282528051602091820120600085815260048352929092209192610c96926002019101611ae0565b60405160208183030381529060405280519060200120145b80610d19575082604051602001610cc59190611ac4565b6040516020818303038152906040528051906020012060046000838152602001908152602001600020600401604051602001610d019190611ae0565b60405160208183030381529060405280519060200120145b15610d2c5781610d2881611b98565b9250505b80610d3681611b98565b915050610b74565b50919050565b6040518061018001604052806000815260200160608152602001606081526020016060815260200160008152602001600081526020016000815260200160008152602001606081526020016060815260200160006004811115610da957610da9610ec4565b8152602001606081525090565b828054610dc29061192e565b90600052602060002090601f016020900481019282610de45760008555610e2a565b82601f10610dfd57805160ff1916838001178555610e2a565b82800160010185558215610e2a579182015b82811115610e2a578251825591602001919060010190610e0f565b50610e36929150610e3a565b5090565b5b80821115610e365760008155600101610e3b565b600060208284031215610e6157600080fd5b5035919050565b60005b83811015610e83578181015183820152602001610e6b565b83811115610e92576000848401525b50505050565b60008151808452610eb0816020860160208601610e68565b601f01601f19169290920160200192915050565b60e060020a634e487b7102600052602160045260246000fd5b60088110610eed57610eed610ec4565b9052565b60208082528251828201819052600091906040908185019080840286018301878501865b83811015610fd857603f1989840301855281516101408151855288820151818a870152610f4482870182610e98565b9150508782015185820389870152610f5c8282610e98565b606084810151908801526080808501519088015260a0808501519088015260c0808501519193509150610f9182880182610edd565b505060e082810151908601526101008083015186830382880152610fb58382610e98565b610120948501519790940196909652505094870194925090860190600101610f15565b509098975050505050505050565b60058110610eed57610eed610ec4565b600081518084526020808501808196508284028101915082860160005b8581101561103d57828403895261102b848351610e98565b98850198935090840190600101611013565b5091979650505050505050565b600061018082518452602083015181602086015261106a82860182610e98565b915050604083015184820360408601526110848282610e98565b9150506060830151848203606086015261109e8282610e98565b9150506080830151608085015260a083015160a085015260c083015160c085015260e083015160e085015261010080840151858303828701526110e18382610e98565b9250505061012080840151858303828701526110fd8382610e98565b925050506101408084015161111482870182610fe6565b5050610160808401518583038287015261112e8382610ff6565b9695505050505050565b60208152600061114b602083018461104a565b9392505050565b60208152815160208201526000602083015160a0604084015261117860c0840182610e98565b90506040840151601f19808584030160608601526111968383610e98565b925060608601519150808584030160808601526111b38383610e98565b925060808601519150808584030160a0860152506111d18282610e98565b95945050505050565b60208082528251828201819052600091906040908185019080840286018301878501865b83811015610fd857603f19898403018552815160c08151855288820151818a87015261122c82870182610e98565b91505087820151858203898701526112448282610e98565b606084810151908801526080808501519088015260a0938401519390960192909252505093860193908601906001016111fe565b60e060020a634e487b7102600052604160045260246000fd5b604051610140810167ffffffffffffffff811182821017156112b5576112b5611278565b60405290565b604051610180810167ffffffffffffffff811182821017156112b5576112b5611278565b60405160c0810167ffffffffffffffff811182821017156112b5576112b5611278565b604051601f8201601f1916810167ffffffffffffffff8111828210171561132b5761132b611278565b604052919050565b600067ffffffffffffffff82111561134d5761134d611278565b50601f01601f191660200190565b600082601f83011261136c57600080fd5b813561137f61137a82611333565b611302565b81815284602083860101111561139457600080fd5b816020850160208301376000918101602001919091529392505050565b6000602082840312156113c357600080fd5b813567ffffffffffffffff8111156113da57600080fd5b6113e68482850161135b565b949350505050565b600060208083018184528085518083526040860191506040848202870101925083870160005b8281101561144257603f1988860301845261143085835161104a565b94509285019290850190600101611414565b5092979650505050505050565b600080600080600060a0868803121561146757600080fd5b85359450602086013567ffffffffffffffff8082111561148657600080fd5b61149289838a0161135b565b955060408801359150808211156114a857600080fd5b6114b489838a0161135b565b945060608801359150808211156114ca57600080fd5b6114d689838a0161135b565b935060808801359150808211156114ec57600080fd5b506114f98882890161135b565b9150509295509295909350565b600067ffffffffffffffff82111561152057611520611278565b5060209081020190565b600082601f83011261153b57600080fd5b815161154961137a82611333565b81815284602083860101111561155e57600080fd5b6113e6826020830160208701610e68565b80516008811061157e57600080fd5b919050565b6000602080838503121561159657600080fd5b825167ffffffffffffffff808211156115ae57600080fd5b818501915085601f8301126115c257600080fd5b81516115d061137a82611506565b818152908402830184019084810190888311156115ec57600080fd5b8585015b838110156116f85780518581111561160757600080fd5b8601610140818c03601f1901121561161e57600080fd5b611626611291565b88820151815260408201518781111561163e57600080fd5b61164c8d8b8386010161152a565b8a8301525060608201518781111561166357600080fd5b6116718d8b8386010161152a565b6040830152506080820151606082015260a0820151608082015260c082015160a08201526116a160e0830161156f565b60c08201526101008083015160e083015261012080840151898111156116c657600080fd5b6116d48f8d8388010161152a565b928401929092526101409390930151928201929092528452509186019186016115f0565b5098975050505050505050565b6000806040838503121561171857600080fd5b505080516020909101519092909150565b80516005811061157e57600080fd5b600082601f83011261174957600080fd5b8151602061175961137a83611506565b8281529181028401810191818101908684111561177557600080fd5b8286015b848110156117b557805167ffffffffffffffff8111156117995760008081fd5b6117a78986838b010161152a565b845250918301918301611779565b509695505050505050565b6000602082840312156117d257600080fd5b815167ffffffffffffffff808211156117ea57600080fd5b9083019061018082860312156117ff57600080fd5b6118076112bb565b8251815260208301518281111561181d57600080fd5b6118298782860161152a565b60208301525060408301518281111561184157600080fd5b61184d8782860161152a565b60408301525060608301518281111561186557600080fd5b6118718782860161152a565b6060830152506080830151608082015260a083015160a082015260c083015160c082015260e083015160e082015261010080840151838111156118b357600080fd5b6118bf8882870161152a565b82840152505061012080840151838111156118d957600080fd5b6118e58882870161152a565b8284015250506101406118f9818501611729565b90820152610160838101518381111561191157600080fd5b61191d88828701611738565b918301919091525095945050505050565b60028104600182168061194257607f821691505b60208210811415610d3e5760e060020a634e487b7102600052602260045260246000fd5b6000602080838503121561197957600080fd5b825167ffffffffffffffff8082111561199157600080fd5b818501915085601f8301126119a557600080fd5b81516119b361137a82611506565b818152908402830184019084810190888311156119cf57600080fd5b8585015b838110156116f8578051858111156119ea57600080fd5b860160c0818c03601f19011215611a015760008081fd5b611a096112df565b88820151815260408083015188811115611a235760008081fd5b611a318e8c8387010161152a565b8b8401525060608084015189811115611a4a5760008081fd5b611a588f8d8388010161152a565b83850152506080915081840151818401525060a0808401518284015260c08401518184015250508085525050868301925086810190506119d3565b60e060020a634e487b7102600052601160045260246000fd5b60008219821115611abf57611abf611a93565b500190565b60008251611ad6818460208701610e68565b9190910192915050565b8154600090819060028104600180831680611afc57607f831692505b6020808410821415611b1f5760e060020a634e487b710286526022600452602486fd5b818015611b335760018114611b4457611b71565b60ff19861689528489019650611b71565b60008a81526020902060005b86811015611b695781548b820152908501908301611b50565b505084890196505b509498975050505050505050565b60e060020a634e487b7102600052603260045260246000fd5b6000600019821415611bac57611bac611a93565b506001019056fea2646970667358221220c38078e880ad18aef0ea81ad7f90940d7360d8ae50439a4582c88ceec37ed98664736f6c63430008090033",
  "immutableReferences": {},
  "source": "//SPDX-License-Identifier: MIT\n\npragma solidity ^0.8;\n// pragma experimental ABIEncoderV2;\nimport \"./Project.sol\";\nimport \"./SubProject.sol\";\nimport \"./Task.sol\";\n\ncontract ProjectUserMapping {\n    uint256 private count;\n    Project _projectAccessor;\n    SubProject _subprojectAccessor;\n    Task _taskAccessor;\n\n    constructor(\n        address _projectAddress,\n        address _subProjectAddress,\n        address _taskAddress\n    ) {\n        count = 0;\n        _projectAccessor = Project(_projectAddress);\n        _subprojectAccessor = SubProject(_subProjectAddress);\n        _taskAccessor = Task(_taskAddress);\n    }\n\n    // constructor() {\n    //     count = 0;\n    // }\n    struct MappingInfo {\n        uint256 projectId;\n        string financialOfficerUsername;\n        string projectManagerUsernmae;\n        string budgetAndProcurementManagerUsername;\n        string externalAuditorUsername;\n    }\n\n    event ProjectMapped(\n        uint256 projectId,\n        string financialOfficerUsername,\n        string projectManagerUsernmae,\n        string budgetAndProcurementManagerUsername,\n        string externalAuditorUsername\n    );\n\n    mapping(uint256 => MappingInfo) private userProjectMappings;\n\n    /*\n    TODO only technical admin modifier\n    This functions used to add project and users mapping to the blocks.\n    */\n    function addMapping(\n        uint256 projectId,\n        string memory financialOfficerUsername,\n        string memory projectManagerUsernmae,\n        string memory budgetAndProcurementManagerUsername,\n        string memory externalAuditorUsername\n    ) public {\n        count += 1;\n        userProjectMappings[projectId] = MappingInfo(\n            projectId,\n            financialOfficerUsername,\n            projectManagerUsernmae,\n            budgetAndProcurementManagerUsername,\n            externalAuditorUsername\n        );\n    }\n\n    /*\n    As we cannot create dynamic array which we can push to, we should use this function to return the length of projects\n    the user is being participated\n    */\n    function getProjectCount(string memory _username)\n        internal\n        view\n        returns (uint256 length)\n    {\n        for (uint256 index = 0; index < count + 1; index++) {\n            if (\n                keccak256(\n                    abi.encodePacked(\n                        userProjectMappings[index].financialOfficerUsername\n                    )\n                ) ==\n                keccak256(abi.encodePacked(_username)) ||\n                keccak256(\n                    abi.encodePacked(\n                        userProjectMappings[index]\n                            .budgetAndProcurementManagerUsername\n                    )\n                ) ==\n                keccak256(abi.encodePacked(_username)) ||\n                keccak256(\n                    abi.encodePacked(\n                        userProjectMappings[index].projectManagerUsernmae\n                    )\n                ) ==\n                keccak256(abi.encodePacked(_username)) ||\n                keccak256(\n                    abi.encodePacked(\n                        userProjectMappings[index].externalAuditorUsername\n                    )\n                ) ==\n                keccak256(abi.encodePacked(_username))\n            ) {\n                length++;\n            }\n        }\n    }\n\n    /*\n    This function returns project using project id\n    */\n    function getProjectByIdFromMapping(uint256 _id)\n        public\n        view\n        returns (Project.ProjectInfo memory)\n    {\n        return _projectAccessor.getProjectById(_id);\n    }\n\n    /*\n    This function returns array of project ids so we can iterate over them and get projects\n    */\n    function getProjectsListByUsername(string memory _username)\n        public\n        view\n        returns (Project.ProjectInfo[] memory)\n    {\n        uint256 length = getProjectCount(_username);\n        Project.ProjectInfo[] memory projects = new Project.ProjectInfo[](\n            length\n        );\n        uint256 counter = 0;\n        for (uint256 index = 1; index < count + 1; index++) {\n            if (\n                keccak256(\n                    abi.encodePacked(\n                        userProjectMappings[index].financialOfficerUsername\n                    )\n                ) ==\n                keccak256(abi.encodePacked(_username)) ||\n                keccak256(\n                    abi.encodePacked(\n                        userProjectMappings[index]\n                            .budgetAndProcurementManagerUsername\n                    )\n                ) ==\n                keccak256(abi.encodePacked(_username)) ||\n                keccak256(\n                    abi.encodePacked(\n                        userProjectMappings[index].projectManagerUsernmae\n                    )\n                ) ==\n                keccak256(abi.encodePacked(_username)) ||\n                keccak256(\n                    abi.encodePacked(\n                        userProjectMappings[index].externalAuditorUsername\n                    )\n                ) ==\n                keccak256(abi.encodePacked(_username))\n            ) {\n                projects[counter] = getProjectByIdFromMapping(\n                    userProjectMappings[index].projectId\n                );\n                counter++;\n                // projects.push(userProjectMappings[index].projectId);\n            }\n        }\n        return projects;\n    }\n\n    function getSubProjectListByProjectId(uint256 _projectId)\n        public\n        view\n        returns (SubProject.SubProjectInfo[] memory)\n    {\n        return _subprojectAccessor.getSubProjectsListByProjectId(_projectId);\n    }\n\n    function getMappingById(uint256 _id)\n        public\n        view\n        returns (MappingInfo memory)\n    {\n        return userProjectMappings[_id];\n    }\n\n    /*\n    TODO - add only technical admin flag\n    */\n    function getAllSubProjects()\n        public\n        view\n        returns (SubProject.SubProjectInfo[] memory)\n    {\n        return _subprojectAccessor.getAllSubProjects();\n    }\n\n    function getTaskListByProjectId(uint256 _projectId)\n        public\n        view\n        returns (Task.TaskInfo[] memory)\n    {\n        return _taskAccessor.getTasksListFromProjectId(_projectId);\n    }\n\n    function getTaskListBySubProject(uint256 _projectId)\n        public\n        view\n        returns (Task.TaskInfo[] memory)\n    {\n        return _taskAccessor.getTasksListFromSubProjectId(_projectId);\n    }\n\n    function getTaskStatusByProjectId(uint256 _projectId)\n        public\n        view\n        returns (uint256 approved, uint256 unapproved)\n    {\n        return _taskAccessor.getTaskStatusByProjectId(_projectId);\n    }\n\n    function getTaskStatusBySubProjectId(uint256 _subProjectId)\n        public\n        view\n        returns (uint256 approved, uint256 unapproved)\n    {\n        return _taskAccessor.getTaskStatusBySubProjectId(_subProjectId);\n    }\n}\n",
  "sourcePath": "/home/jeremy/Desktop/fets_front_end/src/contracts/project_management/ProjectUserMapping.sol",
  "compiler": {
    "name": "solc",
    "version": "0.8.9+commit.e5eed63a.Emscripten.clang"
  },
  "schemaVersion": "3.4.3",
  "updatedAt": "2022-06-19T21:54:34.464Z",
  "networkType": "ethereum",
  "devdoc": {
    "kind": "dev",
    "methods": {},
    "version": 1
  },
  "userdoc": {
    "kind": "user",
    "methods": {},
    "version": 1
  }
}