{
  "contractName": "Project",
  "abi": [
    {
      "inputs": [],
      "stateMutability": "nonpayable",
      "type": "constructor"
    },
    {
      "anonymous": false,
      "inputs": [
        {
          "indexed": true,
          "internalType": "uint256",
          "name": "id",
          "type": "uint256"
        },
        {
          "indexed": true,
          "internalType": "string",
          "name": "name",
          "type": "string"
        },
        {
          "indexed": false,
          "internalType": "string",
          "name": "description",
          "type": "string"
        },
        {
          "indexed": false,
          "internalType": "string",
          "name": "location",
          "type": "string"
        },
        {
          "indexed": false,
          "internalType": "uint256",
          "name": "estimatedBudget",
          "type": "uint256"
        },
        {
          "indexed": false,
          "internalType": "uint256",
          "name": "estimatedDuration",
          "type": "uint256"
        },
        {
          "indexed": false,
          "internalType": "uint256",
          "name": "fundedMoney",
          "type": "uint256"
        },
        {
          "indexed": false,
          "internalType": "uint256",
          "name": "createdAt",
          "type": "uint256"
        },
        {
          "indexed": true,
          "internalType": "string",
          "name": "companyId",
          "type": "string"
        },
        {
          "indexed": false,
          "internalType": "string",
          "name": "accountNumber",
          "type": "string"
        },
        {
          "indexed": false,
          "internalType": "enum Project.ProjectStatus",
          "name": "status",
          "type": "uint8"
        }
      ],
      "name": "AddedProject",
      "type": "event"
    },
    {
      "anonymous": false,
      "inputs": [
        {
          "indexed": true,
          "internalType": "uint256",
          "name": "id",
          "type": "uint256"
        },
        {
          "indexed": true,
          "internalType": "string",
          "name": "name",
          "type": "string"
        },
        {
          "indexed": false,
          "internalType": "string",
          "name": "description",
          "type": "string"
        },
        {
          "indexed": false,
          "internalType": "string",
          "name": "location",
          "type": "string"
        },
        {
          "indexed": false,
          "internalType": "uint256",
          "name": "estimatedBudget",
          "type": "uint256"
        },
        {
          "indexed": false,
          "internalType": "uint256",
          "name": "estimatedDuration",
          "type": "uint256"
        },
        {
          "indexed": false,
          "internalType": "uint256",
          "name": "fundedMoney",
          "type": "uint256"
        },
        {
          "indexed": false,
          "internalType": "uint256",
          "name": "createdAt",
          "type": "uint256"
        },
        {
          "indexed": true,
          "internalType": "string",
          "name": "companyId",
          "type": "string"
        },
        {
          "indexed": false,
          "internalType": "string",
          "name": "accountNumber",
          "type": "string"
        },
        {
          "indexed": false,
          "internalType": "enum Project.ProjectStatus",
          "name": "status",
          "type": "uint8"
        }
      ],
      "name": "DeletedProject",
      "type": "event"
    },
    {
      "inputs": [
        {
          "internalType": "string",
          "name": "_username",
          "type": "string"
        }
      ],
      "name": "getDonatedProjectsByUsername",
      "outputs": [
        {
          "components": [
            {
              "internalType": "uint256",
              "name": "id",
              "type": "uint256"
            },
            {
              "internalType": "string",
              "name": "name",
              "type": "string"
            },
            {
              "internalType": "string",
              "name": "description",
              "type": "string"
            },
            {
              "internalType": "string",
              "name": "location",
              "type": "string"
            },
            {
              "internalType": "uint256",
              "name": "estimatedBudget",
              "type": "uint256"
            },
            {
              "internalType": "uint256",
              "name": "fundedMoney",
              "type": "uint256"
            },
            {
              "internalType": "uint256",
              "name": "estimatedDuration",
              "type": "uint256"
            },
            {
              "internalType": "uint256",
              "name": "createdAt",
              "type": "uint256"
            },
            {
              "internalType": "string",
              "name": "companyId",
              "type": "string"
            },
            {
              "internalType": "string",
              "name": "accountNumber",
              "type": "string"
            },
            {
              "internalType": "enum Project.ProjectStatus",
              "name": "status",
              "type": "uint8"
            },
            {
              "internalType": "string[]",
              "name": "donors",
              "type": "string[]"
            }
          ],
          "internalType": "struct Project.ProjectInfo[]",
          "name": "",
          "type": "tuple[]"
        }
      ],
      "stateMutability": "view",
      "type": "function",
      "constant": true
    },
    {
      "inputs": [
        {
          "internalType": "string",
          "name": "name",
          "type": "string"
        },
        {
          "internalType": "string",
          "name": "description",
          "type": "string"
        },
        {
          "internalType": "string",
          "name": "location",
          "type": "string"
        },
        {
          "internalType": "uint256",
          "name": "estimatedBudget",
          "type": "uint256"
        },
        {
          "internalType": "uint256",
          "name": "estimatedDuration",
          "type": "uint256"
        },
        {
          "internalType": "string",
          "name": "companyId",
          "type": "string"
        },
        {
          "internalType": "string",
          "name": "accountNumber",
          "type": "string"
        }
      ],
      "name": "addProject",
      "outputs": [],
      "stateMutability": "nonpayable",
      "type": "function"
    },
    {
      "inputs": [
        {
          "internalType": "string",
          "name": "_donorUsername",
          "type": "string"
        }
      ],
      "name": "getPatientByDonorName",
      "outputs": [],
      "stateMutability": "nonpayable",
      "type": "function"
    },
    {
      "inputs": [
        {
          "internalType": "uint256",
          "name": "_projectId",
          "type": "uint256"
        },
        {
          "internalType": "uint256",
          "name": "_amount",
          "type": "uint256"
        },
        {
          "internalType": "string",
          "name": "_donorUsername",
          "type": "string"
        }
      ],
      "name": "addPaymentInfo",
      "outputs": [],
      "stateMutability": "nonpayable",
      "type": "function"
    },
    {
      "inputs": [
        {
          "internalType": "uint256",
          "name": "_projectId",
          "type": "uint256"
        },
        {
          "internalType": "uint256",
          "name": "_amount",
          "type": "uint256"
        }
      ],
      "name": "refundMoney",
      "outputs": [],
      "stateMutability": "nonpayable",
      "type": "function"
    },
    {
      "inputs": [
        {
          "internalType": "uint256",
          "name": "_id",
          "type": "uint256"
        }
      ],
      "name": "deleteProject",
      "outputs": [],
      "stateMutability": "nonpayable",
      "type": "function"
    },
    {
      "inputs": [
        {
          "internalType": "uint256",
          "name": "_id",
          "type": "uint256"
        }
      ],
      "name": "getProjectById",
      "outputs": [
        {
          "components": [
            {
              "internalType": "uint256",
              "name": "id",
              "type": "uint256"
            },
            {
              "internalType": "string",
              "name": "name",
              "type": "string"
            },
            {
              "internalType": "string",
              "name": "description",
              "type": "string"
            },
            {
              "internalType": "string",
              "name": "location",
              "type": "string"
            },
            {
              "internalType": "uint256",
              "name": "estimatedBudget",
              "type": "uint256"
            },
            {
              "internalType": "uint256",
              "name": "fundedMoney",
              "type": "uint256"
            },
            {
              "internalType": "uint256",
              "name": "estimatedDuration",
              "type": "uint256"
            },
            {
              "internalType": "uint256",
              "name": "createdAt",
              "type": "uint256"
            },
            {
              "internalType": "string",
              "name": "companyId",
              "type": "string"
            },
            {
              "internalType": "string",
              "name": "accountNumber",
              "type": "string"
            },
            {
              "internalType": "enum Project.ProjectStatus",
              "name": "status",
              "type": "uint8"
            },
            {
              "internalType": "string[]",
              "name": "donors",
              "type": "string[]"
            }
          ],
          "internalType": "struct Project.ProjectInfo",
          "name": "",
          "type": "tuple"
        }
      ],
      "stateMutability": "view",
      "type": "function",
      "constant": true
    },
    {
      "inputs": [],
      "name": "getAllProjects",
      "outputs": [
        {
          "components": [
            {
              "internalType": "uint256",
              "name": "id",
              "type": "uint256"
            },
            {
              "internalType": "string",
              "name": "name",
              "type": "string"
            },
            {
              "internalType": "string",
              "name": "description",
              "type": "string"
            },
            {
              "internalType": "string",
              "name": "location",
              "type": "string"
            },
            {
              "internalType": "uint256",
              "name": "estimatedBudget",
              "type": "uint256"
            },
            {
              "internalType": "uint256",
              "name": "fundedMoney",
              "type": "uint256"
            },
            {
              "internalType": "uint256",
              "name": "estimatedDuration",
              "type": "uint256"
            },
            {
              "internalType": "uint256",
              "name": "createdAt",
              "type": "uint256"
            },
            {
              "internalType": "string",
              "name": "companyId",
              "type": "string"
            },
            {
              "internalType": "string",
              "name": "accountNumber",
              "type": "string"
            },
            {
              "internalType": "enum Project.ProjectStatus",
              "name": "status",
              "type": "uint8"
            },
            {
              "internalType": "string[]",
              "name": "donors",
              "type": "string[]"
            }
          ],
          "internalType": "struct Project.ProjectInfo[]",
          "name": "",
          "type": "tuple[]"
        }
      ],
      "stateMutability": "view",
      "type": "function",
      "constant": true
    }
  ],
  "bytecode": "0x608060405234801561001057600080fd5b5060008055611bb3806100246000396000f3fe608060405234801561001057600080fd5b50600436106100a5576000357c0100000000000000000000000000000000000000000000000000000000900480637fdd45dc116100785780637fdd45dc1461010c57806380d038291461011f578063bee5cdca14610127578063e6279b4f1461014757600080fd5b806320e8be43146100aa5780634cd0cb28146100d357806354138541146100e85780636fe1ac91146100fb575b600080fd5b6100bd6100b8366004611610565b61015a565b6040516100ca919061182c565b60405180910390f35b6100e66100e136600461188d565b61069e565b005b6100e66100f63660046118a6565b610736565b6100e6610109366004611610565b50565b6100e661011a3660046118f6565b6107cb565b6100bd6109e3565b61013a61013536600461188d565b610f22565b6040516100ca91906119db565b6100e66101553660046119f5565b611367565b6060600060018360405161016e9190611a17565b90815260200160405180910390208054905090506000805467ffffffffffffffff81111561019e5761019e61156a565b6040519080825280602002602001820160405280156101d757816020015b6101c4611391565b8152602001906001900390816101bc5790505b5090506000805b8381101561069457600260006001886040516101fa9190611a17565b9081526020016040518091039020838154811061021957610219611a33565b90600052602060002001548152602001908152602001600020604051806101800160405290816000820154815260200160018201805461025890611a4c565b80601f016020809104026020016040519081016040528092919081815260200182805461028490611a4c565b80156102d15780601f106102a6576101008083540402835291602001916102d1565b820191906000526020600020905b8154815290600101906020018083116102b457829003601f168201915b505050505081526020016002820180546102ea90611a4c565b80601f016020809104026020016040519081016040528092919081815260200182805461031690611a4c565b80156103635780601f1061033857610100808354040283529160200191610363565b820191906000526020600020905b81548152906001019060200180831161034657829003601f168201915b5050505050815260200160038201805461037c90611a4c565b80601f01602080910402602001604051908101604052809291908181526020018280546103a890611a4c565b80156103f55780601f106103ca576101008083540402835291602001916103f5565b820191906000526020600020905b8154815290600101906020018083116103d857829003601f168201915b505050505081526020016004820154815260200160058201548152602001600682015481526020016007820154815260200160088201805461043690611a4c565b80601f016020809104026020016040519081016040528092919081815260200182805461046290611a4c565b80156104af5780601f10610484576101008083540402835291602001916104af565b820191906000526020600020905b81548152906001019060200180831161049257829003601f168201915b505050505081526020016009820180546104c890611a4c565b80601f01602080910402602001604051908101604052809291908181526020018280546104f490611a4c565b80156105415780601f1061051657610100808354040283529160200191610541565b820191906000526020600020905b81548152906001019060200180831161052457829003601f168201915b5050509183525050600a82015460209091019060ff166004811115610568576105686116a9565b6004811115610579576105796116a9565b8152602001600b8201805480602002602001604051908101604052809291908181526020016000905b8282101561064e5783829060005260206000200180546105c190611a4c565b80601f01602080910402602001604051908101604052809291908181526020018280546105ed90611a4c565b801561063a5780601f1061060f5761010080835404028352916020019161063a565b820191906000526020600020905b81548152906001019060200180831161061d57829003601f168201915b5050505050815260200190600101906105a2565b505050508152505083838151811061066857610668611a33565b6020026020010181905250818061067e90611aa3565b925050808061068c90611aa3565b9150506101de565b5090949350505050565b6000818152600260205260408120818155906106bd6001830182611403565b6106cb600283016000611403565b6106d9600383016000611403565b60048201600090556005820160009055600682016000905560078201600090556008820160006107099190611403565b610717600983016000611403565b600a8201805460ff19169055610731600b8301600061143d565b505050565b60008381526002602052604081206005018054849290610757908490611abe565b909155505060008381526002602090815260408220600b01805460018101825590835291819020835161079193919091019184019061145b565b506001816040516107a29190611a17565b908152604051602091819003820190208054600181018255600091825291902001929092555050565b6000805490806107da83611aa3565b91905055506060604051806101800160405280600054815260200189815260200188815260200187815260200186815260200160008152602001858152602001426103e86108289190611ad6565b8152602081018590526040810184905260600160008152602090810183905260008054815260028252604090208251815582820151805191926108739260018501929091019061145b565b506040820151805161088f91600284019160209091019061145b565b50606082015180516108ab91600384019160209091019061145b565b506080820151600482015560a0820151600582015560c0820151600682015560e0820151600782015561010082015180516108f091600884019160209091019061145b565b50610120820151805161090d91600984019160209091019061145b565b50610140820151600a8201805460ff19166001836004811115610932576109326116a9565b0217905550610160820151805161095391600b8401916020909101906114df565b505060405161096491508490611a17565b60405180910390208860405161097a9190611a17565b60405180910390206000547f0e9749c08d7a6ba465fd5dcc39278788a16455c3d467d09018c1695c5b39ca9a8a8a8a8a6000426103e86109ba9190611ad6565b8b60006040516109d1989796959493929190611af5565b60405180910390a45050505050505050565b60606000805b6000546109f7906001611abe565b811015610a325760008181526002602052604090205415610a205781610a1c81611aa3565b9250505b80610a2a81611aa3565b9150506109e9565b5060008167ffffffffffffffff811115610a4e57610a4e61156a565b604051908082528060200260200182016040528015610a8757816020015b610a74611391565b815260200190600190039081610a6c5790505b509050600060015b600054610a9d906001611abe565b811015610f1957600260008281526020019081526020016000206040518061018001604052908160008201548152602001600182018054610add90611a4c565b80601f0160208091040260200160405190810160405280929190818152602001828054610b0990611a4c565b8015610b565780601f10610b2b57610100808354040283529160200191610b56565b820191906000526020600020905b815481529060010190602001808311610b3957829003601f168201915b50505050508152602001600282018054610b6f90611a4c565b80601f0160208091040260200160405190810160405280929190818152602001828054610b9b90611a4c565b8015610be85780601f10610bbd57610100808354040283529160200191610be8565b820191906000526020600020905b815481529060010190602001808311610bcb57829003601f168201915b50505050508152602001600382018054610c0190611a4c565b80601f0160208091040260200160405190810160405280929190818152602001828054610c2d90611a4c565b8015610c7a5780601f10610c4f57610100808354040283529160200191610c7a565b820191906000526020600020905b815481529060010190602001808311610c5d57829003601f168201915b5050505050815260200160048201548152602001600582015481526020016006820154815260200160078201548152602001600882018054610cbb90611a4c565b80601f0160208091040260200160405190810160405280929190818152602001828054610ce790611a4c565b8015610d345780601f10610d0957610100808354040283529160200191610d34565b820191906000526020600020905b815481529060010190602001808311610d1757829003601f168201915b50505050508152602001600982018054610d4d90611a4c565b80601f0160208091040260200160405190810160405280929190818152602001828054610d7990611a4c565b8015610dc65780601f10610d9b57610100808354040283529160200191610dc6565b820191906000526020600020905b815481529060010190602001808311610da957829003601f168201915b5050509183525050600a82015460209091019060ff166004811115610ded57610ded6116a9565b6004811115610dfe57610dfe6116a9565b8152602001600b8201805480602002602001604051908101604052809291908181526020016000905b82821015610ed3578382906000526020600020018054610e4690611a4c565b80601f0160208091040260200160405190810160405280929190818152602001828054610e7290611a4c565b8015610ebf5780601f10610e9457610100808354040283529160200191610ebf565b820191906000526020600020905b815481529060010190602001808311610ea257829003601f168201915b505050505081526020019060010190610e27565b5050505081525050838381518110610eed57610eed611a33565b60200260200101819052508180610f0390611aa3565b9250508080610f1190611aa3565b915050610a8f565b50909392505050565b610f2a611391565b600260008381526020019081526020016000206040518061018001604052908160008201548152602001600182018054610f6390611a4c565b80601f0160208091040260200160405190810160405280929190818152602001828054610f8f90611a4c565b8015610fdc5780601f10610fb157610100808354040283529160200191610fdc565b820191906000526020600020905b815481529060010190602001808311610fbf57829003601f168201915b50505050508152602001600282018054610ff590611a4c565b80601f016020809104026020016040519081016040528092919081815260200182805461102190611a4c565b801561106e5780601f106110435761010080835404028352916020019161106e565b820191906000526020600020905b81548152906001019060200180831161105157829003601f168201915b5050505050815260200160038201805461108790611a4c565b80601f01602080910402602001604051908101604052809291908181526020018280546110b390611a4c565b80156111005780601f106110d557610100808354040283529160200191611100565b820191906000526020600020905b8154815290600101906020018083116110e357829003601f168201915b505050505081526020016004820154815260200160058201548152602001600682015481526020016007820154815260200160088201805461114190611a4c565b80601f016020809104026020016040519081016040528092919081815260200182805461116d90611a4c565b80156111ba5780601f1061118f576101008083540402835291602001916111ba565b820191906000526020600020905b81548152906001019060200180831161119d57829003601f168201915b505050505081526020016009820180546111d390611a4c565b80601f01602080910402602001604051908101604052809291908181526020018280546111ff90611a4c565b801561124c5780601f106112215761010080835404028352916020019161124c565b820191906000526020600020905b81548152906001019060200180831161122f57829003601f168201915b5050509183525050600a82015460209091019060ff166004811115611273576112736116a9565b6004811115611284576112846116a9565b8152602001600b8201805480602002602001604051908101604052809291908181526020016000905b828210156113595783829060005260206000200180546112cc90611a4c565b80601f01602080910402602001604051908101604052809291908181526020018280546112f890611a4c565b80156113455780601f1061131a57610100808354040283529160200191611345565b820191906000526020600020905b81548152906001019060200180831161132857829003601f168201915b5050505050815260200190600101906112ad565b505050915250909392505050565b60008281526002602052604081206005018054839290611388908490611b66565b90915550505050565b60405180610180016040528060008152602001606081526020016060815260200160608152602001600081526020016000815260200160008152602001600081526020016060815260200160608152602001600060048111156113f6576113f66116a9565b8152602001606081525090565b50805461140f90611a4c565b6000825580601f1061141f575050565b601f0160209004906000526020600020908101906101099190611538565b5080546000825590600052602060002090810190610109919061154d565b82805461146790611a4c565b90600052602060002090601f01602090048101928261148957600085556114cf565b82601f106114a257805160ff19168380011785556114cf565b828001600101855582156114cf579182015b828111156114cf5782518255916020019190600101906114b4565b506114db929150611538565b5090565b82805482825590600052602060002090810192821561152c579160200282015b8281111561152c578251805161151c91849160209091019061145b565b50916020019190600101906114ff565b506114db92915061154d565b5b808211156114db5760008155600101611539565b808211156114db5760006115618282611403565b5060010161154d565b60e060020a634e487b7102600052604160045260246000fd5b600082601f83011261159457600080fd5b813567ffffffffffffffff808211156115af576115af61156a565b604051601f8301601f19908116603f011681019082821181831017156115d7576115d761156a565b816040528381528660208588010111156115f057600080fd5b836020870160208301376000602085830101528094505050505092915050565b60006020828403121561162257600080fd5b813567ffffffffffffffff81111561163957600080fd5b61164584828501611583565b949350505050565b60005b83811015611668578181015183820152602001611650565b83811115611677576000848401525b50505050565b6000815180845261169581602086016020860161164d565b601f01601f19169290920160200192915050565b60e060020a634e487b7102600052602160045260246000fd5b600581106116e35760e060020a634e487b7102600052602160045260246000fd5b9052565b6000828251808552602080860195508081830284010181860160005b8481101561173157601f1986840301895261171f83835161167d565b98840198925090830190600101611703565b5090979650505050505050565b600061018082518452602083015181602086015261175e8286018261167d565b91505060408301518482036040860152611778828261167d565b91505060608301518482036060860152611792828261167d565b9150506080830151608085015260a083015160a085015260c083015160c085015260e083015160e085015261010080840151858303828701526117d5838261167d565b9250505061012080840151858303828701526117f1838261167d565b9250505061014080840151611808828701826116c2565b5050610160808401518583038287015261182283826116e7565b9695505050505050565b600060208083018184528085518083526040860191506040848202870101925083870160005b8281101561188057603f1988860301845261186e85835161173e565b94509285019290850190600101611852565b5092979650505050505050565b60006020828403121561189f57600080fd5b5035919050565b6000806000606084860312156118bb57600080fd5b8335925060208401359150604084013567ffffffffffffffff8111156118e057600080fd5b6118ec86828701611583565b9150509250925092565b600080600080600080600060e0888a03121561191157600080fd5b873567ffffffffffffffff8082111561192957600080fd5b6119358b838c01611583565b985060208a013591508082111561194b57600080fd5b6119578b838c01611583565b975060408a013591508082111561196d57600080fd5b6119798b838c01611583565b965060608a0135955060808a0135945060a08a013591508082111561199d57600080fd5b6119a98b838c01611583565b935060c08a01359150808211156119bf57600080fd5b506119cc8a828b01611583565b91505092959891949750929550565b6020815260006119ee602083018461173e565b9392505050565b60008060408385031215611a0857600080fd5b50508035926020909101359150565b60008251611a2981846020870161164d565b9190910192915050565b60e060020a634e487b7102600052603260045260246000fd5b600281046001821680611a6057607f821691505b60208210811415611a845760e060020a634e487b7102600052602260045260246000fd5b50919050565b60e060020a634e487b7102600052601160045260246000fd5b6000600019821415611ab757611ab7611a8a565b5060010190565b60008219821115611ad157611ad1611a8a565b500190565b6000816000190483118215151615611af057611af0611a8a565b500290565b6000610100808352611b098184018c61167d565b90508281036020840152611b1d818b61167d565b90508860408401528760608401528660808401528560a084015282810360c0840152611b49818661167d565b915050611b5960e08301846116c2565b9998505050505050505050565b600082821015611b7857611b78611a8a565b50039056fea26469706673582212209155f3168393df09571a2bcb1550e43da1c4f911e7324dfc5ed6fb9b1da5e5ed64736f6c63430008090033",
  "immutableReferences": {},
  "source": "// SPDX-License-Identifier: MIT\n\npragma solidity ^0.8;\n\ncontract Project {\n    uint256 private count;\n    mapping(string => uint256[]) private donorProjectMappings;\n\n    constructor() {\n        count = 0;\n    }\n\n    enum ProjectStatus {\n        PENDING,\n        STARTED,\n        COMPLETED,\n        CANCELLED,\n        PAUSED\n    }\n\n    struct ProjectInfo {\n        uint256 id;\n        string name;\n        string description;\n        string location;\n        uint256 estimatedBudget;\n        uint256 fundedMoney;\n        uint256 estimatedDuration;\n        uint256 createdAt;\n        string companyId;\n        string accountNumber;\n        ProjectStatus status;\n        string[] donors;\n    }\n\n    event AddedProject(\n        uint256 indexed id,\n        string indexed name,\n        string description,\n        string location,\n        uint256 estimatedBudget,\n        uint256 estimatedDuration,\n        uint256 fundedMoney,\n        uint256 createdAt,\n        string indexed companyId,\n        string accountNumber,\n        ProjectStatus status\n    );\n\n    event DeletedProject(\n        uint256 indexed id,\n        string indexed name,\n        string description,\n        string location,\n        uint256 estimatedBudget,\n        uint256 estimatedDuration,\n        uint256 fundedMoney,\n        uint256 createdAt,\n        string indexed companyId,\n        string accountNumber,\n        ProjectStatus status\n    );\n\n    mapping(uint256 => ProjectInfo) private projects;\n\n    function getDonatedProjectsByUsername(string memory _username)\n        public\n        view\n        returns (ProjectInfo[] memory)\n    {\n        uint256 length = donorProjectMappings[_username].length;\n        ProjectInfo[] memory projectInfo = new ProjectInfo[](count);\n\n        uint256 c = 0;\n        for (uint256 index = 0; index < length; index++) {\n            projectInfo[c] = projects[donorProjectMappings[_username][index]];\n            c++;\n        }\n        return projectInfo;\n    }\n\n    // add onlyTechnicalAdmin modifier to it\n    function addProject(\n        string memory name,\n        string memory description,\n        string memory location,\n        uint256 estimatedBudget,\n        uint256 estimatedDuration,\n        string memory companyId,\n        string memory accountNumber\n    ) public {\n        count++;\n\n        string[] memory emptyList;\n\n        projects[count] = ProjectInfo(\n            count,\n            name,\n            description,\n            location,\n            estimatedBudget,\n            0,\n            estimatedDuration,\n            block.timestamp * 1000,\n            companyId,\n            accountNumber,\n            ProjectStatus.PENDING,\n            emptyList\n        );\n        emit AddedProject(\n            count,\n            name,\n            description,\n            location,\n            estimatedBudget,\n            estimatedDuration,\n            0,\n            block.timestamp * 1000,\n            companyId,\n            accountNumber,\n            ProjectStatus.PENDING\n        );\n    }\n\n    function getPatientByDonorName(string memory _donorUsername) public {}\n\n    function addPaymentInfo(\n        uint256 _projectId,\n        uint256 _amount,\n        string memory _donorUsername\n    ) public {\n        projects[_projectId].fundedMoney += _amount;\n        projects[_projectId].donors.push(_donorUsername);\n        donorProjectMappings[_donorUsername].push(_projectId);\n    }\n\n    function refundMoney(\n        uint256 _projectId,\n        uint256 _amount\n    ) public {\n        projects[_projectId].fundedMoney -= _amount;\n        // projects[_projectId].donors.push(_donorUsername);\n        // donorProjectMappings[_donorUsername].push(_projectId);\n    }\n\n    function deleteProject(uint256 _id) public {\n        delete projects[_id];\n    }\n\n    //TODO - when a user asks for projects return subproject and tasks tied\n    function getProjectById(uint256 _id)\n        public\n        view\n        returns (ProjectInfo memory)\n    {\n        return projects[_id];\n    }\n\n    /*\n    This function returns array of subprojects so we can iterate over them\n    */\n    function getAllProjects() public view returns (ProjectInfo[] memory) {\n        uint256 length;\n        for (uint256 index = 0; index < count + 1; index++) {\n            if (projects[index].id != 0) {\n                length++;\n            }\n        }\n        ProjectInfo[] memory sp = new ProjectInfo[](length);\n        uint256 counter = 0;\n        for (uint256 index = 1; index < count + 1; index++) {\n            sp[counter] = projects[index];\n            counter++;\n        }\n        return sp;\n    }\n}\n",
  "sourcePath": "/home/jeremy/Desktop/fets_front_end/src/contracts/project_management/Project.sol",
  "compiler": {
    "name": "solc",
    "version": "0.8.9+commit.e5eed63a.Emscripten.clang"
  },
  "schemaVersion": "3.4.3",
  "updatedAt": "2022-06-19T21:54:34.403Z",
  "networkType": "ethereum",
  "devdoc": {
    "kind": "dev",
    "methods": {},
    "version": 1
  },
  "userdoc": {
    "kind": "user",
    "methods": {},
    "version": 1
  }
}