{
  "contractName": "Project",
  "abi": [
    {
      "inputs": [],
      "stateMutability": "nonpayable",
      "type": "constructor"
    },
    {
      "anonymous": false,
      "inputs": [
        {
          "indexed": true,
          "internalType": "uint256",
          "name": "id",
          "type": "uint256"
        },
        {
          "indexed": true,
          "internalType": "string",
          "name": "name",
          "type": "string"
        },
        {
          "indexed": false,
          "internalType": "string",
          "name": "description",
          "type": "string"
        },
        {
          "indexed": false,
          "internalType": "string",
          "name": "location",
          "type": "string"
        },
        {
          "indexed": false,
          "internalType": "uint256",
          "name": "estimatedBudget",
          "type": "uint256"
        },
        {
          "indexed": false,
          "internalType": "uint256",
          "name": "estimatedDuration",
          "type": "uint256"
        },
        {
          "indexed": false,
          "internalType": "uint256",
          "name": "fundedMoney",
          "type": "uint256"
        },
        {
          "indexed": false,
          "internalType": "uint256",
          "name": "createdAt",
          "type": "uint256"
        },
        {
          "indexed": true,
          "internalType": "string",
          "name": "companyId",
          "type": "string"
        },
        {
          "indexed": false,
          "internalType": "string",
          "name": "accountNumber",
          "type": "string"
        },
        {
          "indexed": false,
          "internalType": "enum Project.ProjectStatus",
          "name": "status",
          "type": "uint8"
        }
      ],
      "name": "AddedProject",
      "type": "event"
    },
    {
      "anonymous": false,
      "inputs": [
        {
          "indexed": true,
          "internalType": "uint256",
          "name": "id",
          "type": "uint256"
        },
        {
          "indexed": true,
          "internalType": "string",
          "name": "name",
          "type": "string"
        },
        {
          "indexed": false,
          "internalType": "string",
          "name": "description",
          "type": "string"
        },
        {
          "indexed": false,
          "internalType": "string",
          "name": "location",
          "type": "string"
        },
        {
          "indexed": false,
          "internalType": "uint256",
          "name": "estimatedBudget",
          "type": "uint256"
        },
        {
          "indexed": false,
          "internalType": "uint256",
          "name": "estimatedDuration",
          "type": "uint256"
        },
        {
          "indexed": false,
          "internalType": "uint256",
          "name": "fundedMoney",
          "type": "uint256"
        },
        {
          "indexed": false,
          "internalType": "uint256",
          "name": "createdAt",
          "type": "uint256"
        },
        {
          "indexed": true,
          "internalType": "string",
          "name": "companyId",
          "type": "string"
        },
        {
          "indexed": false,
          "internalType": "string",
          "name": "accountNumber",
          "type": "string"
        },
        {
          "indexed": false,
          "internalType": "enum Project.ProjectStatus",
          "name": "status",
          "type": "uint8"
        }
      ],
      "name": "DeletedProject",
      "type": "event"
    },
    {
      "inputs": [],
      "name": "getProjectsCount",
      "outputs": [
        {
          "internalType": "uint256",
          "name": "",
          "type": "uint256"
        }
      ],
      "stateMutability": "view",
      "type": "function",
      "constant": true
    },
    {
      "inputs": [
        {
          "internalType": "string",
          "name": "_username",
          "type": "string"
        }
      ],
      "name": "getDonatedProjectsByUsername",
      "outputs": [
        {
          "components": [
            {
              "internalType": "uint256",
              "name": "id",
              "type": "uint256"
            },
            {
              "internalType": "string",
              "name": "name",
              "type": "string"
            },
            {
              "internalType": "string",
              "name": "description",
              "type": "string"
            },
            {
              "internalType": "string",
              "name": "location",
              "type": "string"
            },
            {
              "internalType": "uint256",
              "name": "estimatedBudget",
              "type": "uint256"
            },
            {
              "internalType": "uint256",
              "name": "fundedMoney",
              "type": "uint256"
            },
            {
              "internalType": "uint256",
              "name": "estimatedDuration",
              "type": "uint256"
            },
            {
              "internalType": "uint256",
              "name": "createdAt",
              "type": "uint256"
            },
            {
              "internalType": "string",
              "name": "companyId",
              "type": "string"
            },
            {
              "internalType": "string",
              "name": "accountNumber",
              "type": "string"
            },
            {
              "internalType": "enum Project.ProjectStatus",
              "name": "status",
              "type": "uint8"
            },
            {
              "internalType": "string[]",
              "name": "donors",
              "type": "string[]"
            }
          ],
          "internalType": "struct Project.ProjectInfo[]",
          "name": "",
          "type": "tuple[]"
        }
      ],
      "stateMutability": "view",
      "type": "function",
      "constant": true
    },
    {
      "inputs": [],
      "name": "getProjectStatus",
      "outputs": [
        {
          "internalType": "uint256",
          "name": "donated",
          "type": "uint256"
        },
        {
          "internalType": "uint256",
          "name": "needed",
          "type": "uint256"
        }
      ],
      "stateMutability": "view",
      "type": "function",
      "constant": true
    },
    {
      "inputs": [
        {
          "internalType": "string",
          "name": "name",
          "type": "string"
        },
        {
          "internalType": "string",
          "name": "description",
          "type": "string"
        },
        {
          "internalType": "string",
          "name": "location",
          "type": "string"
        },
        {
          "internalType": "uint256",
          "name": "estimatedBudget",
          "type": "uint256"
        },
        {
          "internalType": "uint256",
          "name": "estimatedDuration",
          "type": "uint256"
        },
        {
          "internalType": "string",
          "name": "companyId",
          "type": "string"
        },
        {
          "internalType": "string",
          "name": "accountNumber",
          "type": "string"
        }
      ],
      "name": "addProject",
      "outputs": [],
      "stateMutability": "nonpayable",
      "type": "function"
    },
    {
      "inputs": [
        {
          "internalType": "string",
          "name": "_donorUsername",
          "type": "string"
        }
      ],
      "name": "getPatientByDonorName",
      "outputs": [],
      "stateMutability": "nonpayable",
      "type": "function"
    },
    {
      "inputs": [
        {
          "internalType": "uint256",
          "name": "_projectId",
          "type": "uint256"
        },
        {
          "internalType": "uint256",
          "name": "_amount",
          "type": "uint256"
        },
        {
          "internalType": "string",
          "name": "_donorUsername",
          "type": "string"
        }
      ],
      "name": "addPaymentInfo",
      "outputs": [],
      "stateMutability": "nonpayable",
      "type": "function"
    },
    {
      "inputs": [
        {
          "internalType": "uint256",
          "name": "_projectId",
          "type": "uint256"
        },
        {
          "internalType": "uint256",
          "name": "_amount",
          "type": "uint256"
        }
      ],
      "name": "refundMoney",
      "outputs": [],
      "stateMutability": "nonpayable",
      "type": "function"
    },
    {
      "inputs": [
        {
          "internalType": "uint256",
          "name": "_id",
          "type": "uint256"
        }
      ],
      "name": "deleteProject",
      "outputs": [],
      "stateMutability": "nonpayable",
      "type": "function"
    },
    {
      "inputs": [
        {
          "internalType": "uint256",
          "name": "_id",
          "type": "uint256"
        }
      ],
      "name": "getProjectById",
      "outputs": [
        {
          "components": [
            {
              "internalType": "uint256",
              "name": "id",
              "type": "uint256"
            },
            {
              "internalType": "string",
              "name": "name",
              "type": "string"
            },
            {
              "internalType": "string",
              "name": "description",
              "type": "string"
            },
            {
              "internalType": "string",
              "name": "location",
              "type": "string"
            },
            {
              "internalType": "uint256",
              "name": "estimatedBudget",
              "type": "uint256"
            },
            {
              "internalType": "uint256",
              "name": "fundedMoney",
              "type": "uint256"
            },
            {
              "internalType": "uint256",
              "name": "estimatedDuration",
              "type": "uint256"
            },
            {
              "internalType": "uint256",
              "name": "createdAt",
              "type": "uint256"
            },
            {
              "internalType": "string",
              "name": "companyId",
              "type": "string"
            },
            {
              "internalType": "string",
              "name": "accountNumber",
              "type": "string"
            },
            {
              "internalType": "enum Project.ProjectStatus",
              "name": "status",
              "type": "uint8"
            },
            {
              "internalType": "string[]",
              "name": "donors",
              "type": "string[]"
            }
          ],
          "internalType": "struct Project.ProjectInfo",
          "name": "",
          "type": "tuple"
        }
      ],
      "stateMutability": "view",
      "type": "function",
      "constant": true
    },
    {
      "inputs": [],
      "name": "getAllProjects",
      "outputs": [
        {
          "components": [
            {
              "internalType": "uint256",
              "name": "id",
              "type": "uint256"
            },
            {
              "internalType": "string",
              "name": "name",
              "type": "string"
            },
            {
              "internalType": "string",
              "name": "description",
              "type": "string"
            },
            {
              "internalType": "string",
              "name": "location",
              "type": "string"
            },
            {
              "internalType": "uint256",
              "name": "estimatedBudget",
              "type": "uint256"
            },
            {
              "internalType": "uint256",
              "name": "fundedMoney",
              "type": "uint256"
            },
            {
              "internalType": "uint256",
              "name": "estimatedDuration",
              "type": "uint256"
            },
            {
              "internalType": "uint256",
              "name": "createdAt",
              "type": "uint256"
            },
            {
              "internalType": "string",
              "name": "companyId",
              "type": "string"
            },
            {
              "internalType": "string",
              "name": "accountNumber",
              "type": "string"
            },
            {
              "internalType": "enum Project.ProjectStatus",
              "name": "status",
              "type": "uint8"
            },
            {
              "internalType": "string[]",
              "name": "donors",
              "type": "string[]"
            }
          ],
          "internalType": "struct Project.ProjectInfo[]",
          "name": "",
          "type": "tuple[]"
        }
      ],
      "stateMutability": "view",
      "type": "function",
      "constant": true
    }
  ],
  "bytecode": "0x608060405234801561001057600080fd5b5060008055611c5b806100246000396000f3fe608060405234801561001057600080fd5b50600436106100bb576000357c01000000000000000000000000000000000000000000000000000000009004806380d038291161008357806380d0382914610135578063bee5cdca1461013d578063e4a8f18b1461015d578063e6279b4f1461016e578063e7aa3afc1461018157600080fd5b806320e8be43146100c05780634cd0cb28146100e957806354138541146100fe5780636fe1ac91146101115780637fdd45dc14610122575b600080fd5b6100d36100ce3660046116b8565b61019e565b6040516100e091906118d4565b60405180910390f35b6100fc6100f7366004611935565b6106e2565b005b6100fc61010c36600461194e565b61077a565b6100fc61011f3660046116b8565b50565b6100fc61013036600461199e565b61080f565b6100d3610a27565b61015061014b366004611935565b610f66565b6040516100e09190611a83565b6000546040519081526020016100e0565b6100fc61017c366004611a9d565b6113ab565b6101896113d5565b604080519283526020830191909152016100e0565b606060006001836040516101b29190611abf565b90815260200160405180910390208054905090506000805467ffffffffffffffff8111156101e2576101e2611612565b60405190808252806020026020018201604052801561021b57816020015b610208611439565b8152602001906001900390816102005790505b5090506000805b838110156106d8576002600060018860405161023e9190611abf565b9081526020016040518091039020838154811061025d5761025d611adb565b90600052602060002001548152602001908152602001600020604051806101800160405290816000820154815260200160018201805461029c90611af4565b80601f01602080910402602001604051908101604052809291908181526020018280546102c890611af4565b80156103155780601f106102ea57610100808354040283529160200191610315565b820191906000526020600020905b8154815290600101906020018083116102f857829003601f168201915b5050505050815260200160028201805461032e90611af4565b80601f016020809104026020016040519081016040528092919081815260200182805461035a90611af4565b80156103a75780601f1061037c576101008083540402835291602001916103a7565b820191906000526020600020905b81548152906001019060200180831161038a57829003601f168201915b505050505081526020016003820180546103c090611af4565b80601f01602080910402602001604051908101604052809291908181526020018280546103ec90611af4565b80156104395780601f1061040e57610100808354040283529160200191610439565b820191906000526020600020905b81548152906001019060200180831161041c57829003601f168201915b505050505081526020016004820154815260200160058201548152602001600682015481526020016007820154815260200160088201805461047a90611af4565b80601f01602080910402602001604051908101604052809291908181526020018280546104a690611af4565b80156104f35780601f106104c8576101008083540402835291602001916104f3565b820191906000526020600020905b8154815290600101906020018083116104d657829003601f168201915b5050505050815260200160098201805461050c90611af4565b80601f016020809104026020016040519081016040528092919081815260200182805461053890611af4565b80156105855780601f1061055a57610100808354040283529160200191610585565b820191906000526020600020905b81548152906001019060200180831161056857829003601f168201915b5050509183525050600a82015460209091019060ff1660048111156105ac576105ac611751565b60048111156105bd576105bd611751565b8152602001600b8201805480602002602001604051908101604052809291908181526020016000905b8282101561069257838290600052602060002001805461060590611af4565b80601f016020809104026020016040519081016040528092919081815260200182805461063190611af4565b801561067e5780601f106106535761010080835404028352916020019161067e565b820191906000526020600020905b81548152906001019060200180831161066157829003601f168201915b5050505050815260200190600101906105e6565b50505050815250508383815181106106ac576106ac611adb565b602002602001018190525081806106c290611b4b565b92505080806106d090611b4b565b915050610222565b5090949350505050565b60008181526002602052604081208181559061070160018301826114ab565b61070f6002830160006114ab565b61071d6003830160006114ab565b600482016000905560058201600090556006820160009055600782016000905560088201600061074d91906114ab565b61075b6009830160006114ab565b600a8201805460ff19169055610775600b830160006114e5565b505050565b6000838152600260205260408120600501805484929061079b908490611b66565b909155505060008381526002602090815260408220600b0180546001810182559083529181902083516107d5939190910191840190611503565b506001816040516107e69190611abf565b908152604051602091819003820190208054600181018255600091825291902001929092555050565b60008054908061081e83611b4b565b91905055506060604051806101800160405280600054815260200189815260200188815260200187815260200186815260200160008152602001858152602001426103e861086c9190611b7e565b8152602081018590526040810184905260600160008152602090810183905260008054815260028252604090208251815582820151805191926108b792600185019290910190611503565b50604082015180516108d3916002840191602090910190611503565b50606082015180516108ef916003840191602090910190611503565b506080820151600482015560a0820151600582015560c0820151600682015560e082015160078201556101008201518051610934916008840191602090910190611503565b506101208201518051610951916009840191602090910190611503565b50610140820151600a8201805460ff1916600183600481111561097657610976611751565b0217905550610160820151805161099791600b840191602090910190611587565b50506040516109a891508490611abf565b6040518091039020886040516109be9190611abf565b60405180910390206000547f0e9749c08d7a6ba465fd5dcc39278788a16455c3d467d09018c1695c5b39ca9a8a8a8a8a6000426103e86109fe9190611b7e565b8b6000604051610a15989796959493929190611b9d565b60405180910390a45050505050505050565b60606000805b600054610a3b906001611b66565b811015610a765760008181526002602052604090205415610a645781610a6081611b4b565b9250505b80610a6e81611b4b565b915050610a2d565b5060008167ffffffffffffffff811115610a9257610a92611612565b604051908082528060200260200182016040528015610acb57816020015b610ab8611439565b815260200190600190039081610ab05790505b509050600060015b600054610ae1906001611b66565b811015610f5d57600260008281526020019081526020016000206040518061018001604052908160008201548152602001600182018054610b2190611af4565b80601f0160208091040260200160405190810160405280929190818152602001828054610b4d90611af4565b8015610b9a5780601f10610b6f57610100808354040283529160200191610b9a565b820191906000526020600020905b815481529060010190602001808311610b7d57829003601f168201915b50505050508152602001600282018054610bb390611af4565b80601f0160208091040260200160405190810160405280929190818152602001828054610bdf90611af4565b8015610c2c5780601f10610c0157610100808354040283529160200191610c2c565b820191906000526020600020905b815481529060010190602001808311610c0f57829003601f168201915b50505050508152602001600382018054610c4590611af4565b80601f0160208091040260200160405190810160405280929190818152602001828054610c7190611af4565b8015610cbe5780601f10610c9357610100808354040283529160200191610cbe565b820191906000526020600020905b815481529060010190602001808311610ca157829003601f168201915b5050505050815260200160048201548152602001600582015481526020016006820154815260200160078201548152602001600882018054610cff90611af4565b80601f0160208091040260200160405190810160405280929190818152602001828054610d2b90611af4565b8015610d785780601f10610d4d57610100808354040283529160200191610d78565b820191906000526020600020905b815481529060010190602001808311610d5b57829003601f168201915b50505050508152602001600982018054610d9190611af4565b80601f0160208091040260200160405190810160405280929190818152602001828054610dbd90611af4565b8015610e0a5780601f10610ddf57610100808354040283529160200191610e0a565b820191906000526020600020905b815481529060010190602001808311610ded57829003601f168201915b5050509183525050600a82015460209091019060ff166004811115610e3157610e31611751565b6004811115610e4257610e42611751565b8152602001600b8201805480602002602001604051908101604052809291908181526020016000905b82821015610f17578382906000526020600020018054610e8a90611af4565b80601f0160208091040260200160405190810160405280929190818152602001828054610eb690611af4565b8015610f035780601f10610ed857610100808354040283529160200191610f03565b820191906000526020600020905b815481529060010190602001808311610ee657829003601f168201915b505050505081526020019060010190610e6b565b5050505081525050838381518110610f3157610f31611adb565b60200260200101819052508180610f4790611b4b565b9250508080610f5590611b4b565b915050610ad3565b50909392505050565b610f6e611439565b600260008381526020019081526020016000206040518061018001604052908160008201548152602001600182018054610fa790611af4565b80601f0160208091040260200160405190810160405280929190818152602001828054610fd390611af4565b80156110205780601f10610ff557610100808354040283529160200191611020565b820191906000526020600020905b81548152906001019060200180831161100357829003601f168201915b5050505050815260200160028201805461103990611af4565b80601f016020809104026020016040519081016040528092919081815260200182805461106590611af4565b80156110b25780601f10611087576101008083540402835291602001916110b2565b820191906000526020600020905b81548152906001019060200180831161109557829003601f168201915b505050505081526020016003820180546110cb90611af4565b80601f01602080910402602001604051908101604052809291908181526020018280546110f790611af4565b80156111445780601f1061111957610100808354040283529160200191611144565b820191906000526020600020905b81548152906001019060200180831161112757829003601f168201915b505050505081526020016004820154815260200160058201548152602001600682015481526020016007820154815260200160088201805461118590611af4565b80601f01602080910402602001604051908101604052809291908181526020018280546111b190611af4565b80156111fe5780601f106111d3576101008083540402835291602001916111fe565b820191906000526020600020905b8154815290600101906020018083116111e157829003601f168201915b5050505050815260200160098201805461121790611af4565b80601f016020809104026020016040519081016040528092919081815260200182805461124390611af4565b80156112905780601f1061126557610100808354040283529160200191611290565b820191906000526020600020905b81548152906001019060200180831161127357829003601f168201915b5050509183525050600a82015460209091019060ff1660048111156112b7576112b7611751565b60048111156112c8576112c8611751565b8152602001600b8201805480602002602001604051908101604052809291908181526020016000905b8282101561139d57838290600052602060002001805461131090611af4565b80601f016020809104026020016040519081016040528092919081815260200182805461133c90611af4565b80156113895780601f1061135e57610100808354040283529160200191611389565b820191906000526020600020905b81548152906001019060200180831161136c57829003601f168201915b5050505050815260200190600101906112f1565b505050915250909392505050565b600082815260026020526040812060050180548392906113cc908490611c0e565b90915550505050565b60008060005b600054811015611434576000818152600260205260409020600501546114019084611b66565b6000828152600260205260409020600401549093506114209083611b66565b91508061142c81611b4b565b9150506113db565b509091565b604051806101800160405280600081526020016060815260200160608152602001606081526020016000815260200160008152602001600081526020016000815260200160608152602001606081526020016000600481111561149e5761149e611751565b8152602001606081525090565b5080546114b790611af4565b6000825580601f106114c7575050565b601f01602090049060005260206000209081019061011f91906115e0565b508054600082559060005260206000209081019061011f91906115f5565b82805461150f90611af4565b90600052602060002090601f0160209004810192826115315760008555611577565b82601f1061154a57805160ff1916838001178555611577565b82800160010185558215611577579182015b8281111561157757825182559160200191906001019061155c565b506115839291506115e0565b5090565b8280548282559060005260206000209081019282156115d4579160200282015b828111156115d457825180516115c4918491602090910190611503565b50916020019190600101906115a7565b506115839291506115f5565b5b8082111561158357600081556001016115e1565b8082111561158357600061160982826114ab565b506001016115f5565b60e060020a634e487b7102600052604160045260246000fd5b600082601f83011261163c57600080fd5b813567ffffffffffffffff8082111561165757611657611612565b604051601f8301601f19908116603f0116810190828211818310171561167f5761167f611612565b8160405283815286602085880101111561169857600080fd5b836020870160208301376000602085830101528094505050505092915050565b6000602082840312156116ca57600080fd5b813567ffffffffffffffff8111156116e157600080fd5b6116ed8482850161162b565b949350505050565b60005b838110156117105781810151838201526020016116f8565b8381111561171f576000848401525b50505050565b6000815180845261173d8160208601602086016116f5565b601f01601f19169290920160200192915050565b60e060020a634e487b7102600052602160045260246000fd5b6005811061178b5760e060020a634e487b7102600052602160045260246000fd5b9052565b6000828251808552602080860195508081830284010181860160005b848110156117d957601f198684030189526117c7838351611725565b988401989250908301906001016117ab565b5090979650505050505050565b600061018082518452602083015181602086015261180682860182611725565b915050604083015184820360408601526118208282611725565b9150506060830151848203606086015261183a8282611725565b9150506080830151608085015260a083015160a085015260c083015160c085015260e083015160e0850152610100808401518583038287015261187d8382611725565b9250505061012080840151858303828701526118998382611725565b92505050610140808401516118b08287018261176a565b505061016080840151858303828701526118ca838261178f565b9695505050505050565b600060208083018184528085518083526040860191506040848202870101925083870160005b8281101561192857603f198886030184526119168583516117e6565b945092850192908501906001016118fa565b5092979650505050505050565b60006020828403121561194757600080fd5b5035919050565b60008060006060848603121561196357600080fd5b8335925060208401359150604084013567ffffffffffffffff81111561198857600080fd5b6119948682870161162b565b9150509250925092565b600080600080600080600060e0888a0312156119b957600080fd5b873567ffffffffffffffff808211156119d157600080fd5b6119dd8b838c0161162b565b985060208a01359150808211156119f357600080fd5b6119ff8b838c0161162b565b975060408a0135915080821115611a1557600080fd5b611a218b838c0161162b565b965060608a0135955060808a0135945060a08a0135915080821115611a4557600080fd5b611a518b838c0161162b565b935060c08a0135915080821115611a6757600080fd5b50611a748a828b0161162b565b91505092959891949750929550565b602081526000611a9660208301846117e6565b9392505050565b60008060408385031215611ab057600080fd5b50508035926020909101359150565b60008251611ad18184602087016116f5565b9190910192915050565b60e060020a634e487b7102600052603260045260246000fd5b600281046001821680611b0857607f821691505b60208210811415611b2c5760e060020a634e487b7102600052602260045260246000fd5b50919050565b60e060020a634e487b7102600052601160045260246000fd5b6000600019821415611b5f57611b5f611b32565b5060010190565b60008219821115611b7957611b79611b32565b500190565b6000816000190483118215151615611b9857611b98611b32565b500290565b6000610100808352611bb18184018c611725565b90508281036020840152611bc5818b611725565b90508860408401528760608401528660808401528560a084015282810360c0840152611bf18186611725565b915050611c0160e083018461176a565b9998505050505050505050565b600082821015611c2057611c20611b32565b50039056fea26469706673582212208593a4439434e6cc0afcfc6a69fc7343ff7a7b4aedd17414524d3969569d154464736f6c63430008090033",
  "immutableReferences": {},
  "source": "// SPDX-License-Identifier: MIT\n\npragma solidity ^0.8;\n\ncontract Project {\n    uint256 private count;\n    mapping(string => uint256[]) private donorProjectMappings;\n\n    constructor() {\n        count = 0;\n    }\n\n    enum ProjectStatus {\n        PENDING,\n        STARTED,\n        COMPLETED,\n        CANCELLED,\n        PAUSED\n    }\n\n    struct ProjectInfo {\n        uint256 id;\n        string name;\n        string description;\n        string location;\n        uint256 estimatedBudget;\n        uint256 fundedMoney;\n        uint256 estimatedDuration;\n        uint256 createdAt;\n        string companyId;\n        string accountNumber;\n        ProjectStatus status;\n        string[] donors;\n    }\n\n    event AddedProject(\n        uint256 indexed id,\n        string indexed name,\n        string description,\n        string location,\n        uint256 estimatedBudget,\n        uint256 estimatedDuration,\n        uint256 fundedMoney,\n        uint256 createdAt,\n        string indexed companyId,\n        string accountNumber,\n        ProjectStatus status\n    );\n\n    event DeletedProject(\n        uint256 indexed id,\n        string indexed name,\n        string description,\n        string location,\n        uint256 estimatedBudget,\n        uint256 estimatedDuration,\n        uint256 fundedMoney,\n        uint256 createdAt,\n        string indexed companyId,\n        string accountNumber,\n        ProjectStatus status\n    );\n\n    mapping(uint256 => ProjectInfo) private projects;\n\n    function getProjectsCount() public view returns (uint256) {\n        return count;\n    }\n\n    function getDonatedProjectsByUsername(string memory _username)\n        public\n        view\n        returns (ProjectInfo[] memory)\n    {\n        uint256 length = donorProjectMappings[_username].length;\n        ProjectInfo[] memory projectInfo = new ProjectInfo[](count);\n\n        uint256 c = 0;\n        for (uint256 index = 0; index < length; index++) {\n            projectInfo[c] = projects[donorProjectMappings[_username][index]];\n            c++;\n        }\n        return projectInfo;\n    }\n\n    function getProjectStatus()\n        public\n        view\n        returns (uint256 donated, uint256 needed)\n    {\n        for (uint256 index = 0; index < count; index++) {\n            donated += projects[index].fundedMoney;\n            needed += projects[index].estimatedBudget;\n        }\n    }\n\n    // add onlyTechnicalAdmin modifier to it\n    function addProject(\n        string memory name,\n        string memory description,\n        string memory location,\n        uint256 estimatedBudget,\n        uint256 estimatedDuration,\n        string memory companyId,\n        string memory accountNumber\n    ) public {\n        count++;\n\n        string[] memory emptyList;\n\n        projects[count] = ProjectInfo(\n            count,\n            name,\n            description,\n            location,\n            estimatedBudget,\n            0,\n            estimatedDuration,\n            block.timestamp * 1000,\n            companyId,\n            accountNumber,\n            ProjectStatus.PENDING,\n            emptyList\n        );\n        emit AddedProject(\n            count,\n            name,\n            description,\n            location,\n            estimatedBudget,\n            estimatedDuration,\n            0,\n            block.timestamp * 1000,\n            companyId,\n            accountNumber,\n            ProjectStatus.PENDING\n        );\n    }\n\n    function getPatientByDonorName(string memory _donorUsername) public {}\n\n    function addPaymentInfo(\n        uint256 _projectId,\n        uint256 _amount,\n        string memory _donorUsername\n    ) public {\n        projects[_projectId].fundedMoney += _amount;\n        projects[_projectId].donors.push(_donorUsername);\n        donorProjectMappings[_donorUsername].push(_projectId);\n    }\n\n    function refundMoney(uint256 _projectId, uint256 _amount) public {\n        projects[_projectId].fundedMoney -= _amount;\n        // projects[_projectId].donors.push(_donorUsername);\n        // donorProjectMappings[_donorUsername].push(_projectId);\n    }\n\n    function deleteProject(uint256 _id) public {\n        delete projects[_id];\n    }\n\n    //TODO - when a user asks for projects return subproject and tasks tied\n    function getProjectById(uint256 _id)\n        public\n        view\n        returns (ProjectInfo memory)\n    {\n        return projects[_id];\n    }\n\n    /*\n    This function returns array of subprojects so we can iterate over them\n    */\n    function getAllProjects() public view returns (ProjectInfo[] memory) {\n        uint256 length;\n        for (uint256 index = 0; index < count + 1; index++) {\n            if (projects[index].id != 0) {\n                length++;\n            }\n        }\n        ProjectInfo[] memory sp = new ProjectInfo[](length);\n        uint256 counter = 0;\n        for (uint256 index = 1; index < count + 1; index++) {\n            sp[counter] = projects[index];\n            counter++;\n        }\n        return sp;\n    }\n}\n",
  "sourcePath": "/home/jeremy/Desktop/fets_front_end/src/contracts/project_management/Project.sol",
  "compiler": {
    "name": "solc",
    "version": "0.8.9+commit.e5eed63a.Emscripten.clang"
  },
  "schemaVersion": "3.4.3",
  "updatedAt": "2022-06-20T04:22:29.325Z",
  "networkType": "ethereum",
  "devdoc": {
    "kind": "dev",
    "methods": {},
    "version": 1
  },
  "userdoc": {
    "kind": "user",
    "methods": {},
    "version": 1
  }
}