{
  "contractName": "ProjectUserMapping",
  "abi": [
    {
      "inputs": [
        {
          "internalType": "address",
          "name": "_projectAddress",
          "type": "address"
        },
        {
          "internalType": "address",
          "name": "_subProjectAddress",
          "type": "address"
        },
        {
          "internalType": "address",
          "name": "_taskAddress",
          "type": "address"
        }
      ],
      "stateMutability": "nonpayable",
      "type": "constructor"
    },
    {
      "anonymous": false,
      "inputs": [
        {
          "indexed": false,
          "internalType": "uint256",
          "name": "projectId",
          "type": "uint256"
        },
        {
          "indexed": false,
          "internalType": "string",
          "name": "financialOfficerUsername",
          "type": "string"
        },
        {
          "indexed": false,
          "internalType": "string",
          "name": "projectManagerUsernmae",
          "type": "string"
        },
        {
          "indexed": false,
          "internalType": "string",
          "name": "budgetAndProcurementManagerUsername",
          "type": "string"
        },
        {
          "indexed": false,
          "internalType": "string",
          "name": "externalAuditorUsername",
          "type": "string"
        }
      ],
      "name": "ProjectMapped",
      "type": "event"
    },
    {
      "inputs": [
        {
          "internalType": "uint256",
          "name": "projectId",
          "type": "uint256"
        },
        {
          "internalType": "string",
          "name": "financialOfficerUsername",
          "type": "string"
        },
        {
          "internalType": "string",
          "name": "projectManagerUsernmae",
          "type": "string"
        },
        {
          "internalType": "string",
          "name": "budgetAndProcurementManagerUsername",
          "type": "string"
        },
        {
          "internalType": "string",
          "name": "externalAuditorUsername",
          "type": "string"
        }
      ],
      "name": "addMapping",
      "outputs": [],
      "stateMutability": "nonpayable",
      "type": "function"
    },
    {
      "inputs": [
        {
          "internalType": "uint256",
          "name": "_id",
          "type": "uint256"
        }
      ],
      "name": "getProjectByIdFromMapping",
      "outputs": [
        {
          "components": [
            {
              "internalType": "uint256",
              "name": "id",
              "type": "uint256"
            },
            {
              "internalType": "string",
              "name": "name",
              "type": "string"
            },
            {
              "internalType": "string",
              "name": "description",
              "type": "string"
            },
            {
              "internalType": "string",
              "name": "location",
              "type": "string"
            },
            {
              "internalType": "uint256",
              "name": "estimatedBudget",
              "type": "uint256"
            },
            {
              "internalType": "uint256",
              "name": "fundedMoney",
              "type": "uint256"
            },
            {
              "internalType": "uint256",
              "name": "estimatedDuration",
              "type": "uint256"
            },
            {
              "internalType": "uint256",
              "name": "createdAt",
              "type": "uint256"
            },
            {
              "internalType": "string",
              "name": "companyId",
              "type": "string"
            },
            {
              "internalType": "string",
              "name": "accountNumber",
              "type": "string"
            },
            {
              "internalType": "enum Project.ProjectStatus",
              "name": "status",
              "type": "uint8"
            }
          ],
          "internalType": "struct Project.ProjectInfo",
          "name": "",
          "type": "tuple"
        }
      ],
      "stateMutability": "view",
      "type": "function",
      "constant": true
    },
    {
      "inputs": [
        {
          "internalType": "string",
          "name": "_username",
          "type": "string"
        }
      ],
      "name": "getProjectsListByUsername",
      "outputs": [
        {
          "components": [
            {
              "internalType": "uint256",
              "name": "id",
              "type": "uint256"
            },
            {
              "internalType": "string",
              "name": "name",
              "type": "string"
            },
            {
              "internalType": "string",
              "name": "description",
              "type": "string"
            },
            {
              "internalType": "string",
              "name": "location",
              "type": "string"
            },
            {
              "internalType": "uint256",
              "name": "estimatedBudget",
              "type": "uint256"
            },
            {
              "internalType": "uint256",
              "name": "fundedMoney",
              "type": "uint256"
            },
            {
              "internalType": "uint256",
              "name": "estimatedDuration",
              "type": "uint256"
            },
            {
              "internalType": "uint256",
              "name": "createdAt",
              "type": "uint256"
            },
            {
              "internalType": "string",
              "name": "companyId",
              "type": "string"
            },
            {
              "internalType": "string",
              "name": "accountNumber",
              "type": "string"
            },
            {
              "internalType": "enum Project.ProjectStatus",
              "name": "status",
              "type": "uint8"
            }
          ],
          "internalType": "struct Project.ProjectInfo[]",
          "name": "",
          "type": "tuple[]"
        }
      ],
      "stateMutability": "view",
      "type": "function",
      "constant": true
    },
    {
      "inputs": [
        {
          "internalType": "uint256",
          "name": "_projectId",
          "type": "uint256"
        }
      ],
      "name": "getSubProjectListByProjectId",
      "outputs": [
        {
          "components": [
            {
              "internalType": "uint256",
              "name": "id",
              "type": "uint256"
            },
            {
              "internalType": "string",
              "name": "name",
              "type": "string"
            },
            {
              "internalType": "string",
              "name": "description",
              "type": "string"
            },
            {
              "internalType": "uint256",
              "name": "projectId",
              "type": "uint256"
            },
            {
              "internalType": "uint256",
              "name": "estimatedDuration",
              "type": "uint256"
            },
            {
              "internalType": "uint256",
              "name": "createdAt",
              "type": "uint256"
            }
          ],
          "internalType": "struct SubProject.SubProjectInfo[]",
          "name": "",
          "type": "tuple[]"
        }
      ],
      "stateMutability": "view",
      "type": "function",
      "constant": true
    },
    {
      "inputs": [
        {
          "internalType": "uint256",
          "name": "_id",
          "type": "uint256"
        }
      ],
      "name": "getMappingById",
      "outputs": [
        {
          "components": [
            {
              "internalType": "uint256",
              "name": "projectId",
              "type": "uint256"
            },
            {
              "internalType": "string",
              "name": "financialOfficerUsername",
              "type": "string"
            },
            {
              "internalType": "string",
              "name": "projectManagerUsernmae",
              "type": "string"
            },
            {
              "internalType": "string",
              "name": "budgetAndProcurementManagerUsername",
              "type": "string"
            },
            {
              "internalType": "string",
              "name": "externalAuditorUsername",
              "type": "string"
            }
          ],
          "internalType": "struct ProjectUserMapping.MappingInfo",
          "name": "",
          "type": "tuple"
        }
      ],
      "stateMutability": "view",
      "type": "function",
      "constant": true
    },
    {
      "inputs": [],
      "name": "getAllSubProjects",
      "outputs": [
        {
          "components": [
            {
              "internalType": "uint256",
              "name": "id",
              "type": "uint256"
            },
            {
              "internalType": "string",
              "name": "name",
              "type": "string"
            },
            {
              "internalType": "string",
              "name": "description",
              "type": "string"
            },
            {
              "internalType": "uint256",
              "name": "projectId",
              "type": "uint256"
            },
            {
              "internalType": "uint256",
              "name": "estimatedDuration",
              "type": "uint256"
            },
            {
              "internalType": "uint256",
              "name": "createdAt",
              "type": "uint256"
            }
          ],
          "internalType": "struct SubProject.SubProjectInfo[]",
          "name": "",
          "type": "tuple[]"
        }
      ],
      "stateMutability": "view",
      "type": "function",
      "constant": true
    },
    {
      "inputs": [
        {
          "internalType": "uint256",
          "name": "_projectId",
          "type": "uint256"
        }
      ],
      "name": "getTaskListByProjectId",
      "outputs": [
        {
          "components": [
            {
              "internalType": "uint256",
              "name": "id",
              "type": "uint256"
            },
            {
              "internalType": "string",
              "name": "name",
              "type": "string"
            },
            {
              "internalType": "string",
              "name": "description",
              "type": "string"
            },
            {
              "internalType": "uint256",
              "name": "projectId",
              "type": "uint256"
            },
            {
              "internalType": "uint256",
              "name": "subProjectId",
              "type": "uint256"
            },
            {
              "internalType": "uint256",
              "name": "estimatedDuration",
              "type": "uint256"
            },
            {
              "internalType": "enum Task.TaskStatus",
              "name": "status",
              "type": "uint8"
            },
            {
              "internalType": "uint256",
              "name": "allocatedBudget",
              "type": "uint256"
            },
            {
              "internalType": "string",
              "name": "remark",
              "type": "string"
            },
            {
              "internalType": "uint256",
              "name": "createdAt",
              "type": "uint256"
            }
          ],
          "internalType": "struct Task.TaskInfo[]",
          "name": "",
          "type": "tuple[]"
        }
      ],
      "stateMutability": "view",
      "type": "function",
      "constant": true
    },
    {
      "inputs": [
        {
          "internalType": "uint256",
          "name": "_projectId",
          "type": "uint256"
        }
      ],
      "name": "getTaskListBySubProject",
      "outputs": [
        {
          "components": [
            {
              "internalType": "uint256",
              "name": "id",
              "type": "uint256"
            },
            {
              "internalType": "string",
              "name": "name",
              "type": "string"
            },
            {
              "internalType": "string",
              "name": "description",
              "type": "string"
            },
            {
              "internalType": "uint256",
              "name": "projectId",
              "type": "uint256"
            },
            {
              "internalType": "uint256",
              "name": "subProjectId",
              "type": "uint256"
            },
            {
              "internalType": "uint256",
              "name": "estimatedDuration",
              "type": "uint256"
            },
            {
              "internalType": "enum Task.TaskStatus",
              "name": "status",
              "type": "uint8"
            },
            {
              "internalType": "uint256",
              "name": "allocatedBudget",
              "type": "uint256"
            },
            {
              "internalType": "string",
              "name": "remark",
              "type": "string"
            },
            {
              "internalType": "uint256",
              "name": "createdAt",
              "type": "uint256"
            }
          ],
          "internalType": "struct Task.TaskInfo[]",
          "name": "",
          "type": "tuple[]"
        }
      ],
      "stateMutability": "view",
      "type": "function",
      "constant": true
    },
    {
      "inputs": [
        {
          "internalType": "uint256",
          "name": "_projectId",
          "type": "uint256"
        }
      ],
      "name": "getTaskStatusByProjectId",
      "outputs": [
        {
          "internalType": "uint256",
          "name": "approved",
          "type": "uint256"
        },
        {
          "internalType": "uint256",
          "name": "unapproved",
          "type": "uint256"
        }
      ],
      "stateMutability": "view",
      "type": "function",
      "constant": true
    },
    {
      "inputs": [
        {
          "internalType": "uint256",
          "name": "_subProjectId",
          "type": "uint256"
        }
      ],
      "name": "getTaskStatusBySubProjectId",
      "outputs": [
        {
          "internalType": "uint256",
          "name": "approved",
          "type": "uint256"
        },
        {
          "internalType": "uint256",
          "name": "unapproved",
          "type": "uint256"
        }
      ],
      "stateMutability": "view",
      "type": "function",
      "constant": true
    }
  ],
  "bytecode": "0x60806040523480156200001157600080fd5b506040516200280d3803806200280d833981810160405281019062000037919062000174565b6000808190555082600160006101000a81548173ffffffffffffffffffffffffffffffffffffffff021916908373ffffffffffffffffffffffffffffffffffffffff16021790555081600260006101000a81548173ffffffffffffffffffffffffffffffffffffffff021916908373ffffffffffffffffffffffffffffffffffffffff16021790555080600360006101000a81548173ffffffffffffffffffffffffffffffffffffffff021916908373ffffffffffffffffffffffffffffffffffffffff160217905550505050620001d0565b600080fd5b600073ffffffffffffffffffffffffffffffffffffffff82169050919050565b60006200013c826200010f565b9050919050565b6200014e816200012f565b81146200015a57600080fd5b50565b6000815190506200016e8162000143565b92915050565b60008060006060848603121562000190576200018f6200010a565b5b6000620001a0868287016200015d565b9350506020620001b3868287016200015d565b9250506040620001c6868287016200015d565b9150509250925092565b61262d80620001e06000396000f3fe608060405234801561001057600080fd5b506004361061009e5760003560e01c8063a2bd1e9e11610066578063a2bd1e9e14610182578063a71205c1146101b2578063beccbab7146101e2578063c50c58cd146101fe578063deb1db101461022f5761009e565b806341db35ca146100a35780635e0f94d3146100d35780636874c5f7146101045780636ee8694b1461013457806393a35ef314610164575b600080fd5b6100bd60048036038101906100b891906110cd565b61025f565b6040516100ca91906113c3565b60405180910390f35b6100ed60048036038101906100e891906110cd565b610318565b6040516100fb9291906113f4565b60405180910390f35b61011e600480360381019061011991906110cd565b6103ce565b60405161012b9190611570565b60405180910390f35b61014e600480360381019061014991906110cd565b61048d565b60405161015b919061161d565b60405180910390f35b61016c61070c565b6040516101799190611791565b60405180910390f35b61019c600480360381019061019791906118e8565b6107b8565b6040516101a99190611afe565b60405180910390f35b6101cc60048036038101906101c791906110cd565b610a52565b6040516101d99190611791565b60405180910390f35b6101fc60048036038101906101f79190611b20565b610b0b565b005b610218600480360381019061021391906110cd565b610be6565b6040516102269291906113f4565b60405180910390f35b610249600480360381019061024491906110cd565b610c9c565b60405161025691906113c3565b60405180910390f35b6060600360009054906101000a900473ffffffffffffffffffffffffffffffffffffffff1673ffffffffffffffffffffffffffffffffffffffff16635ea62f56836040518263ffffffff1660e01b81526004016102bc9190611c0b565b60006040518083038186803b1580156102d457600080fd5b505afa1580156102e8573d6000803e3d6000fd5b505050506040513d6000823e3d601f19601f820116820180604052508101906103119190611f0a565b9050919050565b600080600360009054906101000a900473ffffffffffffffffffffffffffffffffffffffff1673ffffffffffffffffffffffffffffffffffffffff16635e0f94d3846040518263ffffffff1660e01b81526004016103769190611c0b565b604080518083038186803b15801561038d57600080fd5b505afa1580156103a1573d6000803e3d6000fd5b505050506040513d601f19601f820116820180604052508101906103c59190611f53565b91509150915091565b6103d6610f45565b600160009054906101000a900473ffffffffffffffffffffffffffffffffffffffff1673ffffffffffffffffffffffffffffffffffffffff1663bee5cdca836040518263ffffffff1660e01b81526004016104319190611c0b565b60006040518083038186803b15801561044957600080fd5b505afa15801561045d573d6000803e3d6000fd5b505050506040513d6000823e3d601f19601f820116820180604052508101906104869190612150565b9050919050565b610495610fb1565b600460008381526020019081526020016000206040518060a0016040529081600082015481526020016001820180546104cd906121c8565b80601f01602080910402602001604051908101604052809291908181526020018280546104f9906121c8565b80156105465780601f1061051b57610100808354040283529160200191610546565b820191906000526020600020905b81548152906001019060200180831161052957829003601f168201915b5050505050815260200160028201805461055f906121c8565b80601f016020809104026020016040519081016040528092919081815260200182805461058b906121c8565b80156105d85780601f106105ad576101008083540402835291602001916105d8565b820191906000526020600020905b8154815290600101906020018083116105bb57829003601f168201915b505050505081526020016003820180546105f1906121c8565b80601f016020809104026020016040519081016040528092919081815260200182805461061d906121c8565b801561066a5780601f1061063f5761010080835404028352916020019161066a565b820191906000526020600020905b81548152906001019060200180831161064d57829003601f168201915b50505050508152602001600482018054610683906121c8565b80601f01602080910402602001604051908101604052809291908181526020018280546106af906121c8565b80156106fc5780601f106106d1576101008083540402835291602001916106fc565b820191906000526020600020905b8154815290600101906020018083116106df57829003601f168201915b5050505050815250509050919050565b6060600260009054906101000a900473ffffffffffffffffffffffffffffffffffffffff1673ffffffffffffffffffffffffffffffffffffffff166393a35ef36040518163ffffffff1660e01b815260040160006040518083038186803b15801561077657600080fd5b505afa15801561078a573d6000803e3d6000fd5b505050506040513d6000823e3d601f19601f820116820180604052508101906107b391906123b3565b905090565b606060006107c583610d55565b905060008167ffffffffffffffff8111156107e3576107e26117bd565b5b60405190808252806020026020018201604052801561081c57816020015b610809610f45565b8152602001906001900390816108015790505b509050600080600190505b6001600054610836919061242b565b811015610a46578560405160200161084e91906124bd565b604051602081830303815290604052805190602001206004600083815260200190815260200160002060010160405160200161088a9190612568565b60405160208183030381529060405280519060200120148061090c5750856040516020016108b891906124bd565b60405160208183030381529060405280519060200120600460008381526020019081526020016000206003016040516020016108f49190612568565b60405160208183030381529060405280519060200120145b8061097757508560405160200161092391906124bd565b604051602081830303815290604052805190602001206004600083815260200190815260200160002060020160405160200161095f9190612568565b60405160208183030381529060405280519060200120145b806109e257508560405160200161098e91906124bd565b60405160208183030381529060405280519060200120600460008381526020019081526020016000206004016040516020016109ca9190612568565b60405160208183030381529060405280519060200120145b15610a3357610a0660046000838152602001908152602001600020600001546103ce565b838381518110610a1957610a1861257f565b5b60200260200101819052508180610a2f906125ae565b9250505b8080610a3e906125ae565b915050610827565b50819350505050919050565b6060600260009054906101000a900473ffffffffffffffffffffffffffffffffffffffff1673ffffffffffffffffffffffffffffffffffffffff1663778f8c4e836040518263ffffffff1660e01b8152600401610aaf9190611c0b565b60006040518083038186803b158015610ac757600080fd5b505afa158015610adb573d6000803e3d6000fd5b505050506040513d6000823e3d601f19601f82011682018060405250810190610b0491906123b3565b9050919050565b6001600080828254610b1d919061242b565b925050819055506040518060a001604052808681526020018581526020018481526020018381526020018281525060046000878152602001908152602001600020600082015181600001556020820151816001019080519060200190610b84929190610fe0565b506040820151816002019080519060200190610ba1929190610fe0565b506060820151816003019080519060200190610bbe929190610fe0565b506080820151816004019080519060200190610bdb929190610fe0565b509050505050505050565b600080600360009054906101000a900473ffffffffffffffffffffffffffffffffffffffff1673ffffffffffffffffffffffffffffffffffffffff1663c50c58cd846040518263ffffffff1660e01b8152600401610c449190611c0b565b604080518083038186803b158015610c5b57600080fd5b505afa158015610c6f573d6000803e3d6000fd5b505050506040513d601f19601f82011682018060405250810190610c939190611f53565b91509150915091565b6060600360009054906101000a900473ffffffffffffffffffffffffffffffffffffffff1673ffffffffffffffffffffffffffffffffffffffff1663a83243da836040518263ffffffff1660e01b8152600401610cf99190611c0b565b60006040518083038186803b158015610d1157600080fd5b505afa158015610d25573d6000803e3d6000fd5b505050506040513d6000823e3d601f19601f82011682018060405250810190610d4e9190611f0a565b9050919050565b600080600090505b6001600054610d6c919061242b565b811015610f3f5782604051602001610d8491906124bd565b6040516020818303038152906040528051906020012060046000838152602001908152602001600020600101604051602001610dc09190612568565b604051602081830303815290604052805190602001201480610e42575082604051602001610dee91906124bd565b6040516020818303038152906040528051906020012060046000838152602001908152602001600020600301604051602001610e2a9190612568565b60405160208183030381529060405280519060200120145b80610ead575082604051602001610e5991906124bd565b6040516020818303038152906040528051906020012060046000838152602001908152602001600020600201604051602001610e959190612568565b60405160208183030381529060405280519060200120145b80610f18575082604051602001610ec491906124bd565b6040516020818303038152906040528051906020012060046000838152602001908152602001600020600401604051602001610f009190612568565b60405160208183030381529060405280519060200120145b15610f2c578180610f28906125ae565b9250505b8080610f37906125ae565b915050610d5d565b50919050565b6040518061016001604052806000815260200160608152602001606081526020016060815260200160008152602001600081526020016000815260200160008152602001606081526020016060815260200160006004811115610fab57610faa6111ce565b5b81525090565b6040518060a0016040528060008152602001606081526020016060815260200160608152602001606081525090565b828054610fec906121c8565b90600052602060002090601f01602090048101928261100e5760008555611055565b82601f1061102757805160ff1916838001178555611055565b82800160010185558215611055579182015b82811115611054578251825591602001919060010190611039565b5b5090506110629190611066565b5090565b5b8082111561107f576000816000905550600101611067565b5090565b6000604051905090565b600080fd5b600080fd5b6000819050919050565b6110aa81611097565b81146110b557600080fd5b50565b6000813590506110c7816110a1565b92915050565b6000602082840312156110e3576110e261108d565b5b60006110f1848285016110b8565b91505092915050565b600081519050919050565b600082825260208201905092915050565b6000819050602082019050919050565b61112f81611097565b82525050565b600081519050919050565b600082825260208201905092915050565b60005b8381101561116f578082015181840152602081019050611154565b8381111561117e576000848401525b50505050565b6000601f19601f8301169050919050565b60006111a082611135565b6111aa8185611140565b93506111ba818560208601611151565b6111c381611184565b840191505092915050565b7f4e487b7100000000000000000000000000000000000000000000000000000000600052602160045260246000fd5b6008811061120e5761120d6111ce565b5b50565b600081905061121f826111fd565b919050565b600061122f82611211565b9050919050565b61123f81611224565b82525050565b60006101408301600083015161125e6000860182611126565b50602083015184820360208601526112768282611195565b915050604083015184820360408601526112908282611195565b91505060608301516112a56060860182611126565b5060808301516112b86080860182611126565b5060a08301516112cb60a0860182611126565b5060c08301516112de60c0860182611236565b5060e08301516112f160e0860182611126565b5061010083015184820361010086015261130b8282611195565b915050610120830151611322610120860182611126565b508091505092915050565b60006113398383611245565b905092915050565b6000602082019050919050565b6000611359826110fa565b6113638185611105565b93508360208202850161137585611116565b8060005b858110156113b15784840389528151611392858261132d565b945061139d83611341565b925060208a01995050600181019050611379565b50829750879550505050505092915050565b600060208201905081810360008301526113dd818461134e565b905092915050565b6113ee81611097565b82525050565b600060408201905061140960008301856113e5565b61141660208301846113e5565b9392505050565b6005811061142e5761142d6111ce565b5b50565b600081905061143f8261141d565b919050565b600061144f82611431565b9050919050565b61145f81611444565b82525050565b60006101608301600083015161147e6000860182611126565b50602083015184820360208601526114968282611195565b915050604083015184820360408601526114b08282611195565b915050606083015184820360608601526114ca8282611195565b91505060808301516114df6080860182611126565b5060a08301516114f260a0860182611126565b5060c083015161150560c0860182611126565b5060e083015161151860e0860182611126565b506101008301518482036101008601526115328282611195565b91505061012083015184820361012086015261154e8282611195565b915050610140830151611565610140860182611456565b508091505092915050565b6000602082019050818103600083015261158a8184611465565b905092915050565b600060a0830160008301516115aa6000860182611126565b50602083015184820360208601526115c28282611195565b915050604083015184820360408601526115dc8282611195565b915050606083015184820360608601526115f68282611195565b915050608083015184820360808601526116108282611195565b9150508091505092915050565b600060208201905081810360008301526116378184611592565b905092915050565b600081519050919050565b600082825260208201905092915050565b6000819050602082019050919050565b600060c0830160008301516116836000860182611126565b506020830151848203602086015261169b8282611195565b915050604083015184820360408601526116b58282611195565b91505060608301516116ca6060860182611126565b5060808301516116dd6080860182611126565b5060a08301516116f060a0860182611126565b508091505092915050565b6000611707838361166b565b905092915050565b6000602082019050919050565b60006117278261163f565b611731818561164a565b9350836020820285016117438561165b565b8060005b8581101561177f578484038952815161176085826116fb565b945061176b8361170f565b925060208a01995050600181019050611747565b50829750879550505050505092915050565b600060208201905081810360008301526117ab818461171c565b905092915050565b600080fd5b600080fd5b7f4e487b7100000000000000000000000000000000000000000000000000000000600052604160045260246000fd5b6117f582611184565b810181811067ffffffffffffffff82111715611814576118136117bd565b5b80604052505050565b6000611827611083565b905061183382826117ec565b919050565b600067ffffffffffffffff821115611853576118526117bd565b5b61185c82611184565b9050602081019050919050565b82818337600083830152505050565b600061188b61188684611838565b61181d565b9050828152602081018484840111156118a7576118a66117b8565b5b6118b2848285611869565b509392505050565b600082601f8301126118cf576118ce6117b3565b5b81356118df848260208601611878565b91505092915050565b6000602082840312156118fe576118fd61108d565b5b600082013567ffffffffffffffff81111561191c5761191b611092565b5b611928848285016118ba565b91505092915050565b600081519050919050565b600082825260208201905092915050565b6000819050602082019050919050565b6000610160830160008301516119766000860182611126565b506020830151848203602086015261198e8282611195565b915050604083015184820360408601526119a88282611195565b915050606083015184820360608601526119c28282611195565b91505060808301516119d76080860182611126565b5060a08301516119ea60a0860182611126565b5060c08301516119fd60c0860182611126565b5060e0830151611a1060e0860182611126565b50610100830151848203610100860152611a2a8282611195565b915050610120830151848203610120860152611a468282611195565b915050610140830151611a5d610140860182611456565b508091505092915050565b6000611a74838361195d565b905092915050565b6000602082019050919050565b6000611a9482611931565b611a9e818561193c565b935083602082028501611ab08561194d565b8060005b85811015611aec5784840389528151611acd8582611a68565b9450611ad883611a7c565b925060208a01995050600181019050611ab4565b50829750879550505050505092915050565b60006020820190508181036000830152611b188184611a89565b905092915050565b600080600080600060a08688031215611b3c57611b3b61108d565b5b6000611b4a888289016110b8565b955050602086013567ffffffffffffffff811115611b6b57611b6a611092565b5b611b77888289016118ba565b945050604086013567ffffffffffffffff811115611b9857611b97611092565b5b611ba4888289016118ba565b935050606086013567ffffffffffffffff811115611bc557611bc4611092565b5b611bd1888289016118ba565b925050608086013567ffffffffffffffff811115611bf257611bf1611092565b5b611bfe888289016118ba565b9150509295509295909350565b6000602082019050611c2060008301846113e5565b92915050565b600067ffffffffffffffff821115611c4157611c406117bd565b5b602082029050602081019050919050565b600080fd5b600080fd5b600080fd5b600081519050611c70816110a1565b92915050565b6000611c89611c8484611838565b61181d565b905082815260208101848484011115611ca557611ca46117b8565b5b611cb0848285611151565b509392505050565b600082601f830112611ccd57611ccc6117b3565b5b8151611cdd848260208601611c76565b91505092915050565b60088110611cf357600080fd5b50565b600081519050611d0581611ce6565b92915050565b60006101408284031215611d2257611d21611c57565b5b611d2d61014061181d565b90506000611d3d84828501611c61565b600083015250602082015167ffffffffffffffff811115611d6157611d60611c5c565b5b611d6d84828501611cb8565b602083015250604082015167ffffffffffffffff811115611d9157611d90611c5c565b5b611d9d84828501611cb8565b6040830152506060611db184828501611c61565b6060830152506080611dc584828501611c61565b60808301525060a0611dd984828501611c61565b60a08301525060c0611ded84828501611cf6565b60c08301525060e0611e0184828501611c61565b60e08301525061010082015167ffffffffffffffff811115611e2657611e25611c5c565b5b611e3284828501611cb8565b61010083015250610120611e4884828501611c61565b6101208301525092915050565b6000611e68611e6384611c26565b61181d565b90508083825260208201905060208402830185811115611e8b57611e8a611c52565b5b835b81811015611ed257805167ffffffffffffffff811115611eb057611eaf6117b3565b5b808601611ebd8982611d0b565b85526020850194505050602081019050611e8d565b5050509392505050565b600082601f830112611ef157611ef06117b3565b5b8151611f01848260208601611e55565b91505092915050565b600060208284031215611f2057611f1f61108d565b5b600082015167ffffffffffffffff811115611f3e57611f3d611092565b5b611f4a84828501611edc565b91505092915050565b60008060408385031215611f6a57611f6961108d565b5b6000611f7885828601611c61565b9250506020611f8985828601611c61565b9150509250929050565b60058110611fa057600080fd5b50565b600081519050611fb281611f93565b92915050565b60006101608284031215611fcf57611fce611c57565b5b611fda61016061181d565b90506000611fea84828501611c61565b600083015250602082015167ffffffffffffffff81111561200e5761200d611c5c565b5b61201a84828501611cb8565b602083015250604082015167ffffffffffffffff81111561203e5761203d611c5c565b5b61204a84828501611cb8565b604083015250606082015167ffffffffffffffff81111561206e5761206d611c5c565b5b61207a84828501611cb8565b606083015250608061208e84828501611c61565b60808301525060a06120a284828501611c61565b60a08301525060c06120b684828501611c61565b60c08301525060e06120ca84828501611c61565b60e08301525061010082015167ffffffffffffffff8111156120ef576120ee611c5c565b5b6120fb84828501611cb8565b6101008301525061012082015167ffffffffffffffff81111561212157612120611c5c565b5b61212d84828501611cb8565b6101208301525061014061214384828501611fa3565b6101408301525092915050565b6000602082840312156121665761216561108d565b5b600082015167ffffffffffffffff81111561218457612183611092565b5b61219084828501611fb8565b91505092915050565b7f4e487b7100000000000000000000000000000000000000000000000000000000600052602260045260246000fd5b600060028204905060018216806121e057607f821691505b602082108114156121f4576121f3612199565b5b50919050565b600067ffffffffffffffff821115612215576122146117bd565b5b602082029050602081019050919050565b600060c0828403121561223c5761223b611c57565b5b61224660c061181d565b9050600061225684828501611c61565b600083015250602082015167ffffffffffffffff81111561227a57612279611c5c565b5b61228684828501611cb8565b602083015250604082015167ffffffffffffffff8111156122aa576122a9611c5c565b5b6122b684828501611cb8565b60408301525060606122ca84828501611c61565b60608301525060806122de84828501611c61565b60808301525060a06122f284828501611c61565b60a08301525092915050565b600061231161230c846121fa565b61181d565b9050808382526020820190506020840283018581111561233457612333611c52565b5b835b8181101561237b57805167ffffffffffffffff811115612359576123586117b3565b5b8086016123668982612226565b85526020850194505050602081019050612336565b5050509392505050565b600082601f83011261239a576123996117b3565b5b81516123aa8482602086016122fe565b91505092915050565b6000602082840312156123c9576123c861108d565b5b600082015167ffffffffffffffff8111156123e7576123e6611092565b5b6123f384828501612385565b91505092915050565b7f4e487b7100000000000000000000000000000000000000000000000000000000600052601160045260246000fd5b600061243682611097565b915061244183611097565b9250827fffffffffffffffffffffffffffffffffffffffffffffffffffffffffffffffff03821115612476576124756123fc565b5b828201905092915050565b600081905092915050565b600061249782611135565b6124a18185612481565b93506124b1818560208601611151565b80840191505092915050565b60006124c9828461248c565b915081905092915050565b60008190508160005260206000209050919050565b600081546124f6816121c8565b6125008186612481565b9450600182166000811461251b576001811461252c5761255f565b60ff1983168652818601935061255f565b612535856124d4565b60005b8381101561255757815481890152600182019150602081019050612538565b838801955050505b50505092915050565b600061257482846124e9565b915081905092915050565b7f4e487b7100000000000000000000000000000000000000000000000000000000600052603260045260246000fd5b60006125b982611097565b91507fffffffffffffffffffffffffffffffffffffffffffffffffffffffffffffffff8214156125ec576125eb6123fc565b5b60018201905091905056fea2646970667358221220f3e7e9daff18943f5afef0b88dec7750026cd39ca6165e92eb2b8e9fcdfad8c164736f6c63430008090033",
  "immutableReferences": {},
  "source": "//SPDX-License-Identifier: MIT\n\npragma solidity ^0.8;\n// pragma experimental ABIEncoderV2;\nimport \"./Project.sol\";\nimport \"./SubProject.sol\";\nimport \"./Task.sol\";\n\ncontract ProjectUserMapping {\n    uint256 private count;\n    Project _projectAccessor;\n    SubProject _subprojectAccessor;\n    Task _taskAccessor;\n\n    constructor(\n        address _projectAddress,\n        address _subProjectAddress,\n        address _taskAddress\n    ) {\n        count = 0;\n        _projectAccessor = Project(_projectAddress);\n        _subprojectAccessor = SubProject(_subProjectAddress);\n        _taskAccessor = Task(_taskAddress);\n    }\n\n    // constructor() {\n    //     count = 0;\n    // }\n    struct MappingInfo {\n        uint256 projectId;\n        string financialOfficerUsername;\n        string projectManagerUsernmae;\n        string budgetAndProcurementManagerUsername;\n        string externalAuditorUsername;\n    }\n\n    event ProjectMapped(\n        uint256 projectId,\n        string financialOfficerUsername,\n        string projectManagerUsernmae,\n        string budgetAndProcurementManagerUsername,\n        string externalAuditorUsername\n    );\n\n    mapping(uint256 => MappingInfo) private userProjectMappings;\n\n    /*\n    TODO only technical admin modifier\n    This functions used to add project and users mapping to the blocks.\n    */\n    function addMapping(\n        uint256 projectId,\n        string memory financialOfficerUsername,\n        string memory projectManagerUsernmae,\n        string memory budgetAndProcurementManagerUsername,\n        string memory externalAuditorUsername\n    ) public {\n        count += 1;\n        userProjectMappings[projectId] = MappingInfo(\n            projectId,\n            financialOfficerUsername,\n            projectManagerUsernmae,\n            budgetAndProcurementManagerUsername,\n            externalAuditorUsername\n        );\n    }\n\n    /*\n    As we cannot create dynamic array which we can push to, we should use this function to return the length of projects\n    the user is being participated\n    */\n    function getProjectCount(string memory _username)\n        internal\n        view\n        returns (uint256 length)\n    {\n        for (uint256 index = 0; index < count + 1; index++) {\n            if (\n                keccak256(\n                    abi.encodePacked(\n                        userProjectMappings[index].financialOfficerUsername\n                    )\n                ) ==\n                keccak256(abi.encodePacked(_username)) ||\n                keccak256(\n                    abi.encodePacked(\n                        userProjectMappings[index]\n                            .budgetAndProcurementManagerUsername\n                    )\n                ) ==\n                keccak256(abi.encodePacked(_username)) ||\n                keccak256(\n                    abi.encodePacked(\n                        userProjectMappings[index].projectManagerUsernmae\n                    )\n                ) ==\n                keccak256(abi.encodePacked(_username)) ||\n                keccak256(\n                    abi.encodePacked(\n                        userProjectMappings[index].externalAuditorUsername\n                    )\n                ) ==\n                keccak256(abi.encodePacked(_username))\n            ) {\n                length++;\n            }\n        }\n    }\n\n    /*\n    This function returns project using project id\n    */\n    function getProjectByIdFromMapping(uint256 _id)\n        public\n        view\n        returns (Project.ProjectInfo memory)\n    {\n        return _projectAccessor.getProjectById(_id);\n    }\n\n    /*\n    This function returns array of project ids so we can iterate over them and get projects\n    */\n    function getProjectsListByUsername(string memory _username)\n        public\n        view\n        returns (Project.ProjectInfo[] memory)\n    {\n        uint256 length = getProjectCount(_username);\n        Project.ProjectInfo[] memory projects = new Project.ProjectInfo[](\n            length\n        );\n        uint256 counter = 0;\n        for (uint256 index = 1; index < count + 1; index++) {\n            if (\n                keccak256(\n                    abi.encodePacked(\n                        userProjectMappings[index].financialOfficerUsername\n                    )\n                ) ==\n                keccak256(abi.encodePacked(_username)) ||\n                keccak256(\n                    abi.encodePacked(\n                        userProjectMappings[index]\n                            .budgetAndProcurementManagerUsername\n                    )\n                ) ==\n                keccak256(abi.encodePacked(_username)) ||\n                keccak256(\n                    abi.encodePacked(\n                        userProjectMappings[index].projectManagerUsernmae\n                    )\n                ) ==\n                keccak256(abi.encodePacked(_username)) ||\n                keccak256(\n                    abi.encodePacked(\n                        userProjectMappings[index].externalAuditorUsername\n                    )\n                ) ==\n                keccak256(abi.encodePacked(_username))\n            ) {\n                projects[counter] = getProjectByIdFromMapping(\n                    userProjectMappings[index].projectId\n                );\n                counter++;\n                // projects.push(userProjectMappings[index].projectId);\n            }\n        }\n        return projects;\n    }\n\n    function getSubProjectListByProjectId(uint256 _projectId)\n        public\n        view\n        returns (SubProject.SubProjectInfo[] memory)\n    {\n        return _subprojectAccessor.getSubProjectsListByProjectId(_projectId);\n    }\n\n    function getMappingById(uint256 _id)\n        public\n        view\n        returns (MappingInfo memory)\n    {\n        return userProjectMappings[_id];\n    }\n\n    /*\n    TODO - add only technical admin flag\n    */\n    function getAllSubProjects()\n        public\n        view\n        returns (SubProject.SubProjectInfo[] memory)\n    {\n        return _subprojectAccessor.getAllSubProjects();\n    }\n\n    function getTaskListByProjectId(uint256 _projectId)\n        public\n        view\n        returns (Task.TaskInfo[] memory)\n    {\n        return _taskAccessor.getTasksListFromProjectId(_projectId);\n    }\n\n    function getTaskListBySubProject(uint256 _projectId)\n        public\n        view\n        returns (Task.TaskInfo[] memory)\n    {\n        return _taskAccessor.getTasksListFromSubProjectId(_projectId);\n    }\n\n    function getTaskStatusByProjectId(uint256 _projectId)\n        public\n        view\n        returns (uint256 approved, uint256 unapproved)\n    {\n        return _taskAccessor.getTaskStatusByProjectId(_projectId);\n    }\n\n    function getTaskStatusBySubProjectId(uint256 _subProjectId)\n        public\n        view\n        returns (uint256 approved, uint256 unapproved)\n    {\n        return _taskAccessor.getTaskStatusBySubProjectId(_subProjectId);\n    }\n}\n",
  "sourcePath": "/home/jeremy/Desktop/fets_front_end/src/contracts/project_management/ProjectUserMapping.sol",
  "compiler": {
    "name": "solc",
    "version": "0.8.9+commit.e5eed63a.Emscripten.clang"
  },
  "schemaVersion": "3.4.3",
  "updatedAt": "2022-06-17T08:47:38.887Z",
  "networkType": "ethereum",
  "devdoc": {
    "kind": "dev",
    "methods": {},
    "version": 1
  },
  "userdoc": {
    "kind": "user",
    "methods": {},
    "version": 1
  }
}