{
  "contractName": "Project",
  "abi": [
    {
      "inputs": [],
      "stateMutability": "nonpayable",
      "type": "constructor"
    },
    {
      "anonymous": false,
      "inputs": [
        {
          "indexed": true,
          "internalType": "uint256",
          "name": "id",
          "type": "uint256"
        },
        {
          "indexed": true,
          "internalType": "string",
          "name": "name",
          "type": "string"
        },
        {
          "indexed": false,
          "internalType": "string",
          "name": "description",
          "type": "string"
        },
        {
          "indexed": false,
          "internalType": "string",
          "name": "location",
          "type": "string"
        },
        {
          "indexed": false,
          "internalType": "uint256",
          "name": "estimatedBudget",
          "type": "uint256"
        },
        {
          "indexed": false,
          "internalType": "uint256",
          "name": "estimatedDuration",
          "type": "uint256"
        },
        {
          "indexed": false,
          "internalType": "uint256",
          "name": "fundedMoney",
          "type": "uint256"
        },
        {
          "indexed": false,
          "internalType": "uint256",
          "name": "createdAt",
          "type": "uint256"
        },
        {
          "indexed": true,
          "internalType": "string",
          "name": "companyId",
          "type": "string"
        },
        {
          "indexed": false,
          "internalType": "string",
          "name": "accountNumber",
          "type": "string"
        },
        {
          "indexed": false,
          "internalType": "enum Project.ProjectStatus",
          "name": "status",
          "type": "uint8"
        }
      ],
      "name": "AddedProject",
      "type": "event"
    },
    {
      "anonymous": false,
      "inputs": [
        {
          "indexed": true,
          "internalType": "uint256",
          "name": "id",
          "type": "uint256"
        },
        {
          "indexed": true,
          "internalType": "string",
          "name": "name",
          "type": "string"
        },
        {
          "indexed": false,
          "internalType": "string",
          "name": "description",
          "type": "string"
        },
        {
          "indexed": false,
          "internalType": "string",
          "name": "location",
          "type": "string"
        },
        {
          "indexed": false,
          "internalType": "uint256",
          "name": "estimatedBudget",
          "type": "uint256"
        },
        {
          "indexed": false,
          "internalType": "uint256",
          "name": "estimatedDuration",
          "type": "uint256"
        },
        {
          "indexed": false,
          "internalType": "uint256",
          "name": "fundedMoney",
          "type": "uint256"
        },
        {
          "indexed": false,
          "internalType": "uint256",
          "name": "createdAt",
          "type": "uint256"
        },
        {
          "indexed": true,
          "internalType": "string",
          "name": "companyId",
          "type": "string"
        },
        {
          "indexed": false,
          "internalType": "string",
          "name": "accountNumber",
          "type": "string"
        },
        {
          "indexed": false,
          "internalType": "enum Project.ProjectStatus",
          "name": "status",
          "type": "uint8"
        }
      ],
      "name": "DeletedProject",
      "type": "event"
    },
    {
      "inputs": [
        {
          "internalType": "string",
          "name": "name",
          "type": "string"
        },
        {
          "internalType": "string",
          "name": "description",
          "type": "string"
        },
        {
          "internalType": "string",
          "name": "location",
          "type": "string"
        },
        {
          "internalType": "uint256",
          "name": "estimatedBudget",
          "type": "uint256"
        },
        {
          "internalType": "uint256",
          "name": "estimatedDuration",
          "type": "uint256"
        },
        {
          "internalType": "string",
          "name": "companyId",
          "type": "string"
        },
        {
          "internalType": "string",
          "name": "accountNumber",
          "type": "string"
        }
      ],
      "name": "addProject",
      "outputs": [],
      "stateMutability": "nonpayable",
      "type": "function"
    },
    {
      "inputs": [
        {
          "internalType": "uint256",
          "name": "_id",
          "type": "uint256"
        }
      ],
      "name": "deleteProject",
      "outputs": [],
      "stateMutability": "nonpayable",
      "type": "function"
    },
    {
      "inputs": [
        {
          "internalType": "uint256",
          "name": "_id",
          "type": "uint256"
        }
      ],
      "name": "getProjectById",
      "outputs": [
        {
          "components": [
            {
              "internalType": "uint256",
              "name": "id",
              "type": "uint256"
            },
            {
              "internalType": "string",
              "name": "name",
              "type": "string"
            },
            {
              "internalType": "string",
              "name": "description",
              "type": "string"
            },
            {
              "internalType": "string",
              "name": "location",
              "type": "string"
            },
            {
              "internalType": "uint256",
              "name": "estimatedBudget",
              "type": "uint256"
            },
            {
              "internalType": "uint256",
              "name": "fundedMoney",
              "type": "uint256"
            },
            {
              "internalType": "uint256",
              "name": "estimatedDuration",
              "type": "uint256"
            },
            {
              "internalType": "uint256",
              "name": "createdAt",
              "type": "uint256"
            },
            {
              "internalType": "string",
              "name": "companyId",
              "type": "string"
            },
            {
              "internalType": "string",
              "name": "accountNumber",
              "type": "string"
            },
            {
              "internalType": "enum Project.ProjectStatus",
              "name": "status",
              "type": "uint8"
            }
          ],
          "internalType": "struct Project.ProjectInfo",
          "name": "",
          "type": "tuple"
        }
      ],
      "stateMutability": "view",
      "type": "function",
      "constant": true
    },
    {
      "inputs": [],
      "name": "getAllProjects",
      "outputs": [
        {
          "components": [
            {
              "internalType": "uint256",
              "name": "id",
              "type": "uint256"
            },
            {
              "internalType": "string",
              "name": "name",
              "type": "string"
            },
            {
              "internalType": "string",
              "name": "description",
              "type": "string"
            },
            {
              "internalType": "string",
              "name": "location",
              "type": "string"
            },
            {
              "internalType": "uint256",
              "name": "estimatedBudget",
              "type": "uint256"
            },
            {
              "internalType": "uint256",
              "name": "fundedMoney",
              "type": "uint256"
            },
            {
              "internalType": "uint256",
              "name": "estimatedDuration",
              "type": "uint256"
            },
            {
              "internalType": "uint256",
              "name": "createdAt",
              "type": "uint256"
            },
            {
              "internalType": "string",
              "name": "companyId",
              "type": "string"
            },
            {
              "internalType": "string",
              "name": "accountNumber",
              "type": "string"
            },
            {
              "internalType": "enum Project.ProjectStatus",
              "name": "status",
              "type": "uint8"
            }
          ],
          "internalType": "struct Project.ProjectInfo[]",
          "name": "",
          "type": "tuple[]"
        }
      ],
      "stateMutability": "view",
      "type": "function",
      "constant": true
    }
  ],
  "bytecode": "0x608060405234801561001057600080fd5b5060008081905550611707806100276000396000f3fe608060405234801561001057600080fd5b506004361061004c5760003560e01c80634cd0cb28146100515780637fdd45dc1461006d57806380d0382914610089578063bee5cdca146100a7575b600080fd5b61006b60048036038101906100669190610d15565b6100d7565b005b61008760048036038101906100829190610e88565b61017c565b005b610091610381565b60405161009e9190611291565b60405180910390f35b6100c160048036038101906100bc9190610d15565b610807565b6040516100ce91906113be565b60405180910390f35b600160008281526020019081526020016000206000808201600090556001820160006101039190610b7c565b6002820160006101139190610b7c565b6003820160006101239190610b7c565b60048201600090556005820160009055600682016000905560078201600090556008820160006101539190610b7c565b6009820160006101639190610b7c565b600a820160006101000a81549060ff0219169055505050565b60008081548092919061018e9061140f565b9190505550604051806101600160405280600054815260200188815260200187815260200186815260200185815260200160008152602001848152602001428152602001838152602001828152602001600060048111156101f2576101f1611079565b5b815250600160008054815260200190815260200160002060008201518160000155602082015181600101908051906020019061022f929190610bbc565b50604082015181600201908051906020019061024c929190610bbc565b506060820151816003019080519060200190610269929190610bbc565b506080820151816004015560a0820151816005015560c0820151816006015560e082015181600701556101008201518160080190805190602001906102af929190610bbc565b506101208201518160090190805190602001906102cd929190610bbc565b5061014082015181600a0160006101000a81548160ff021916908360048111156102fa576102f9611079565b5b0217905550905050816040516103109190611494565b6040518091039020876040516103269190611494565b60405180910390206000547f0e9749c08d7a6ba465fd5dcc39278788a16455c3d467d09018c1695c5b39ca9a898989896000428a6000604051610370989796959493929190611558565b60405180910390a450505050505050565b6060600080600090505b600160005461039a91906115eb565b8110156103e15760006001600083815260200190815260200160002060000154146103ce5781806103ca9061140f565b9250505b80806103d99061140f565b91505061038b565b5060008167ffffffffffffffff8111156103fe576103fd610d5d565b5b60405190808252806020026020018201604052801561043757816020015b610424610c42565b81526020019060019003908161041c5790505b509050600080600190505b600160005461045191906115eb565b8110156107fd5760016000828152602001908152602001600020604051806101600160405290816000820154815260200160018201805461049190611670565b80601f01602080910402602001604051908101604052809291908181526020018280546104bd90611670565b801561050a5780601f106104df5761010080835404028352916020019161050a565b820191906000526020600020905b8154815290600101906020018083116104ed57829003601f168201915b5050505050815260200160028201805461052390611670565b80601f016020809104026020016040519081016040528092919081815260200182805461054f90611670565b801561059c5780601f106105715761010080835404028352916020019161059c565b820191906000526020600020905b81548152906001019060200180831161057f57829003601f168201915b505050505081526020016003820180546105b590611670565b80601f01602080910402602001604051908101604052809291908181526020018280546105e190611670565b801561062e5780601f106106035761010080835404028352916020019161062e565b820191906000526020600020905b81548152906001019060200180831161061157829003601f168201915b505050505081526020016004820154815260200160058201548152602001600682015481526020016007820154815260200160088201805461066f90611670565b80601f016020809104026020016040519081016040528092919081815260200182805461069b90611670565b80156106e85780601f106106bd576101008083540402835291602001916106e8565b820191906000526020600020905b8154815290600101906020018083116106cb57829003601f168201915b5050505050815260200160098201805461070190611670565b80601f016020809104026020016040519081016040528092919081815260200182805461072d90611670565b801561077a5780601f1061074f5761010080835404028352916020019161077a565b820191906000526020600020905b81548152906001019060200180831161075d57829003601f168201915b50505050508152602001600a820160009054906101000a900460ff1660048111156107a8576107a7611079565b5b60048111156107ba576107b9611079565b5b815250508383815181106107d1576107d06116a2565b5b602002602001018190525081806107e79061140f565b92505080806107f59061140f565b915050610442565b5081935050505090565b61080f610c42565b60016000838152602001908152602001600020604051806101600160405290816000820154815260200160018201805461084890611670565b80601f016020809104026020016040519081016040528092919081815260200182805461087490611670565b80156108c15780601f10610896576101008083540402835291602001916108c1565b820191906000526020600020905b8154815290600101906020018083116108a457829003601f168201915b505050505081526020016002820180546108da90611670565b80601f016020809104026020016040519081016040528092919081815260200182805461090690611670565b80156109535780601f1061092857610100808354040283529160200191610953565b820191906000526020600020905b81548152906001019060200180831161093657829003601f168201915b5050505050815260200160038201805461096c90611670565b80601f016020809104026020016040519081016040528092919081815260200182805461099890611670565b80156109e55780601f106109ba576101008083540402835291602001916109e5565b820191906000526020600020905b8154815290600101906020018083116109c857829003601f168201915b5050505050815260200160048201548152602001600582015481526020016006820154815260200160078201548152602001600882018054610a2690611670565b80601f0160208091040260200160405190810160405280929190818152602001828054610a5290611670565b8015610a9f5780601f10610a7457610100808354040283529160200191610a9f565b820191906000526020600020905b815481529060010190602001808311610a8257829003601f168201915b50505050508152602001600982018054610ab890611670565b80601f0160208091040260200160405190810160405280929190818152602001828054610ae490611670565b8015610b315780601f10610b0657610100808354040283529160200191610b31565b820191906000526020600020905b815481529060010190602001808311610b1457829003601f168201915b50505050508152602001600a820160009054906101000a900460ff166004811115610b5f57610b5e611079565b5b6004811115610b7157610b70611079565b5b815250509050919050565b508054610b8890611670565b6000825580601f10610b9a5750610bb9565b601f016020900490600052602060002090810190610bb89190610cae565b5b50565b828054610bc890611670565b90600052602060002090601f016020900481019282610bea5760008555610c31565b82601f10610c0357805160ff1916838001178555610c31565b82800160010185558215610c31579182015b82811115610c30578251825591602001919060010190610c15565b5b509050610c3e9190610cae565b5090565b6040518061016001604052806000815260200160608152602001606081526020016060815260200160008152602001600081526020016000815260200160008152602001606081526020016060815260200160006004811115610ca857610ca7611079565b5b81525090565b5b80821115610cc7576000816000905550600101610caf565b5090565b6000604051905090565b600080fd5b600080fd5b6000819050919050565b610cf281610cdf565b8114610cfd57600080fd5b50565b600081359050610d0f81610ce9565b92915050565b600060208284031215610d2b57610d2a610cd5565b5b6000610d3984828501610d00565b91505092915050565b600080fd5b600080fd5b6000601f19601f8301169050919050565b7f4e487b7100000000000000000000000000000000000000000000000000000000600052604160045260246000fd5b610d9582610d4c565b810181811067ffffffffffffffff82111715610db457610db3610d5d565b5b80604052505050565b6000610dc7610ccb565b9050610dd38282610d8c565b919050565b600067ffffffffffffffff821115610df357610df2610d5d565b5b610dfc82610d4c565b9050602081019050919050565b82818337600083830152505050565b6000610e2b610e2684610dd8565b610dbd565b905082815260208101848484011115610e4757610e46610d47565b5b610e52848285610e09565b509392505050565b600082601f830112610e6f57610e6e610d42565b5b8135610e7f848260208601610e18565b91505092915050565b600080600080600080600060e0888a031215610ea757610ea6610cd5565b5b600088013567ffffffffffffffff811115610ec557610ec4610cda565b5b610ed18a828b01610e5a565b975050602088013567ffffffffffffffff811115610ef257610ef1610cda565b5b610efe8a828b01610e5a565b965050604088013567ffffffffffffffff811115610f1f57610f1e610cda565b5b610f2b8a828b01610e5a565b9550506060610f3c8a828b01610d00565b9450506080610f4d8a828b01610d00565b93505060a088013567ffffffffffffffff811115610f6e57610f6d610cda565b5b610f7a8a828b01610e5a565b92505060c088013567ffffffffffffffff811115610f9b57610f9a610cda565b5b610fa78a828b01610e5a565b91505092959891949750929550565b600081519050919050565b600082825260208201905092915050565b6000819050602082019050919050565b610feb81610cdf565b82525050565b600081519050919050565b600082825260208201905092915050565b60005b8381101561102b578082015181840152602081019050611010565b8381111561103a576000848401525b50505050565b600061104b82610ff1565b6110558185610ffc565b935061106581856020860161100d565b61106e81610d4c565b840191505092915050565b7f4e487b7100000000000000000000000000000000000000000000000000000000600052602160045260246000fd5b600581106110b9576110b8611079565b5b50565b60008190506110ca826110a8565b919050565b60006110da826110bc565b9050919050565b6110ea816110cf565b82525050565b6000610160830160008301516111096000860182610fe2565b50602083015184820360208601526111218282611040565b9150506040830151848203604086015261113b8282611040565b915050606083015184820360608601526111558282611040565b915050608083015161116a6080860182610fe2565b5060a083015161117d60a0860182610fe2565b5060c083015161119060c0860182610fe2565b5060e08301516111a360e0860182610fe2565b506101008301518482036101008601526111bd8282611040565b9150506101208301518482036101208601526111d98282611040565b9150506101408301516111f06101408601826110e1565b508091505092915050565b600061120783836110f0565b905092915050565b6000602082019050919050565b600061122782610fb6565b6112318185610fc1565b93508360208202850161124385610fd2565b8060005b8581101561127f578484038952815161126085826111fb565b945061126b8361120f565b925060208a01995050600181019050611247565b50829750879550505050505092915050565b600060208201905081810360008301526112ab818461121c565b905092915050565b6000610160830160008301516112cc6000860182610fe2565b50602083015184820360208601526112e48282611040565b915050604083015184820360408601526112fe8282611040565b915050606083015184820360608601526113188282611040565b915050608083015161132d6080860182610fe2565b5060a083015161134060a0860182610fe2565b5060c083015161135360c0860182610fe2565b5060e083015161136660e0860182610fe2565b506101008301518482036101008601526113808282611040565b91505061012083015184820361012086015261139c8282611040565b9150506101408301516113b36101408601826110e1565b508091505092915050565b600060208201905081810360008301526113d881846112b3565b905092915050565b7f4e487b7100000000000000000000000000000000000000000000000000000000600052601160045260246000fd5b600061141a82610cdf565b91507fffffffffffffffffffffffffffffffffffffffffffffffffffffffffffffffff82141561144d5761144c6113e0565b5b600182019050919050565b600081905092915050565b600061146e82610ff1565b6114788185611458565b935061148881856020860161100d565b80840191505092915050565b60006114a08284611463565b915081905092915050565b600082825260208201905092915050565b60006114c782610ff1565b6114d181856114ab565b93506114e181856020860161100d565b6114ea81610d4c565b840191505092915050565b6114fe81610cdf565b82525050565b6000819050919050565b6000819050919050565b600061153361152e61152984611504565b61150e565b610cdf565b9050919050565b61154381611518565b82525050565b611552816110cf565b82525050565b6000610100820190508181036000830152611573818b6114bc565b90508181036020830152611587818a6114bc565b905061159660408301896114f5565b6115a360608301886114f5565b6115b0608083018761153a565b6115bd60a08301866114f5565b81810360c08301526115cf81856114bc565b90506115de60e0830184611549565b9998505050505050505050565b60006115f682610cdf565b915061160183610cdf565b9250827fffffffffffffffffffffffffffffffffffffffffffffffffffffffffffffffff03821115611636576116356113e0565b5b828201905092915050565b7f4e487b7100000000000000000000000000000000000000000000000000000000600052602260045260246000fd5b6000600282049050600182168061168857607f821691505b6020821081141561169c5761169b611641565b5b50919050565b7f4e487b7100000000000000000000000000000000000000000000000000000000600052603260045260246000fdfea2646970667358221220edf98a17dac8eaf60356ce3bfa7cf1459138e7f50659c41d24e5433e5f8ebe0964736f6c63430008090033",
  "immutableReferences": {},
  "source": "// SPDX-License-Identifier: MIT\n\npragma solidity ^0.8;\n\ncontract Project {\n    uint256 private count;\n\n    constructor() {\n        count = 0;\n    }\n\n    enum ProjectStatus {\n        PENDING,\n        STARTED,\n        COMPLETED,\n        CANCELLED,\n        PAUSED\n    }\n\n    struct ProjectInfo {\n        uint256 id;\n        string name;\n        string description;\n        string location;\n        uint256 estimatedBudget;\n        uint256 fundedMoney;\n        uint256 estimatedDuration;\n        uint256 createdAt;\n        string companyId;\n        string accountNumber;\n        ProjectStatus status;\n    }\n\n    event AddedProject(\n        uint256 indexed id,\n        string indexed name,\n        string description,\n        string location,\n        uint256 estimatedBudget,\n        uint256 estimatedDuration,\n        uint256 fundedMoney,\n        uint256 createdAt,\n        string indexed companyId,\n        string accountNumber,\n        ProjectStatus status\n    );\n\n    event DeletedProject(\n        uint256 indexed id,\n        string indexed name,\n        string description,\n        string location,\n        uint256 estimatedBudget,\n        uint256 estimatedDuration,\n        uint256 fundedMoney,\n        uint256 createdAt,\n        string indexed companyId,\n        string accountNumber,\n        ProjectStatus status\n    );\n\n    mapping(uint256 => ProjectInfo) private projects;\n\n    // add onlyTechnicalAdmin modifier to it\n    function addProject(\n        string memory name,\n        string memory description,\n        string memory location,\n        uint256 estimatedBudget,\n        uint256 estimatedDuration,\n        string memory companyId,\n        string memory accountNumber\n    ) public {\n        count++;\n\n        projects[count] = ProjectInfo(\n            count,\n            name,\n            description,\n            location,\n            estimatedBudget,\n            0,\n            estimatedDuration,\n            block.timestamp,\n            companyId,\n            accountNumber,\n            ProjectStatus.PENDING\n        );\n        emit AddedProject(\n            count,\n            name,\n            description,\n            location,\n            estimatedBudget,\n            estimatedDuration,\n            0,\n            block.timestamp,\n            companyId,\n            accountNumber,\n            ProjectStatus.PENDING\n        );\n    }\n\n    function deleteProject(uint256 _id) public {\n        delete projects[_id];\n    }\n\n    //TODO - when a user asks for projects return subproject and tasks tied\n    function getProjectById(uint256 _id) public view returns (ProjectInfo memory){\n            return projects[_id];\n    }\n\n         /*\n    This function returns array of subprojects so we can iterate over them\n    */\n    function getAllProjects() public view returns(ProjectInfo[] memory) {\n        uint256 length;\n        for (uint256 index = 0; index < count + 1; index++) {\n            if(projects[index].id != 0) {\n                    length++;\n            }\n        }\n        ProjectInfo[] memory sp = new ProjectInfo[](length);\n        uint256 counter = 0;\n        for (uint256 index = 1; index < count + 1; index++) {\n            sp[counter] = projects[index];\n            counter++;\n        }\n        return sp;\n    }\n}\n",
  "sourcePath": "/home/bone/WebProjects/fets_front_end/src/contracts/project_management/Project.sol",
  "compiler": {
    "name": "solc",
    "version": "0.8.9+commit.e5eed63a.Emscripten.clang"
  },
  "schemaVersion": "3.4.7",
  "updatedAt": "2022-06-03T07:50:40.985Z",
  "networkType": "ethereum",
  "devdoc": {
    "kind": "dev",
    "methods": {},
    "version": 1
  },
  "userdoc": {
    "kind": "user",
    "methods": {},
    "version": 1
  }
}