{
  "contractName": "SubProject",
  "abi": [
    {
      "anonymous": false,
      "inputs": [
        {
          "indexed": true,
          "internalType": "uint256",
          "name": "id",
          "type": "uint256"
        },
        {
          "indexed": true,
          "internalType": "string",
          "name": "name",
          "type": "string"
        },
        {
          "indexed": false,
          "internalType": "string",
          "name": "description",
          "type": "string"
        },
        {
          "indexed": true,
          "internalType": "uint256",
          "name": "projectId",
          "type": "uint256"
        },
        {
          "indexed": false,
          "internalType": "uint256",
          "name": "estimatedDuration",
          "type": "uint256"
        },
        {
          "indexed": false,
          "internalType": "uint256",
          "name": "createdAt",
          "type": "uint256"
        }
      ],
      "name": "AddedSubProject",
      "type": "event"
    },
    {
      "inputs": [
        {
          "internalType": "string",
          "name": "name",
          "type": "string"
        },
        {
          "internalType": "string",
          "name": "description",
          "type": "string"
        },
        {
          "internalType": "uint256",
          "name": "projectId",
          "type": "uint256"
        },
        {
          "internalType": "uint256",
          "name": "estimatedDuration",
          "type": "uint256"
        }
      ],
      "name": "addSubProject",
      "outputs": [],
      "stateMutability": "nonpayable",
      "type": "function"
    },
    {
      "inputs": [
        {
          "internalType": "uint256",
          "name": "_id",
          "type": "uint256"
        }
      ],
      "name": "getSubProjectById",
      "outputs": [
        {
          "internalType": "uint256",
          "name": "id",
          "type": "uint256"
        },
        {
          "internalType": "string",
          "name": "name",
          "type": "string"
        },
        {
          "internalType": "string",
          "name": "description",
          "type": "string"
        },
        {
          "internalType": "uint256",
          "name": "projectId",
          "type": "uint256"
        },
        {
          "internalType": "uint256",
          "name": "estimatedDuration",
          "type": "uint256"
        },
        {
          "internalType": "uint256",
          "name": "createdAt",
          "type": "uint256"
        }
      ],
      "stateMutability": "view",
      "type": "function",
      "constant": true
    },
    {
      "inputs": [
        {
          "internalType": "uint256",
          "name": "id",
          "type": "uint256"
        }
      ],
      "name": "deleteSubProject",
      "outputs": [],
      "stateMutability": "nonpayable",
      "type": "function"
    },
    {
      "inputs": [
        {
          "internalType": "uint256",
          "name": "_id",
          "type": "uint256"
        }
      ],
      "name": "getSubProjectsListByProjectId",
      "outputs": [
        {
          "components": [
            {
              "internalType": "uint256",
              "name": "id",
              "type": "uint256"
            },
            {
              "internalType": "string",
              "name": "name",
              "type": "string"
            },
            {
              "internalType": "string",
              "name": "description",
              "type": "string"
            },
            {
              "internalType": "uint256",
              "name": "projectId",
              "type": "uint256"
            },
            {
              "internalType": "uint256",
              "name": "estimatedDuration",
              "type": "uint256"
            },
            {
              "internalType": "uint256",
              "name": "createdAt",
              "type": "uint256"
            }
          ],
          "internalType": "struct SubProject.SubProjectInfo[]",
          "name": "",
          "type": "tuple[]"
        }
      ],
      "stateMutability": "view",
      "type": "function",
      "constant": true
    },
    {
      "inputs": [],
      "name": "getAllSubProjects",
      "outputs": [
        {
          "components": [
            {
              "internalType": "uint256",
              "name": "id",
              "type": "uint256"
            },
            {
              "internalType": "string",
              "name": "name",
              "type": "string"
            },
            {
              "internalType": "string",
              "name": "description",
              "type": "string"
            },
            {
              "internalType": "uint256",
              "name": "projectId",
              "type": "uint256"
            },
            {
              "internalType": "uint256",
              "name": "estimatedDuration",
              "type": "uint256"
            },
            {
              "internalType": "uint256",
              "name": "createdAt",
              "type": "uint256"
            }
          ],
          "internalType": "struct SubProject.SubProjectInfo[]",
          "name": "",
          "type": "tuple[]"
        }
      ],
      "stateMutability": "view",
      "type": "function",
      "constant": true
    }
  ],
  "bytecode": "0x608060405234801561001057600080fd5b506111e5806100206000396000f3fe608060405234801561001057600080fd5b50600436106100575760003560e01c80632fccd5d31461005c578063778f8c4e1461009157806393a35ef3146100c1578063f8e41e0e146100df578063fa07a009146100fb575b600080fd5b61007660048036038101906100719190610adb565b610117565b60405161008896959493929190610bb0565b60405180910390f35b6100ab60048036038101906100a69190610adb565b6102be565b6040516100b89190610dca565b60405180910390f35b6100c9610517565b6040516100d69190610dca565b60405180910390f35b6100f960048036038101906100f49190610adb565b6107a1565b005b61011560048036038101906101109190610f21565b6107fa565b005b6000606080600080600080600160008981526020019081526020016000206040518060c00160405290816000820154815260200160018201805461015a90610fef565b80601f016020809104026020016040519081016040528092919081815260200182805461018690610fef565b80156101d35780601f106101a8576101008083540402835291602001916101d3565b820191906000526020600020905b8154815290600101906020018083116101b657829003601f168201915b505050505081526020016002820180546101ec90610fef565b80601f016020809104026020016040519081016040528092919081815260200182805461021890610fef565b80156102655780601f1061023a57610100808354040283529160200191610265565b820191906000526020600020905b81548152906001019060200180831161024857829003601f168201915b5050505050815260200160038201548152602001600482015481526020016005820154815250509050879650806020015195508060400151945080606001519350806080015192508060a0015191505091939550919395565b606060006102cb83610914565b905060008167ffffffffffffffff8111156102e9576102e8610df6565b5b60405190808252806020026020018201604052801561032257816020015b61030f610978565b8152602001906001900390816103075790505b509050600080600190505b600160005461033c9190611050565b81101561050b5785600160008381526020019081526020016000206003015414156104f857600160008281526020019081526020016000206040518060c00160405290816000820154815260200160018201805461039990610fef565b80601f01602080910402602001604051908101604052809291908181526020018280546103c590610fef565b80156104125780601f106103e757610100808354040283529160200191610412565b820191906000526020600020905b8154815290600101906020018083116103f557829003601f168201915b5050505050815260200160028201805461042b90610fef565b80601f016020809104026020016040519081016040528092919081815260200182805461045790610fef565b80156104a45780601f10610479576101008083540402835291602001916104a4565b820191906000526020600020905b81548152906001019060200180831161048757829003601f168201915b5050505050815260200160038201548152602001600482015481526020016005820154815250508383815181106104de576104dd6110a6565b5b602002602001018190525081806104f4906110d5565b9250505b8080610503906110d5565b91505061032d565b50819350505050919050565b6060600080600090505b60016000546105309190611050565b811015610577576000600160008381526020019081526020016000206003015414610564578180610560906110d5565b9250505b808061056f906110d5565b915050610521565b5060008167ffffffffffffffff81111561059457610593610df6565b5b6040519080825280602002602001820160405280156105cd57816020015b6105ba610978565b8152602001906001900390816105b25790505b509050600080600190505b60016000546105e79190611050565b81101561079757600160008281526020019081526020016000206040518060c00160405290816000820154815260200160018201805461062690610fef565b80601f016020809104026020016040519081016040528092919081815260200182805461065290610fef565b801561069f5780601f106106745761010080835404028352916020019161069f565b820191906000526020600020905b81548152906001019060200180831161068257829003601f168201915b505050505081526020016002820180546106b890610fef565b80601f01602080910402602001604051908101604052809291908181526020018280546106e490610fef565b80156107315780601f1061070657610100808354040283529160200191610731565b820191906000526020600020905b81548152906001019060200180831161071457829003601f168201915b50505050508152602001600382015481526020016004820154815260200160058201548152505083838151811061076b5761076a6110a6565b5b60200260200101819052508180610781906110d5565b925050808061078f906110d5565b9150506105d8565b5081935050505090565b600160008281526020019081526020016000206000808201600090556001820160006107cd91906109ae565b6002820160006107dd91906109ae565b600382016000905560048201600090556005820160009055505050565b60008081548092919061080c906110d5565b91905055506040518060c00160405280600054815260200185815260200184815260200183815260200182815260200142815250600160008054815260200190815260200160002060008201518160000155602082015181600101908051906020019061087a9291906109ee565b5060408201518160020190805190602001906108979291906109ee565b50606082015181600301556080820151816004015560a0820151816005015590505081846040516108c8919061115a565b60405180910390206000547fb1770192ceee17ca2974851e649e31663213f8e0c5e06b406558815a292912db86854260405161090693929190611171565b60405180910390a450505050565b600080600090505b600160005461092b9190611050565b81101561097257826001600083815260200190815260200160002060030154141561095f57818061095b906110d5565b9250505b808061096a906110d5565b91505061091c565b50919050565b6040518060c001604052806000815260200160608152602001606081526020016000815260200160008152602001600081525090565b5080546109ba90610fef565b6000825580601f106109cc57506109eb565b601f0160209004906000526020600020908101906109ea9190610a74565b5b50565b8280546109fa90610fef565b90600052602060002090601f016020900481019282610a1c5760008555610a63565b82601f10610a3557805160ff1916838001178555610a63565b82800160010185558215610a63579182015b82811115610a62578251825591602001919060010190610a47565b5b509050610a709190610a74565b5090565b5b80821115610a8d576000816000905550600101610a75565b5090565b6000604051905090565b600080fd5b600080fd5b6000819050919050565b610ab881610aa5565b8114610ac357600080fd5b50565b600081359050610ad581610aaf565b92915050565b600060208284031215610af157610af0610a9b565b5b6000610aff84828501610ac6565b91505092915050565b610b1181610aa5565b82525050565b600081519050919050565b600082825260208201905092915050565b60005b83811015610b51578082015181840152602081019050610b36565b83811115610b60576000848401525b50505050565b6000601f19601f8301169050919050565b6000610b8282610b17565b610b8c8185610b22565b9350610b9c818560208601610b33565b610ba581610b66565b840191505092915050565b600060c082019050610bc56000830189610b08565b8181036020830152610bd78188610b77565b90508181036040830152610beb8187610b77565b9050610bfa6060830186610b08565b610c076080830185610b08565b610c1460a0830184610b08565b979650505050505050565b600081519050919050565b600082825260208201905092915050565b6000819050602082019050919050565b610c5481610aa5565b82525050565b600082825260208201905092915050565b6000610c7682610b17565b610c808185610c5a565b9350610c90818560208601610b33565b610c9981610b66565b840191505092915050565b600060c083016000830151610cbc6000860182610c4b565b5060208301518482036020860152610cd48282610c6b565b91505060408301518482036040860152610cee8282610c6b565b9150506060830151610d036060860182610c4b565b506080830151610d166080860182610c4b565b5060a0830151610d2960a0860182610c4b565b508091505092915050565b6000610d408383610ca4565b905092915050565b6000602082019050919050565b6000610d6082610c1f565b610d6a8185610c2a565b935083602082028501610d7c85610c3b565b8060005b85811015610db85784840389528151610d998582610d34565b9450610da483610d48565b925060208a01995050600181019050610d80565b50829750879550505050505092915050565b60006020820190508181036000830152610de48184610d55565b905092915050565b600080fd5b600080fd5b7f4e487b7100000000000000000000000000000000000000000000000000000000600052604160045260246000fd5b610e2e82610b66565b810181811067ffffffffffffffff82111715610e4d57610e4c610df6565b5b80604052505050565b6000610e60610a91565b9050610e6c8282610e25565b919050565b600067ffffffffffffffff821115610e8c57610e8b610df6565b5b610e9582610b66565b9050602081019050919050565b82818337600083830152505050565b6000610ec4610ebf84610e71565b610e56565b905082815260208101848484011115610ee057610edf610df1565b5b610eeb848285610ea2565b509392505050565b600082601f830112610f0857610f07610dec565b5b8135610f18848260208601610eb1565b91505092915050565b60008060008060808587031215610f3b57610f3a610a9b565b5b600085013567ffffffffffffffff811115610f5957610f58610aa0565b5b610f6587828801610ef3565b945050602085013567ffffffffffffffff811115610f8657610f85610aa0565b5b610f9287828801610ef3565b9350506040610fa387828801610ac6565b9250506060610fb487828801610ac6565b91505092959194509250565b7f4e487b7100000000000000000000000000000000000000000000000000000000600052602260045260246000fd5b6000600282049050600182168061100757607f821691505b6020821081141561101b5761101a610fc0565b5b50919050565b7f4e487b7100000000000000000000000000000000000000000000000000000000600052601160045260246000fd5b600061105b82610aa5565b915061106683610aa5565b9250827fffffffffffffffffffffffffffffffffffffffffffffffffffffffffffffffff0382111561109b5761109a611021565b5b828201905092915050565b7f4e487b7100000000000000000000000000000000000000000000000000000000600052603260045260246000fd5b60006110e082610aa5565b91507fffffffffffffffffffffffffffffffffffffffffffffffffffffffffffffffff82141561111357611112611021565b5b600182019050919050565b600081905092915050565b600061113482610b17565b61113e818561111e565b935061114e818560208601610b33565b80840191505092915050565b60006111668284611129565b915081905092915050565b6000606082019050818103600083015261118b8186610b77565b905061119a6020830185610b08565b6111a76040830184610b08565b94935050505056fea264697066735822122009bbda34f68d058622c52b2f0a86ce63a4e6b02730daf7d93387b3d84e793bd364736f6c63430008090033",
  "immutableReferences": {},
  "source": "// SPDX-License-Identifier: MIT\n\npragma solidity ^0.8;\n\nimport './Project.sol';\n\ncontract SubProject {\n    uint256 private count;\n\n    struct SubProjectInfo {\n        uint256 id;\n        string name;\n        string description;\n        uint256 projectId;\n        uint256 estimatedDuration;\n        uint256 createdAt;\n    }\n\n    mapping(uint256 => SubProjectInfo) private subprojects;\n\n    event AddedSubProject(\n        uint256 indexed id,\n        string indexed name,\n        string description,\n        uint256 indexed projectId,\n        uint256 estimatedDuration,\n        uint256 createdAt\n    );\n\n    function addSubProject(\n        string memory name,\n        string memory description,\n        uint256 projectId,\n        uint256 estimatedDuration\n    ) public {\n        count++;\n        \n        subprojects[count] = SubProjectInfo(\n            count,\n            name,\n            description,\n            projectId,\n            estimatedDuration,\n            block.timestamp\n        );\n        \n        emit AddedSubProject(\n            count,\n            name,\n            description,\n            projectId,\n            estimatedDuration,\n            block.timestamp\n        );\n    }\n\n    function getSubProjectById(uint256 _id) public view returns(uint256 id,\n        string memory name,\n        string memory description,\n        uint256 projectId,\n        uint256 estimatedDuration,\n        uint256 createdAt) {\n            SubProjectInfo memory subproject = subprojects[_id];\n            id = _id;\n            name = subproject.name;\n            description = subproject.description;\n            projectId = subproject.projectId;\n            estimatedDuration = subproject.estimatedDuration;\n            createdAt = subproject.createdAt;\n        }\n        \n    /*\n    This functions deletes sub projects that have been saved in the ledger\n    Needs only  project manager or technical admin authorization\n    */\n    function deleteSubProject(uint256 id) public {\n        delete subprojects[id];\n    }\n\n    /*\n    As we cannot create dynamic array which we can push to, we should use this function to return the \n    length of subprojects with a given project id.    \n    */\n    function getSubProjectCount(uint256 _id) internal view returns(uint256 length) {\n        for (uint256 index = 0; index < count + 1; index++) {\n            if(subprojects[index].projectId == _id) {\n                    length++;\n                }\n        }\n    }\n    \n\n    /*\n    This function returns array of subprojects that belong to one project so we can iterate over them\n    */\n    function getSubProjectsListByProjectId(uint256 _id) public view returns(SubProjectInfo[] memory) {\n        uint256 length = getSubProjectCount(_id);\n        SubProjectInfo[] memory sp = new SubProjectInfo[](length);\n        uint256 counter = 0;\n        for (uint256 index = 1; index < count + 1; index++) {\n            if(subprojects[index].projectId == _id) {\n                    sp[counter] = subprojects[index];\n                    counter++;\n                }\n        }\n        return sp;\n    }\n\n     /*\n    This function returns array of subprojects so we can iterate over them\n    */\n    function getAllSubProjects() public view returns(SubProjectInfo[] memory) {\n        uint256 length;\n        for (uint256 index = 0; index < count + 1; index++) {\n            if(subprojects[index].projectId != 0) {\n                    length++;\n                }\n        }\n        SubProjectInfo[] memory sp = new SubProjectInfo[](length);\n        uint256 counter = 0;\n        for (uint256 index = 1; index < count + 1; index++) {\n            sp[counter] = subprojects[index];\n            counter++;\n        }\n        return sp;\n    }\n}\n",
  "sourcePath": "/home/bone/WebProjects/fets_front_end/src/contracts/project_management/SubProject.sol",
  "compiler": {
    "name": "solc",
    "version": "0.8.9+commit.e5eed63a.Emscripten.clang"
  },
  "schemaVersion": "3.4.7",
  "updatedAt": "2022-06-03T07:50:41.024Z",
  "networkType": "ethereum",
  "devdoc": {
    "kind": "dev",
    "methods": {},
    "version": 1
  },
  "userdoc": {
    "kind": "user",
    "methods": {},
    "version": 1
  }
}