{
  "contractName": "Task",
  "abi": [
    {
      "anonymous": false,
      "inputs": [
        {
          "indexed": true,
          "internalType": "uint256",
          "name": "id",
          "type": "uint256"
        },
        {
          "indexed": true,
          "internalType": "string",
          "name": "name",
          "type": "string"
        },
        {
          "indexed": false,
          "internalType": "string",
          "name": "description",
          "type": "string"
        },
        {
          "indexed": true,
          "internalType": "uint256",
          "name": "projectId",
          "type": "uint256"
        },
        {
          "indexed": false,
          "internalType": "uint256",
          "name": "subProjectId",
          "type": "uint256"
        },
        {
          "indexed": false,
          "internalType": "uint256",
          "name": "estimatedDuration",
          "type": "uint256"
        },
        {
          "indexed": false,
          "internalType": "enum Task.TaskStatus",
          "name": "status",
          "type": "uint8"
        },
        {
          "indexed": false,
          "internalType": "uint256",
          "name": "allocatedBudget",
          "type": "uint256"
        },
        {
          "indexed": false,
          "internalType": "uint256",
          "name": "createdAt",
          "type": "uint256"
        }
      ],
      "name": "AddedTask",
      "type": "event"
    },
    {
      "anonymous": false,
      "inputs": [
        {
          "indexed": true,
          "internalType": "uint256",
          "name": "taskid",
          "type": "uint256"
        },
        {
          "indexed": false,
          "internalType": "enum Task.TaskStatus",
          "name": "from",
          "type": "uint8"
        },
        {
          "indexed": false,
          "internalType": "enum Task.TaskStatus",
          "name": "to",
          "type": "uint8"
        },
        {
          "indexed": true,
          "internalType": "uint256",
          "name": "date",
          "type": "uint256"
        },
        {
          "indexed": true,
          "internalType": "address",
          "name": "changedBy",
          "type": "address"
        }
      ],
      "name": "ChangeedTaskStatus",
      "type": "event"
    },
    {
      "inputs": [
        {
          "internalType": "string",
          "name": "name",
          "type": "string"
        },
        {
          "internalType": "string",
          "name": "description",
          "type": "string"
        },
        {
          "internalType": "uint256",
          "name": "projectId",
          "type": "uint256"
        },
        {
          "internalType": "uint256",
          "name": "subProjectId",
          "type": "uint256"
        },
        {
          "internalType": "uint256",
          "name": "estimatedDuration",
          "type": "uint256"
        },
        {
          "internalType": "uint256",
          "name": "allocatedBudget",
          "type": "uint256"
        }
      ],
      "name": "addTask",
      "outputs": [],
      "stateMutability": "nonpayable",
      "type": "function"
    },
    {
      "inputs": [
        {
          "internalType": "uint256",
          "name": "taskid",
          "type": "uint256"
        },
        {
          "internalType": "uint256",
          "name": "allocatedBudget",
          "type": "uint256"
        },
        {
          "internalType": "string",
          "name": "remark",
          "type": "string"
        }
      ],
      "name": "financialManagerSubmitBudgetAllocation",
      "outputs": [],
      "stateMutability": "nonpayable",
      "type": "function"
    },
    {
      "inputs": [
        {
          "internalType": "uint256",
          "name": "_taskId",
          "type": "uint256"
        },
        {
          "internalType": "string",
          "name": "remark",
          "type": "string"
        }
      ],
      "name": "budgetAndProcurementManagerApproveTaskCompletion",
      "outputs": [],
      "stateMutability": "nonpayable",
      "type": "function"
    },
    {
      "inputs": [
        {
          "internalType": "uint256",
          "name": "_taskId",
          "type": "uint256"
        },
        {
          "internalType": "string",
          "name": "remark",
          "type": "string"
        }
      ],
      "name": "projectManagerApproveTaskCompletion",
      "outputs": [],
      "stateMutability": "nonpayable",
      "type": "function"
    },
    {
      "inputs": [
        {
          "internalType": "uint256",
          "name": "_taskId",
          "type": "uint256"
        },
        {
          "internalType": "string",
          "name": "remark",
          "type": "string"
        }
      ],
      "name": "externalAuditorApproveTaskCompletion",
      "outputs": [],
      "stateMutability": "nonpayable",
      "type": "function"
    },
    {
      "inputs": [
        {
          "internalType": "uint256",
          "name": "_taskId",
          "type": "uint256"
        }
      ],
      "name": "deleteTask",
      "outputs": [],
      "stateMutability": "nonpayable",
      "type": "function"
    },
    {
      "inputs": [
        {
          "internalType": "uint256",
          "name": "_taskId",
          "type": "uint256"
        }
      ],
      "name": "getTaskById",
      "outputs": [
        {
          "components": [
            {
              "internalType": "uint256",
              "name": "id",
              "type": "uint256"
            },
            {
              "internalType": "string",
              "name": "name",
              "type": "string"
            },
            {
              "internalType": "string",
              "name": "description",
              "type": "string"
            },
            {
              "internalType": "uint256",
              "name": "projectId",
              "type": "uint256"
            },
            {
              "internalType": "uint256",
              "name": "subProjectId",
              "type": "uint256"
            },
            {
              "internalType": "uint256",
              "name": "estimatedDuration",
              "type": "uint256"
            },
            {
              "internalType": "enum Task.TaskStatus",
              "name": "status",
              "type": "uint8"
            },
            {
              "internalType": "uint256",
              "name": "allocatedBudget",
              "type": "uint256"
            },
            {
              "internalType": "string",
              "name": "remark",
              "type": "string"
            },
            {
              "internalType": "uint256",
              "name": "createdAt",
              "type": "uint256"
            }
          ],
          "internalType": "struct Task.TaskInfo",
          "name": "",
          "type": "tuple"
        }
      ],
      "stateMutability": "view",
      "type": "function",
      "constant": true
    },
    {
      "inputs": [
        {
          "internalType": "uint256",
          "name": "_projectId",
          "type": "uint256"
        }
      ],
      "name": "getTasksListFromProjectId",
      "outputs": [
        {
          "components": [
            {
              "internalType": "uint256",
              "name": "id",
              "type": "uint256"
            },
            {
              "internalType": "string",
              "name": "name",
              "type": "string"
            },
            {
              "internalType": "string",
              "name": "description",
              "type": "string"
            },
            {
              "internalType": "uint256",
              "name": "projectId",
              "type": "uint256"
            },
            {
              "internalType": "uint256",
              "name": "subProjectId",
              "type": "uint256"
            },
            {
              "internalType": "uint256",
              "name": "estimatedDuration",
              "type": "uint256"
            },
            {
              "internalType": "enum Task.TaskStatus",
              "name": "status",
              "type": "uint8"
            },
            {
              "internalType": "uint256",
              "name": "allocatedBudget",
              "type": "uint256"
            },
            {
              "internalType": "string",
              "name": "remark",
              "type": "string"
            },
            {
              "internalType": "uint256",
              "name": "createdAt",
              "type": "uint256"
            }
          ],
          "internalType": "struct Task.TaskInfo[]",
          "name": "",
          "type": "tuple[]"
        }
      ],
      "stateMutability": "view",
      "type": "function",
      "constant": true
    },
    {
      "inputs": [
        {
          "internalType": "uint256",
          "name": "_subProjectId",
          "type": "uint256"
        }
      ],
      "name": "getTasksListFromSubProjectId",
      "outputs": [
        {
          "components": [
            {
              "internalType": "uint256",
              "name": "id",
              "type": "uint256"
            },
            {
              "internalType": "string",
              "name": "name",
              "type": "string"
            },
            {
              "internalType": "string",
              "name": "description",
              "type": "string"
            },
            {
              "internalType": "uint256",
              "name": "projectId",
              "type": "uint256"
            },
            {
              "internalType": "uint256",
              "name": "subProjectId",
              "type": "uint256"
            },
            {
              "internalType": "uint256",
              "name": "estimatedDuration",
              "type": "uint256"
            },
            {
              "internalType": "enum Task.TaskStatus",
              "name": "status",
              "type": "uint8"
            },
            {
              "internalType": "uint256",
              "name": "allocatedBudget",
              "type": "uint256"
            },
            {
              "internalType": "string",
              "name": "remark",
              "type": "string"
            },
            {
              "internalType": "uint256",
              "name": "createdAt",
              "type": "uint256"
            }
          ],
          "internalType": "struct Task.TaskInfo[]",
          "name": "",
          "type": "tuple[]"
        }
      ],
      "stateMutability": "view",
      "type": "function",
      "constant": true
    },
    {
      "inputs": [
        {
          "internalType": "uint256",
          "name": "_projectId",
          "type": "uint256"
        }
      ],
      "name": "getTaskStatusByProjectId",
      "outputs": [
        {
          "internalType": "uint256",
          "name": "approved",
          "type": "uint256"
        },
        {
          "internalType": "uint256",
          "name": "unapproved",
          "type": "uint256"
        }
      ],
      "stateMutability": "view",
      "type": "function",
      "constant": true
    },
    {
      "inputs": [
        {
          "internalType": "uint256",
          "name": "_subProjectId",
          "type": "uint256"
        }
      ],
      "name": "getTaskStatusBySubProjectId",
      "outputs": [
        {
          "internalType": "uint256",
          "name": "approved",
          "type": "uint256"
        },
        {
          "internalType": "uint256",
          "name": "unapproved",
          "type": "uint256"
        }
      ],
      "stateMutability": "view",
      "type": "function",
      "constant": true
    },
    {
      "inputs": [],
      "name": "getAllTasks",
      "outputs": [
        {
          "components": [
            {
              "internalType": "uint256",
              "name": "id",
              "type": "uint256"
            },
            {
              "internalType": "string",
              "name": "name",
              "type": "string"
            },
            {
              "internalType": "string",
              "name": "description",
              "type": "string"
            },
            {
              "internalType": "uint256",
              "name": "projectId",
              "type": "uint256"
            },
            {
              "internalType": "uint256",
              "name": "subProjectId",
              "type": "uint256"
            },
            {
              "internalType": "uint256",
              "name": "estimatedDuration",
              "type": "uint256"
            },
            {
              "internalType": "enum Task.TaskStatus",
              "name": "status",
              "type": "uint8"
            },
            {
              "internalType": "uint256",
              "name": "allocatedBudget",
              "type": "uint256"
            },
            {
              "internalType": "string",
              "name": "remark",
              "type": "string"
            },
            {
              "internalType": "uint256",
              "name": "createdAt",
              "type": "uint256"
            }
          ],
          "internalType": "struct Task.TaskInfo[]",
          "name": "",
          "type": "tuple[]"
        }
      ],
      "stateMutability": "view",
      "type": "function",
      "constant": true
    }
  ],
  "bytecode": "0x608060405234801561001057600080fd5b5061222a806100206000396000f3fe608060405234801561001057600080fd5b50600436106100b45760003560e01c80638e6afd33116100715780638e6afd331461018c578063976217cd146101a8578063a83243da146101d8578063adb0b21e14610208578063c50c58cd14610224578063fbaffb4814610255576100b4565b80631dcc3692146100b9578063505a4c55146100d5578063560f3192146100f15780635e0f94d31461010d5780635ea62f561461013e578063779900b41461016e575b600080fd5b6100d360048036038101906100ce9190611980565b610271565b005b6100ef60048036038101906100ea91906119ef565b61034e565b005b61010b60048036038101906101069190611ab4565b610510565b005b61012760048036038101906101229190611ab4565b61059d565b604051610135929190611af0565b60405180910390f35b61015860048036038101906101539190611ab4565b61067d565b6040516101659190611dd1565b60405180910390f35b6101766109b8565b6040516101839190611dd1565b60405180910390f35b6101a660048036038101906101a19190611df3565b610d24565b005b6101c260048036038101906101bd9190611ab4565b610de6565b6040516101cf9190611f37565b60405180910390f35b6101f260048036038101906101ed9190611ab4565b611041565b6040516101ff9190611dd1565b60405180910390f35b610222600480360381019061021d9190611df3565b61137c565b005b61023e60048036038101906102399190611ab4565b61143e565b60405161024c929190611af0565b60405180910390f35b61026f600480360381019061026a9190611df3565b61151e565b005b816001600085815260200190815260200160002060070181905550600180600085815260200190815260200160002060060160006101000a81548160ff021916908360078111156102c5576102c4611bdc565b5b0217905550806001600085815260200190815260200160002060080190805190602001906102f49291906116a8565b503373ffffffffffffffffffffffffffffffffffffffff1642847f42ca22b58274c0d3dce198b7a71dea299d40e7d46bcd2e854c1578e93b4e249a60006001604051610341929190611f68565b60405180910390a4505050565b60008081548092919061036090611fc0565b91905055506040518061014001604052806000548152602001878152602001868152602001858152602001848152602001838152602001600060078111156103ab576103aa611bdc565b5b81526020016000815260200160405180602001604052806000815250815260200142815250600160008054815260200190815260200160002060008201518160000155602082015181600101908051906020019061040a9291906116a8565b5060408201518160020190805190602001906104279291906116a8565b50606082015181600301556080820151816004015560a0820151816005015560c08201518160060160006101000a81548160ff0219169083600781111561047157610470611bdc565b5b021790555060e0820151816007015561010082015181600801908051906020019061049d9291906116a8565b50610120820151816009015590505083866040516104bb9190612045565b60405180910390206000547f1928f5b53d4abb4811152d21f62bcbd48d2966ec602e936aeacc3436274c04c588878760008842604051610500969594939291906120a6565b60405180910390a4505050505050565b6001600082815260200190815260200160002060008082016000905560018201600061053c919061172e565b60028201600061054c919061172e565b6003820160009055600482016000905560058201600090556006820160006101000a81549060ff02191690556007820160009055600882016000610590919061172e565b6009820160009055505050565b6000806000600190505b600054811161067757600360078111156105c4576105c3611bdc565b5b6001600083815260200190815260200160002060060160009054906101000a900460ff1660078111156105fa576105f9611bdc565b5b14801561061c5750836001600083815260200190815260200160002060040154145b156106355760018361062e919061210e565b9250610664565b836001600083815260200190815260200160002060030154141561066357600182610660919061210e565b91505b5b808061066f90611fc0565b9150506105a7565b50915091565b6060600061068a836115e0565b905060008167ffffffffffffffff8111156106a8576106a7611855565b5b6040519080825280602002602001820160405280156106e157816020015b6106ce61176e565b8152602001906001900390816106c65790505b509050600080600190505b60016000546106fb919061210e565b8110156109ac5785600160008381526020019081526020016000206004015414156109995760016000828152602001908152602001600020604051806101400160405290816000820154815260200160018201805461075990612193565b80601f016020809104026020016040519081016040528092919081815260200182805461078590612193565b80156107d25780601f106107a7576101008083540402835291602001916107d2565b820191906000526020600020905b8154815290600101906020018083116107b557829003601f168201915b505050505081526020016002820180546107eb90612193565b80601f016020809104026020016040519081016040528092919081815260200182805461081790612193565b80156108645780601f1061083957610100808354040283529160200191610864565b820191906000526020600020905b81548152906001019060200180831161084757829003601f168201915b505050505081526020016003820154815260200160048201548152602001600582015481526020016006820160009054906101000a900460ff1660078111156108b0576108af611bdc565b5b60078111156108c2576108c1611bdc565b5b8152602001600782015481526020016008820180546108e090612193565b80601f016020809104026020016040519081016040528092919081815260200182805461090c90612193565b80156109595780601f1061092e57610100808354040283529160200191610959565b820191906000526020600020905b81548152906001019060200180831161093c57829003601f168201915b5050505050815260200160098201548152505083838151811061097f5761097e6121c5565b5b6020026020010181905250818061099590611fc0565b9250505b80806109a490611fc0565b9150506106ec565b50819350505050919050565b6060600080600090505b60016000546109d1919061210e565b811015610a18576000600160008381526020019081526020016000206003015414610a05578180610a0190611fc0565b9250505b8080610a1090611fc0565b9150506109c2565b5060008167ffffffffffffffff811115610a3557610a34611855565b5b604051908082528060200260200182016040528015610a6e57816020015b610a5b61176e565b815260200190600190039081610a535790505b509050600080600190505b6001600054610a88919061210e565b811015610d1a57600160008281526020019081526020016000206040518061014001604052908160008201548152602001600182018054610ac890612193565b80601f0160208091040260200160405190810160405280929190818152602001828054610af490612193565b8015610b415780601f10610b1657610100808354040283529160200191610b41565b820191906000526020600020905b815481529060010190602001808311610b2457829003601f168201915b50505050508152602001600282018054610b5a90612193565b80601f0160208091040260200160405190810160405280929190818152602001828054610b8690612193565b8015610bd35780601f10610ba857610100808354040283529160200191610bd3565b820191906000526020600020905b815481529060010190602001808311610bb657829003601f168201915b505050505081526020016003820154815260200160048201548152602001600582015481526020016006820160009054906101000a900460ff166007811115610c1f57610c1e611bdc565b5b6007811115610c3157610c30611bdc565b5b815260200160078201548152602001600882018054610c4f90612193565b80601f0160208091040260200160405190810160405280929190818152602001828054610c7b90612193565b8015610cc85780601f10610c9d57610100808354040283529160200191610cc8565b820191906000526020600020905b815481529060010190602001808311610cab57829003601f168201915b50505050508152602001600982015481525050838381518110610cee57610ced6121c5565b5b60200260200101819052508180610d0490611fc0565b9250508080610d1290611fc0565b915050610a79565b5081935050505090565b60046001600084815260200190815260200160002060060160006101000a81548160ff02191690836007811115610d5e57610d5d611bdc565b5b021790555080600160008481526020019081526020016000206008019080519060200190610d8d9291906116a8565b503373ffffffffffffffffffffffffffffffffffffffff1642837f42ca22b58274c0d3dce198b7a71dea299d40e7d46bcd2e854c1578e93b4e249a60036004604051610dda929190611f68565b60405180910390a45050565b610dee61176e565b600160008381526020019081526020016000206040518061014001604052908160008201548152602001600182018054610e2790612193565b80601f0160208091040260200160405190810160405280929190818152602001828054610e5390612193565b8015610ea05780601f10610e7557610100808354040283529160200191610ea0565b820191906000526020600020905b815481529060010190602001808311610e8357829003601f168201915b50505050508152602001600282018054610eb990612193565b80601f0160208091040260200160405190810160405280929190818152602001828054610ee590612193565b8015610f325780601f10610f0757610100808354040283529160200191610f32565b820191906000526020600020905b815481529060010190602001808311610f1557829003601f168201915b505050505081526020016003820154815260200160048201548152602001600582015481526020016006820160009054906101000a900460ff166007811115610f7e57610f7d611bdc565b5b6007811115610f9057610f8f611bdc565b5b815260200160078201548152602001600882018054610fae90612193565b80601f0160208091040260200160405190810160405280929190818152602001828054610fda90612193565b80156110275780601f10610ffc57610100808354040283529160200191611027565b820191906000526020600020905b81548152906001019060200180831161100a57829003601f168201915b505050505081526020016009820154815250509050919050565b6060600061104e83611644565b905060008167ffffffffffffffff81111561106c5761106b611855565b5b6040519080825280602002602001820160405280156110a557816020015b61109261176e565b81526020019060019003908161108a5790505b509050600080600190505b60016000546110bf919061210e565b81101561137057856001600083815260200190815260200160002060030154141561135d5760016000828152602001908152602001600020604051806101400160405290816000820154815260200160018201805461111d90612193565b80601f016020809104026020016040519081016040528092919081815260200182805461114990612193565b80156111965780601f1061116b57610100808354040283529160200191611196565b820191906000526020600020905b81548152906001019060200180831161117957829003601f168201915b505050505081526020016002820180546111af90612193565b80601f01602080910402602001604051908101604052809291908181526020018280546111db90612193565b80156112285780601f106111fd57610100808354040283529160200191611228565b820191906000526020600020905b81548152906001019060200180831161120b57829003601f168201915b505050505081526020016003820154815260200160048201548152602001600582015481526020016006820160009054906101000a900460ff16600781111561127457611273611bdc565b5b600781111561128657611285611bdc565b5b8152602001600782015481526020016008820180546112a490612193565b80601f01602080910402602001604051908101604052809291908181526020018280546112d090612193565b801561131d5780601f106112f25761010080835404028352916020019161131d565b820191906000526020600020905b81548152906001019060200180831161130057829003601f168201915b50505050508152602001600982015481525050838381518110611343576113426121c5565b5b6020026020010181905250818061135990611fc0565b9250505b808061136890611fc0565b9150506110b0565b50819350505050919050565b60036001600084815260200190815260200160002060060160006101000a81548160ff021916908360078111156113b6576113b5611bdc565b5b0217905550806001600084815260200190815260200160002060080190805190602001906113e59291906116a8565b503373ffffffffffffffffffffffffffffffffffffffff1642837f42ca22b58274c0d3dce198b7a71dea299d40e7d46bcd2e854c1578e93b4e249a60026003604051611432929190611f68565b60405180910390a45050565b6000806000600190505b6000548111611518576003600781111561146557611464611bdc565b5b6001600083815260200190815260200160002060060160009054906101000a900460ff16600781111561149b5761149a611bdc565b5b1480156114bd5750836001600083815260200190815260200160002060030154145b156114d6576001836114cf919061210e565b9250611505565b836001600083815260200190815260200160002060030154141561150457600182611501919061210e565b91505b5b808061151090611fc0565b915050611448565b50915091565b60026001600084815260200190815260200160002060060160006101000a81548160ff0219169083600781111561155857611557611bdc565b5b0217905550806001600084815260200190815260200160002060080190805190602001906115879291906116a8565b503373ffffffffffffffffffffffffffffffffffffffff1642837f42ca22b58274c0d3dce198b7a71dea299d40e7d46bcd2e854c1578e93b4e249a600160026040516115d4929190611f68565b60405180910390a45050565b600080600090505b60016000546115f7919061210e565b81101561163e57826001600083815260200190815260200160002060040154141561162b57818061162790611fc0565b9250505b808061163690611fc0565b9150506115e8565b50919050565b600080600090505b600160005461165b919061210e565b8110156116a257826001600083815260200190815260200160002060030154141561168f57818061168b90611fc0565b9250505b808061169a90611fc0565b91505061164c565b50919050565b8280546116b490612193565b90600052602060002090601f0160209004810192826116d6576000855561171d565b82601f106116ef57805160ff191683800117855561171d565b8280016001018555821561171d579182015b8281111561171c578251825591602001919060010190611701565b5b50905061172a91906117d3565b5090565b50805461173a90612193565b6000825580601f1061174c575061176b565b601f01602090049060005260206000209081019061176a91906117d3565b5b50565b604051806101400160405280600081526020016060815260200160608152602001600081526020016000815260200160008152602001600060078111156117b8576117b7611bdc565b5b81526020016000815260200160608152602001600081525090565b5b808211156117ec5760008160009055506001016117d4565b5090565b6000604051905090565b600080fd5b600080fd5b6000819050919050565b61181781611804565b811461182257600080fd5b50565b6000813590506118348161180e565b92915050565b600080fd5b600080fd5b6000601f19601f8301169050919050565b7f4e487b7100000000000000000000000000000000000000000000000000000000600052604160045260246000fd5b61188d82611844565b810181811067ffffffffffffffff821117156118ac576118ab611855565b5b80604052505050565b60006118bf6117f0565b90506118cb8282611884565b919050565b600067ffffffffffffffff8211156118eb576118ea611855565b5b6118f482611844565b9050602081019050919050565b82818337600083830152505050565b600061192361191e846118d0565b6118b5565b90508281526020810184848401111561193f5761193e61183f565b5b61194a848285611901565b509392505050565b600082601f8301126119675761196661183a565b5b8135611977848260208601611910565b91505092915050565b600080600060608486031215611999576119986117fa565b5b60006119a786828701611825565b93505060206119b886828701611825565b925050604084013567ffffffffffffffff8111156119d9576119d86117ff565b5b6119e586828701611952565b9150509250925092565b60008060008060008060c08789031215611a0c57611a0b6117fa565b5b600087013567ffffffffffffffff811115611a2a57611a296117ff565b5b611a3689828a01611952565b965050602087013567ffffffffffffffff811115611a5757611a566117ff565b5b611a6389828a01611952565b9550506040611a7489828a01611825565b9450506060611a8589828a01611825565b9350506080611a9689828a01611825565b92505060a0611aa789828a01611825565b9150509295509295509295565b600060208284031215611aca57611ac96117fa565b5b6000611ad884828501611825565b91505092915050565b611aea81611804565b82525050565b6000604082019050611b056000830185611ae1565b611b126020830184611ae1565b9392505050565b600081519050919050565b600082825260208201905092915050565b6000819050602082019050919050565b611b4e81611804565b82525050565b600081519050919050565b600082825260208201905092915050565b60005b83811015611b8e578082015181840152602081019050611b73565b83811115611b9d576000848401525b50505050565b6000611bae82611b54565b611bb88185611b5f565b9350611bc8818560208601611b70565b611bd181611844565b840191505092915050565b7f4e487b7100000000000000000000000000000000000000000000000000000000600052602160045260246000fd5b60088110611c1c57611c1b611bdc565b5b50565b6000819050611c2d82611c0b565b919050565b6000611c3d82611c1f565b9050919050565b611c4d81611c32565b82525050565b600061014083016000830151611c6c6000860182611b45565b5060208301518482036020860152611c848282611ba3565b91505060408301518482036040860152611c9e8282611ba3565b9150506060830151611cb36060860182611b45565b506080830151611cc66080860182611b45565b5060a0830151611cd960a0860182611b45565b5060c0830151611cec60c0860182611c44565b5060e0830151611cff60e0860182611b45565b50610100830151848203610100860152611d198282611ba3565b915050610120830151611d30610120860182611b45565b508091505092915050565b6000611d478383611c53565b905092915050565b6000602082019050919050565b6000611d6782611b19565b611d718185611b24565b935083602082028501611d8385611b35565b8060005b85811015611dbf5784840389528151611da08582611d3b565b9450611dab83611d4f565b925060208a01995050600181019050611d87565b50829750879550505050505092915050565b60006020820190508181036000830152611deb8184611d5c565b905092915050565b60008060408385031215611e0a57611e096117fa565b5b6000611e1885828601611825565b925050602083013567ffffffffffffffff811115611e3957611e386117ff565b5b611e4585828601611952565b9150509250929050565b600061014083016000830151611e686000860182611b45565b5060208301518482036020860152611e808282611ba3565b91505060408301518482036040860152611e9a8282611ba3565b9150506060830151611eaf6060860182611b45565b506080830151611ec26080860182611b45565b5060a0830151611ed560a0860182611b45565b5060c0830151611ee860c0860182611c44565b5060e0830151611efb60e0860182611b45565b50610100830151848203610100860152611f158282611ba3565b915050610120830151611f2c610120860182611b45565b508091505092915050565b60006020820190508181036000830152611f518184611e4f565b905092915050565b611f6281611c32565b82525050565b6000604082019050611f7d6000830185611f59565b611f8a6020830184611f59565b9392505050565b7f4e487b7100000000000000000000000000000000000000000000000000000000600052601160045260246000fd5b6000611fcb82611804565b91507fffffffffffffffffffffffffffffffffffffffffffffffffffffffffffffffff821415611ffe57611ffd611f91565b5b600182019050919050565b600081905092915050565b600061201f82611b54565b6120298185612009565b9350612039818560208601611b70565b80840191505092915050565b60006120518284612014565b915081905092915050565b600082825260208201905092915050565b600061207882611b54565b612082818561205c565b9350612092818560208601611b70565b61209b81611844565b840191505092915050565b600060c08201905081810360008301526120c0818961206d565b90506120cf6020830188611ae1565b6120dc6040830187611ae1565b6120e96060830186611f59565b6120f66080830185611ae1565b61210360a0830184611ae1565b979650505050505050565b600061211982611804565b915061212483611804565b9250827fffffffffffffffffffffffffffffffffffffffffffffffffffffffffffffffff0382111561215957612158611f91565b5b828201905092915050565b7f4e487b7100000000000000000000000000000000000000000000000000000000600052602260045260246000fd5b600060028204905060018216806121ab57607f821691505b602082108114156121bf576121be612164565b5b50919050565b7f4e487b7100000000000000000000000000000000000000000000000000000000600052603260045260246000fdfea2646970667358221220cfb8cd62ef6abd2e131607b2afb7347f2cfffd141304685aecd4a72b4ca3170c64736f6c63430008090033",
  "immutableReferences": {},
  "source": "// SPDX-License-Identifier: MIT\n\npragma solidity ^0.8;\n\ncontract Task {\n    uint256 private count;\n\n    enum TaskStatus {\n        CREATED,\n        ALLOCATED_BY_FINANCIAL_MANAGER,\n\n        APPROVED_BY_BUDGET_AND_PROCUREMENT_MANAGER,\n        APPROVED_BY_PROJECT_MANAGER,\n        APPROVED_BY_EXTERNAL_AUDITOR,\n\n        REJECTED_BY_BUDGET_AND_PROCUREMENT_MANAGER,\n        REJECTED_BY_PROJECT_MANAGER,\n        REJECTED_BY_EXTERNAL_AUDITOR\n    }\n\n    struct TaskInfo {\n        uint256 id;\n        string name;\n        string description;\n        uint256 projectId;\n        uint256 subProjectId;\n        uint256 estimatedDuration;\n        TaskStatus status;\n        uint256 allocatedBudget;\n        string remark;\n        uint256 createdAt;\n    }\n\n    mapping(uint256 => TaskInfo) private tasks;\n\n    event AddedTask(\n        uint256 indexed id,\n        string indexed name,\n        string description,\n        uint256 indexed projectId,\n        uint256 subProjectId,\n        uint256 estimatedDuration,\n        TaskStatus status,\n        uint256 allocatedBudget,\n        uint256 createdAt\n    );\n\n    event ChangeedTaskStatus(\n        uint256 indexed taskid,\n        TaskStatus from,\n        TaskStatus to,\n        uint256 indexed date,\n        address indexed changedBy\n    );\n\n    modifier statusIs(TaskInfo memory status, uint256 id) {\n        require(tasks[id].status == TaskStatus.CREATED);\n        _;\n    }\n\n    /*\n    Function to add new task to the BC providing all useful info.\n    */\n    function addTask(\n        string memory name,\n        string memory description,\n        uint256 projectId,\n        uint256 subProjectId,\n        uint256 estimatedDuration,\n        uint256 allocatedBudget\n    ) public {\n        count++;\n        tasks[count] = TaskInfo(\n            count,\n            name,\n            description,\n            projectId,\n            subProjectId,\n            estimatedDuration,\n            TaskStatus.CREATED,\n            0,\n            '',\n            block.timestamp\n        );\n        \n        emit AddedTask(\n            count,\n            name,\n            description,\n            projectId,\n            subProjectId,\n            estimatedDuration,\n            TaskStatus.CREATED,\n            allocatedBudget,\n            block.timestamp\n        );\n    }\n\n    //TODO add modifier to check whether the sender is financial manager of a specific project\n    //TODO add modifier to check wheather the money is valid or not\n    function financialManagerSubmitBudgetAllocation(\n        uint256 taskid,\n        uint256 allocatedBudget,\n        string memory remark\n    ) public {\n        tasks[taskid].allocatedBudget = allocatedBudget;\n        tasks[taskid].status = TaskStatus.ALLOCATED_BY_FINANCIAL_MANAGER;\n        tasks[taskid].remark = remark;\n        emit ChangeedTaskStatus(taskid ,TaskStatus.CREATED, TaskStatus.ALLOCATED_BY_FINANCIAL_MANAGER, block.timestamp, msg.sender);\n    }\n\n    function budgetAndProcurementManagerApproveTaskCompletion(uint256 _taskId, string memory remark)\n        public\n    {\n        tasks[_taskId].status = TaskStatus.APPROVED_BY_BUDGET_AND_PROCUREMENT_MANAGER;\n        tasks[_taskId].remark = remark;\n        emit ChangeedTaskStatus(_taskId ,TaskStatus.ALLOCATED_BY_FINANCIAL_MANAGER, TaskStatus.APPROVED_BY_BUDGET_AND_PROCUREMENT_MANAGER, block.timestamp, msg.sender);\n    }\n\n    function projectManagerApproveTaskCompletion(uint256 _taskId, string memory remark) public {\n        tasks[_taskId].status = TaskStatus.APPROVED_BY_PROJECT_MANAGER;\n        tasks[_taskId].remark = remark;\n        emit ChangeedTaskStatus(_taskId ,TaskStatus.APPROVED_BY_BUDGET_AND_PROCUREMENT_MANAGER, TaskStatus.APPROVED_BY_PROJECT_MANAGER, block.timestamp, msg.sender);\n    }\n\n    function externalAuditorApproveTaskCompletion(uint256 _taskId, string memory remark) public {\n        tasks[_taskId].status = TaskStatus.APPROVED_BY_EXTERNAL_AUDITOR;\n        tasks[_taskId].remark = remark;\n        emit ChangeedTaskStatus(_taskId ,TaskStatus.APPROVED_BY_PROJECT_MANAGER, TaskStatus.APPROVED_BY_EXTERNAL_AUDITOR, block.timestamp, msg.sender);\n    }\n\n    function deleteTask(uint256 _taskId) public {\n        delete tasks[_taskId];\n    }\n\n    function getTaskById(uint256 _taskId) public view returns(TaskInfo memory) {\n        return tasks[_taskId];\n    }\n\n    /*\n    As we cannot create dynamic array which we can push to, we should use this function to return the \n    length of tasks with a given project id.    \n    */\n    function getTasksCountByProjectId(uint256 _projectId) internal view returns(uint256 length) {\n        for (uint256 index = 0; index < count + 1; index++) {\n            if(tasks[index].projectId == _projectId) {\n                    length++;\n                }\n        }\n    }\n\n    /*\n    As we cannot create dynamic array which we can push to, we should use this function to return the \n    length of tasks with a given project id.    \n    */\n    function getTasksCountBySubProjectId(uint256 _subProjectId) internal view returns(uint256 length) {\n        for (uint256 index = 0; index < count + 1; index++) {\n            if(tasks[index].subProjectId == _subProjectId) {\n                    length++;\n                }\n        }\n    }\n    \n\n    /*\n    This function returns array of tasks that belong to one project\n    */\n    function getTasksListFromProjectId(uint256 _projectId) public view returns(TaskInfo[] memory) {\n        uint256 length = getTasksCountByProjectId(_projectId);\n        TaskInfo[] memory ft = new TaskInfo[](length);\n        uint256 counter = 0;\n        for (uint256 index = 1; index < count + 1; index++) {\n            if(tasks[index].projectId == _projectId) {\n                    ft[counter] = tasks[index];\n                    counter++;\n                }\n        }\n        return ft;\n    }\n\n    /*\n    This function returns array of tasks that belongs to one subproject\n    */\n    function getTasksListFromSubProjectId(uint256 _subProjectId) public view returns(TaskInfo[] memory) {\n        uint256 length = getTasksCountBySubProjectId(_subProjectId);\n        TaskInfo[] memory ft = new TaskInfo[](length);\n        uint256 counter = 0;\n        for (uint256 index = 1; index < count + 1; index++) {\n            if(tasks[index].subProjectId == _subProjectId) {\n                    ft[counter] = tasks[index];\n                    counter++;\n                }\n        }\n        return ft;\n    }\n\n    /*\n    Function to return status of completed and in progress tasks by project id\n    */\n    function getTaskStatusByProjectId(uint256 _projectId) public view returns(uint256 approved, uint256 unapproved) {\n        for (uint256 i = 1; i <= count; i++) {\n            if(tasks[i].status == TaskStatus.APPROVED_BY_PROJECT_MANAGER && tasks[i].projectId == _projectId) {\n                approved += 1;\n            }\n            else if(tasks[i].projectId == _projectId){\n                unapproved += 1;\n            }\n        }\n        return (approved, unapproved);\n    }\n\n    /*\n    Function to return status of completed and in progress tasks by sub-project id\n    */\n    function getTaskStatusBySubProjectId(uint256 _subProjectId) public view returns(uint256 approved, uint256 unapproved) {\n        for (uint256 i = 1; i <= count; i++) {\n            if(tasks[i].status == TaskStatus.APPROVED_BY_PROJECT_MANAGER && tasks[i].subProjectId == _subProjectId) {\n                approved += 1;\n            }\n            else if(tasks[i].projectId == _subProjectId){\n                unapproved += 1;\n            }\n        }\n        return (approved, unapproved);\n    }\n\n         /*\n    This function returns array of tasks so we can iterate over them\n    */\n    function getAllTasks() public view returns(TaskInfo[] memory) {\n        uint256 length;\n        for (uint256 index = 0; index < count + 1; index++) {\n            if(tasks[index].projectId != 0) {\n                    length++;\n                }\n        }\n        TaskInfo[] memory sp = new TaskInfo[](length);\n        uint256 counter = 0;\n        for (uint256 index = 1; index < count + 1; index++) {\n            sp[counter] = tasks[index];\n            counter++;\n        }\n        return sp;\n    }\n}\n",
  "sourcePath": "/home/jeremy/Desktop/fets_front_end/src/contracts/project_management/Task.sol",
  "compiler": {
    "name": "solc",
    "version": "0.8.9+commit.e5eed63a.Emscripten.clang"
  },
  "schemaVersion": "3.4.3",
  "updatedAt": "2022-06-17T08:47:38.812Z",
  "networkType": "ethereum",
  "devdoc": {
    "kind": "dev",
    "methods": {},
    "version": 1
  },
  "userdoc": {
    "kind": "user",
    "methods": {},
    "version": 1
  }
}