{
  "contractName": "Task",
  "abi": [
    {
      "anonymous": false,
      "inputs": [
        {
          "indexed": true,
          "internalType": "uint256",
          "name": "id",
          "type": "uint256"
        },
        {
          "indexed": true,
          "internalType": "string",
          "name": "name",
          "type": "string"
        },
        {
          "indexed": false,
          "internalType": "string",
          "name": "description",
          "type": "string"
        },
        {
          "indexed": true,
          "internalType": "uint256",
          "name": "projectId",
          "type": "uint256"
        },
        {
          "indexed": false,
          "internalType": "uint256",
          "name": "subProjectId",
          "type": "uint256"
        },
        {
          "indexed": false,
          "internalType": "uint256",
          "name": "estimatedDuration",
          "type": "uint256"
        },
        {
          "indexed": false,
          "internalType": "enum Task.TaskStatus",
          "name": "status",
          "type": "uint8"
        },
        {
          "indexed": false,
          "internalType": "uint256",
          "name": "allocatedBudget",
          "type": "uint256"
        },
        {
          "indexed": false,
          "internalType": "uint256",
          "name": "createdAt",
          "type": "uint256"
        }
      ],
      "name": "AddedTask",
      "type": "event"
    },
    {
      "anonymous": false,
      "inputs": [
        {
          "indexed": true,
          "internalType": "uint256",
          "name": "taskid",
          "type": "uint256"
        },
        {
          "indexed": false,
          "internalType": "enum Task.TaskStatus",
          "name": "from",
          "type": "uint8"
        },
        {
          "indexed": false,
          "internalType": "enum Task.TaskStatus",
          "name": "to",
          "type": "uint8"
        },
        {
          "indexed": true,
          "internalType": "uint256",
          "name": "date",
          "type": "uint256"
        },
        {
          "indexed": true,
          "internalType": "address",
          "name": "changedBy",
          "type": "address"
        },
        {
          "indexed": false,
          "internalType": "string",
          "name": "username",
          "type": "string"
        },
        {
          "indexed": false,
          "internalType": "uint256",
          "name": "projectId",
          "type": "uint256"
        }
      ],
      "name": "ChangedTaskStatus",
      "type": "event"
    },
    {
      "inputs": [
        {
          "internalType": "string",
          "name": "name",
          "type": "string"
        },
        {
          "internalType": "string",
          "name": "description",
          "type": "string"
        },
        {
          "internalType": "uint256",
          "name": "projectId",
          "type": "uint256"
        },
        {
          "internalType": "uint256",
          "name": "subProjectId",
          "type": "uint256"
        },
        {
          "internalType": "uint256",
          "name": "estimatedDuration",
          "type": "uint256"
        },
        {
          "internalType": "uint256",
          "name": "allocatedBudget",
          "type": "uint256"
        }
      ],
      "name": "addTask",
      "outputs": [],
      "stateMutability": "nonpayable",
      "type": "function"
    },
    {
      "inputs": [
        {
          "internalType": "uint256",
          "name": "taskid",
          "type": "uint256"
        },
        {
          "internalType": "uint256",
          "name": "allocatedBudget",
          "type": "uint256"
        },
        {
          "internalType": "string",
          "name": "remark",
          "type": "string"
        },
        {
          "internalType": "string",
          "name": "username",
          "type": "string"
        },
        {
          "internalType": "uint256",
          "name": "projectId",
          "type": "uint256"
        }
      ],
      "name": "financialManagerSubmitBudgetAllocation",
      "outputs": [],
      "stateMutability": "nonpayable",
      "type": "function"
    },
    {
      "inputs": [
        {
          "internalType": "uint256",
          "name": "_taskId",
          "type": "uint256"
        },
        {
          "internalType": "string",
          "name": "remark",
          "type": "string"
        },
        {
          "internalType": "string",
          "name": "username",
          "type": "string"
        },
        {
          "internalType": "uint256",
          "name": "projectId",
          "type": "uint256"
        }
      ],
      "name": "budgetAndProcurementManagerApproveTaskCompletion",
      "outputs": [],
      "stateMutability": "nonpayable",
      "type": "function"
    },
    {
      "inputs": [
        {
          "internalType": "uint256",
          "name": "_taskId",
          "type": "uint256"
        },
        {
          "internalType": "string",
          "name": "remark",
          "type": "string"
        },
        {
          "internalType": "string",
          "name": "username",
          "type": "string"
        },
        {
          "internalType": "uint256",
          "name": "projectId",
          "type": "uint256"
        }
      ],
      "name": "projectManagerApproveTaskCompletion",
      "outputs": [],
      "stateMutability": "nonpayable",
      "type": "function"
    },
    {
      "inputs": [
        {
          "internalType": "uint256",
          "name": "_taskId",
          "type": "uint256"
        },
        {
          "internalType": "string",
          "name": "remark",
          "type": "string"
        },
        {
          "internalType": "string",
          "name": "username",
          "type": "string"
        },
        {
          "internalType": "uint256",
          "name": "projectId",
          "type": "uint256"
        }
      ],
      "name": "externalAuditorApproveTaskCompletion",
      "outputs": [],
      "stateMutability": "nonpayable",
      "type": "function"
    },
    {
      "inputs": [
        {
          "internalType": "uint256",
          "name": "_taskId",
          "type": "uint256"
        },
        {
          "internalType": "string",
          "name": "remark",
          "type": "string"
        },
        {
          "internalType": "string",
          "name": "username",
          "type": "string"
        },
        {
          "internalType": "uint256",
          "name": "projectId",
          "type": "uint256"
        }
      ],
      "name": "budgetAndProcurementManagerDeclineTaskApproval",
      "outputs": [],
      "stateMutability": "nonpayable",
      "type": "function"
    },
    {
      "inputs": [
        {
          "internalType": "uint256",
          "name": "_taskId",
          "type": "uint256"
        },
        {
          "internalType": "string",
          "name": "remark",
          "type": "string"
        },
        {
          "internalType": "string",
          "name": "username",
          "type": "string"
        },
        {
          "internalType": "uint256",
          "name": "projectId",
          "type": "uint256"
        }
      ],
      "name": "projectManagerDeclineTaskApproval",
      "outputs": [],
      "stateMutability": "nonpayable",
      "type": "function"
    },
    {
      "inputs": [
        {
          "internalType": "uint256",
          "name": "_taskId",
          "type": "uint256"
        },
        {
          "internalType": "string",
          "name": "remark",
          "type": "string"
        },
        {
          "internalType": "string",
          "name": "username",
          "type": "string"
        },
        {
          "internalType": "uint256",
          "name": "projectId",
          "type": "uint256"
        }
      ],
      "name": "externalAuditorDeclinedTaskAllocation",
      "outputs": [],
      "stateMutability": "nonpayable",
      "type": "function"
    },
    {
      "inputs": [
        {
          "internalType": "uint256",
          "name": "_taskId",
          "type": "uint256"
        }
      ],
      "name": "deleteTask",
      "outputs": [],
      "stateMutability": "nonpayable",
      "type": "function"
    },
    {
      "inputs": [
        {
          "internalType": "uint256",
          "name": "_taskId",
          "type": "uint256"
        }
      ],
      "name": "getTaskById",
      "outputs": [
        {
          "components": [
            {
              "internalType": "uint256",
              "name": "id",
              "type": "uint256"
            },
            {
              "internalType": "string",
              "name": "name",
              "type": "string"
            },
            {
              "internalType": "string",
              "name": "description",
              "type": "string"
            },
            {
              "internalType": "uint256",
              "name": "projectId",
              "type": "uint256"
            },
            {
              "internalType": "uint256",
              "name": "subProjectId",
              "type": "uint256"
            },
            {
              "internalType": "uint256",
              "name": "estimatedDuration",
              "type": "uint256"
            },
            {
              "internalType": "enum Task.TaskStatus",
              "name": "status",
              "type": "uint8"
            },
            {
              "internalType": "uint256",
              "name": "allocatedBudget",
              "type": "uint256"
            },
            {
              "internalType": "string",
              "name": "remark",
              "type": "string"
            },
            {
              "internalType": "uint256",
              "name": "createdAt",
              "type": "uint256"
            }
          ],
          "internalType": "struct Task.TaskInfo",
          "name": "",
          "type": "tuple"
        }
      ],
      "stateMutability": "view",
      "type": "function",
      "constant": true
    },
    {
      "inputs": [
        {
          "internalType": "uint256",
          "name": "_projectId",
          "type": "uint256"
        }
      ],
      "name": "getTasksListFromProjectId",
      "outputs": [
        {
          "components": [
            {
              "internalType": "uint256",
              "name": "id",
              "type": "uint256"
            },
            {
              "internalType": "string",
              "name": "name",
              "type": "string"
            },
            {
              "internalType": "string",
              "name": "description",
              "type": "string"
            },
            {
              "internalType": "uint256",
              "name": "projectId",
              "type": "uint256"
            },
            {
              "internalType": "uint256",
              "name": "subProjectId",
              "type": "uint256"
            },
            {
              "internalType": "uint256",
              "name": "estimatedDuration",
              "type": "uint256"
            },
            {
              "internalType": "enum Task.TaskStatus",
              "name": "status",
              "type": "uint8"
            },
            {
              "internalType": "uint256",
              "name": "allocatedBudget",
              "type": "uint256"
            },
            {
              "internalType": "string",
              "name": "remark",
              "type": "string"
            },
            {
              "internalType": "uint256",
              "name": "createdAt",
              "type": "uint256"
            }
          ],
          "internalType": "struct Task.TaskInfo[]",
          "name": "",
          "type": "tuple[]"
        }
      ],
      "stateMutability": "view",
      "type": "function",
      "constant": true
    },
    {
      "inputs": [
        {
          "internalType": "uint256",
          "name": "_subProjectId",
          "type": "uint256"
        }
      ],
      "name": "getTasksListFromSubProjectId",
      "outputs": [
        {
          "components": [
            {
              "internalType": "uint256",
              "name": "id",
              "type": "uint256"
            },
            {
              "internalType": "string",
              "name": "name",
              "type": "string"
            },
            {
              "internalType": "string",
              "name": "description",
              "type": "string"
            },
            {
              "internalType": "uint256",
              "name": "projectId",
              "type": "uint256"
            },
            {
              "internalType": "uint256",
              "name": "subProjectId",
              "type": "uint256"
            },
            {
              "internalType": "uint256",
              "name": "estimatedDuration",
              "type": "uint256"
            },
            {
              "internalType": "enum Task.TaskStatus",
              "name": "status",
              "type": "uint8"
            },
            {
              "internalType": "uint256",
              "name": "allocatedBudget",
              "type": "uint256"
            },
            {
              "internalType": "string",
              "name": "remark",
              "type": "string"
            },
            {
              "internalType": "uint256",
              "name": "createdAt",
              "type": "uint256"
            }
          ],
          "internalType": "struct Task.TaskInfo[]",
          "name": "",
          "type": "tuple[]"
        }
      ],
      "stateMutability": "view",
      "type": "function",
      "constant": true
    },
    {
      "inputs": [
        {
          "internalType": "uint256",
          "name": "_projectId",
          "type": "uint256"
        }
      ],
      "name": "getTaskStatusByProjectId",
      "outputs": [
        {
          "internalType": "uint256",
          "name": "approved",
          "type": "uint256"
        },
        {
          "internalType": "uint256",
          "name": "unapproved",
          "type": "uint256"
        }
      ],
      "stateMutability": "view",
      "type": "function",
      "constant": true
    },
    {
      "inputs": [
        {
          "internalType": "uint256",
          "name": "_subProjectId",
          "type": "uint256"
        }
      ],
      "name": "getTaskStatusBySubProjectId",
      "outputs": [
        {
          "internalType": "uint256",
          "name": "approved",
          "type": "uint256"
        },
        {
          "internalType": "uint256",
          "name": "unapproved",
          "type": "uint256"
        }
      ],
      "stateMutability": "view",
      "type": "function",
      "constant": true
    },
    {
      "inputs": [],
      "name": "getAllTasks",
      "outputs": [
        {
          "components": [
            {
              "internalType": "uint256",
              "name": "id",
              "type": "uint256"
            },
            {
              "internalType": "string",
              "name": "name",
              "type": "string"
            },
            {
              "internalType": "string",
              "name": "description",
              "type": "string"
            },
            {
              "internalType": "uint256",
              "name": "projectId",
              "type": "uint256"
            },
            {
              "internalType": "uint256",
              "name": "subProjectId",
              "type": "uint256"
            },
            {
              "internalType": "uint256",
              "name": "estimatedDuration",
              "type": "uint256"
            },
            {
              "internalType": "enum Task.TaskStatus",
              "name": "status",
              "type": "uint8"
            },
            {
              "internalType": "uint256",
              "name": "allocatedBudget",
              "type": "uint256"
            },
            {
              "internalType": "string",
              "name": "remark",
              "type": "string"
            },
            {
              "internalType": "uint256",
              "name": "createdAt",
              "type": "uint256"
            }
          ],
          "internalType": "struct Task.TaskInfo[]",
          "name": "",
          "type": "tuple[]"
        }
      ],
      "stateMutability": "view",
      "type": "function",
      "constant": true
    }
  ],
  "bytecode": "0x608060405234801561001057600080fd5b50611c1d806100206000396000f3fe608060405234801561001057600080fd5b5060043610610112576000357c010000000000000000000000000000000000000000000000000000000090048063779900b4116100b4578063ac105de711610083578063ac105de714610213578063c50c58cd14610226578063cb36162214610239578063ebfa80a91461024c57600080fd5b8063779900b4146101c557806392954349146101cd578063976217cd146101e0578063a83243da1461020057600080fd5b8063560f3192116100f0578063560f3192146101525780635b98535d146101655780635e0f94d3146101785780635ea62f56146101a557600080fd5b8063497085ab14610117578063505a4c551461012c578063505e7b951461013f575b600080fd5b61012a61012536600461171e565b61025f565b005b61012a61013a366004611793565b6102d3565b61012a61014d36600461181a565b610493565b61012a610160366004611899565b610510565b61012a61017336600461171e565b610584565b61018b610186366004611899565b6105ea565b604080519283526020830191909152015b60405180910390f35b6101b86101b3366004611899565b610694565b60405161019c91906119f4565b6101b86109b2565b61012a6101db36600461171e565b610cfa565b6101f36101ee366004611899565b610d60565b60405161019c9190611a55565b6101b861020e366004611899565b610fac565b61012a61022136600461171e565b6112c0565b61018b610234366004611899565b611323565b61012a61024736600461171e565b6113c7565b61012a61025a36600461171e565b61142d565b600084815260016020908152604090912060068101805460ff1916600217905584516102939260089092019186019061153e565b5033600160a060020a03164285600080516020611bc88339815191526003600287876040516102c59493929190611a6f565b60405180910390a450505050565b6000805490806102e283611ac6565b919050555060405180610140016040528060005481526020018781526020018681526020018581526020018481526020018381526020016000600781111561032c5761032c61190e565b815260200160008152602001604051806020016040528060008152508152602001426103e861035b9190611ae1565b905260008054815260016020818152604090922083518155838301518051919361038a9385019291019061153e565b50604082015180516103a691600284019160209091019061153e565b50606082015160038201556080820151600482015560a0820151600582015560c082015160068201805460ff191660018360078111156103e8576103e861190e565b021790555060e08201516007820155610100820151805161041391600884019160209091019061153e565b50610120820151816009015590505083866040516104319190611b00565b60405180910390206000547f1928f5b53d4abb4811152d21f62bcbd48d2966ec602e936aeacc3436274c04c5888787600088426103e86104719190611ae1565b60405161048396959493929190611b1c565b60405180910390a4505050505050565b60008581526001602081815260409092206007810187905560068101805460ff191690921790915584516104cf9260089092019186019061153e565b5033600160a060020a03164286600080516020611bc88339815191526000600187876040516105019493929190611a6f565b60405180910390a45050505050565b600081815260016020819052604082208281559190610531908301826115c2565b61053f6002830160006115c2565b600060038301819055600483018190556005830181905560068301805460ff19169055600783018190556105779060088401906115c2565b6009820160009055505050565b600084815260016020908152604090912060068101805460ff1916600417905584516105b89260089092019186019061153e565b5033600160a060020a03164285600080516020611bc88339815191526003600487876040516102c59493929190611a6f565b60008060015b600054811161068e57600360008281526001602052604090206006015460ff1660078111156106215761062161190e565b14801561063e575060008181526001602052604090206004015484145b156106555761064e600184611b5e565b925061067c565b60008181526001602052604090206003015484141561067c57610679600183611b5e565b91505b8061068681611ac6565b9150506105f0565b50915091565b606060006106a183611494565b905060008167ffffffffffffffff8111156106be576106be611678565b6040519080825280602002602001820160405280156106f757816020015b6106e46115ff565b8152602001906001900390816106dc5790505b509050600060015b60005461070d906001611b5e565b8110156109a85760008181526001602052604090206004015486141561099657600081815260016020818152604092839020835161014081019094528054845291820180549184019161075f90611b76565b80601f016020809104026020016040519081016040528092919081815260200182805461078b90611b76565b80156107d85780601f106107ad576101008083540402835291602001916107d8565b820191906000526020600020905b8154815290600101906020018083116107bb57829003601f168201915b505050505081526020016002820180546107f190611b76565b80601f016020809104026020016040519081016040528092919081815260200182805461081d90611b76565b801561086a5780601f1061083f5761010080835404028352916020019161086a565b820191906000526020600020905b81548152906001019060200180831161084d57829003601f168201915b5050509183525050600382015460208201526004820154604082015260058201546060820152600682015460809091019060ff1660078111156108af576108af61190e565b60078111156108c0576108c061190e565b8152602001600782015481526020016008820180546108de90611b76565b80601f016020809104026020016040519081016040528092919081815260200182805461090a90611b76565b80156109575780601f1061092c57610100808354040283529160200191610957565b820191906000526020600020905b81548152906001019060200180831161093a57829003601f168201915b5050505050815260200160098201548152505083838151811061097c5761097c611bae565b6020026020010181905250818061099290611ac6565b9250505b806109a081611ac6565b9150506106ff565b5090949350505050565b60606000805b6000546109c6906001611b5e565b811015610a0457600081815260016020526040902060030154156109f257816109ee81611ac6565b9250505b806109fc81611ac6565b9150506109b8565b5060008167ffffffffffffffff811115610a2057610a20611678565b604051908082528060200260200182016040528015610a5957816020015b610a466115ff565b815260200190600190039081610a3e5790505b509050600060015b600054610a6f906001611b5e565b811015610cf1576000818152600160208181526040928390208351610140810190945280548452918201805491840191610aa890611b76565b80601f0160208091040260200160405190810160405280929190818152602001828054610ad490611b76565b8015610b215780601f10610af657610100808354040283529160200191610b21565b820191906000526020600020905b815481529060010190602001808311610b0457829003601f168201915b50505050508152602001600282018054610b3a90611b76565b80601f0160208091040260200160405190810160405280929190818152602001828054610b6690611b76565b8015610bb35780601f10610b8857610100808354040283529160200191610bb3565b820191906000526020600020905b815481529060010190602001808311610b9657829003601f168201915b5050509183525050600382015460208201526004820154604082015260058201546060820152600682015460809091019060ff166007811115610bf857610bf861190e565b6007811115610c0957610c0961190e565b815260200160078201548152602001600882018054610c2790611b76565b80601f0160208091040260200160405190810160405280929190818152602001828054610c5390611b76565b8015610ca05780601f10610c7557610100808354040283529160200191610ca0565b820191906000526020600020905b815481529060010190602001808311610c8357829003601f168201915b50505050508152602001600982015481525050838381518110610cc557610cc5611bae565b60200260200101819052508180610cdb90611ac6565b9250508080610ce990611ac6565b915050610a61565b50909392505050565b600084815260016020908152604090912060068101805460ff191660031790558451610d2e9260089092019186019061153e565b5033600160a060020a03164285600080516020611bc88339815191526002600387876040516102c59493929190611a6f565b610d686115ff565b6000828152600160208181526040928390208351610140810190945280548452918201805491840191610d9a90611b76565b80601f0160208091040260200160405190810160405280929190818152602001828054610dc690611b76565b8015610e135780601f10610de857610100808354040283529160200191610e13565b820191906000526020600020905b815481529060010190602001808311610df657829003601f168201915b50505050508152602001600282018054610e2c90611b76565b80601f0160208091040260200160405190810160405280929190818152602001828054610e5890611b76565b8015610ea55780601f10610e7a57610100808354040283529160200191610ea5565b820191906000526020600020905b815481529060010190602001808311610e8857829003601f168201915b5050509183525050600382015460208201526004820154604082015260058201546060820152600682015460809091019060ff166007811115610eea57610eea61190e565b6007811115610efb57610efb61190e565b815260200160078201548152602001600882018054610f1990611b76565b80601f0160208091040260200160405190810160405280929190818152602001828054610f4590611b76565b8015610f925780601f10610f6757610100808354040283529160200191610f92565b820191906000526020600020905b815481529060010190602001808311610f7557829003601f168201915b505050505081526020016009820154815250509050919050565b60606000610fb9836114ec565b905060008167ffffffffffffffff811115610fd657610fd6611678565b60405190808252806020026020018201604052801561100f57816020015b610ffc6115ff565b815260200190600190039081610ff45790505b509050600060015b600054611025906001611b5e565b8110156109a8576000818152600160205260409020600301548614156112ae57600081815260016020818152604092839020835161014081019094528054845291820180549184019161107790611b76565b80601f01602080910402602001604051908101604052809291908181526020018280546110a390611b76565b80156110f05780601f106110c5576101008083540402835291602001916110f0565b820191906000526020600020905b8154815290600101906020018083116110d357829003601f168201915b5050505050815260200160028201805461110990611b76565b80601f016020809104026020016040519081016040528092919081815260200182805461113590611b76565b80156111825780601f1061115757610100808354040283529160200191611182565b820191906000526020600020905b81548152906001019060200180831161116557829003601f168201915b5050509183525050600382015460208201526004820154604082015260058201546060820152600682015460809091019060ff1660078111156111c7576111c761190e565b60078111156111d8576111d861190e565b8152602001600782015481526020016008820180546111f690611b76565b80601f016020809104026020016040519081016040528092919081815260200182805461122290611b76565b801561126f5780601f106112445761010080835404028352916020019161126f565b820191906000526020600020905b81548152906001019060200180831161125257829003601f168201915b5050505050815260200160098201548152505083838151811061129457611294611bae565b602002602001018190525081806112aa90611ac6565b9250505b806112b881611ac6565b915050611017565b600084815260016020908152604090912060068101805460ff1916905584516112f19260089092019186019061153e565b5033600160a060020a03164285600080516020611bc88339815191526001600087876040516102c59493929190611a6f565b60008060015b600054811161068e57600360008281526001602052604090206006015460ff16600781111561135a5761135a61190e565b148015611377575060008181526001602052604090206003015484145b1561138e57611387600184611b5e565b92506113b5565b6000818152600160205260409020600301548414156113b5576113b2600183611b5e565b91505b806113bf81611ac6565b915050611329565b600084815260016020908152604090912060068101805460ff1916600217905584516113fb9260089092019186019061153e565b5033600160a060020a03164285600080516020611bc88339815191526001600287876040516102c59493929190611a6f565b600084815260016020818152604090922060068101805460ff191690921790915584516114629260089092019186019061153e565b5033600160a060020a03164285600080516020611bc88339815191526002600187876040516102c59493929190611a6f565b6000805b6000546114a6906001611b5e565b8110156114e6576000818152600160205260409020600401548314156114d457816114d081611ac6565b9250505b806114de81611ac6565b915050611498565b50919050565b6000805b6000546114fe906001611b5e565b8110156114e65760008181526001602052604090206003015483141561152c578161152881611ac6565b9250505b8061153681611ac6565b9150506114f0565b82805461154a90611b76565b90600052602060002090601f01602090048101928261156c57600085556115b2565b82601f1061158557805160ff19168380011785556115b2565b828001600101855582156115b2579182015b828111156115b2578251825591602001919060010190611597565b506115be929150611663565b5090565b5080546115ce90611b76565b6000825580601f106115de575050565b601f0160209004906000526020600020908101906115fc9190611663565b50565b604051806101400160405280600081526020016060815260200160608152602001600081526020016000815260200160008152602001600060078111156116485761164861190e565b81526020016000815260200160608152602001600081525090565b5b808211156115be5760008155600101611664565b60e060020a634e487b7102600052604160045260246000fd5b600082601f8301126116a257600080fd5b813567ffffffffffffffff808211156116bd576116bd611678565b604051601f8301601f19908116603f011681019082821181831017156116e5576116e5611678565b816040528381528660208588010111156116fe57600080fd5b836020870160208301376000602085830101528094505050505092915050565b6000806000806080858703121561173457600080fd5b84359350602085013567ffffffffffffffff8082111561175357600080fd5b61175f88838901611691565b9450604087013591508082111561177557600080fd5b5061178287828801611691565b949793965093946060013593505050565b60008060008060008060c087890312156117ac57600080fd5b863567ffffffffffffffff808211156117c457600080fd5b6117d08a838b01611691565b975060208901359150808211156117e657600080fd5b506117f389828a01611691565b96999698505050506040850135946060810135946080820135945060a09091013592509050565b600080600080600060a0868803121561183257600080fd5b8535945060208601359350604086013567ffffffffffffffff8082111561185857600080fd5b61186489838a01611691565b9450606088013591508082111561187a57600080fd5b5061188788828901611691565b95989497509295608001359392505050565b6000602082840312156118ab57600080fd5b5035919050565b60005b838110156118cd5781810151838201526020016118b5565b838111156118dc576000848401525b50505050565b600081518084526118fa8160208601602086016118b2565b601f01601f19169290920160200192915050565b60e060020a634e487b7102600052602160045260246000fd5b600881106119485760e060020a634e487b7102600052602160045260246000fd5b9052565b600061014082518452602083015181602086015261196c828601826118e2565b9150506040830151848203604086015261198682826118e2565b915050606083015160608501526080830151608085015260a083015160a085015260c08301516119b960c0860182611927565b5060e083015160e085015261010080840151858303828701526119dc83826118e2565b61012095860151969095019590955250919392505050565b600060208083018184528085518083526040860191506040848202870101925083870160005b82811015611a4857603f19888603018452611a3685835161194c565b94509285019290850190600101611a1a565b5092979650505050505050565b602081526000611a68602083018461194c565b9392505050565b611a798186611927565b611a866020820185611927565b608060408201526000611a9c60808301856118e2565b905082606083015295945050505050565b60e060020a634e487b7102600052601160045260246000fd5b6000600019821415611ada57611ada611aad565b5060010190565b6000816000190483118215151615611afb57611afb611aad565b500290565b60008251611b128184602087016118b2565b9190910192915050565b60c081526000611b2f60c08301896118e2565b9050866020830152856040830152611b4a6060830186611927565b608082019390935260a00152949350505050565b60008219821115611b7157611b71611aad565b500190565b600281046001821680611b8a57607f821691505b602082108114156114e65760e060020a634e487b7102600052602260045260246000fd5b60e060020a634e487b7102600052603260045260246000fdfeca9aaf7de5fc13e89bc1d79a2219ccab59f4006340de2a425cffdd5d0989a7a1a2646970667358221220306cd90ac9e49c11ffe6b4627d850780eca4446021ad07827d7b5c2677397b3e64736f6c63430008090033",
  "immutableReferences": {},
  "source": "// SPDX-License-Identifier: MIT\n\npragma solidity ^0.8;\n\ncontract Task {\n    uint256 private count;\n\n    enum TaskStatus {\n        CREATED,\n        ALLOCATED_BY_FINANCIAL_MANAGER,\n\n        APPROVED_BY_BUDGET_AND_PROCUREMENT_MANAGER,\n        APPROVED_BY_PROJECT_MANAGER,\n        APPROVED_BY_EXTERNAL_AUDITOR,\n\n        REJECTED_BY_BUDGET_AND_PROCUREMENT_MANAGER,\n        REJECTED_BY_PROJECT_MANAGER,\n        REJECTED_BY_EXTERNAL_AUDITOR\n    }\n\n    struct TaskInfo {\n        uint256 id;\n        string name;\n        string description;\n        uint256 projectId;\n        uint256 subProjectId;\n        uint256 estimatedDuration;\n        TaskStatus status;\n        uint256 allocatedBudget;\n        string remark;\n        uint256 createdAt;\n    }\n\n    mapping(uint256 => TaskInfo) private tasks;\n\n    event AddedTask(\n        uint256 indexed id,\n        string indexed name,\n        string description,\n        uint256 indexed projectId,\n        uint256 subProjectId,\n        uint256 estimatedDuration,\n        TaskStatus status,\n        uint256 allocatedBudget,\n        uint256 createdAt\n    );\n\n    event ChangedTaskStatus(\n        uint256 indexed taskid,\n        TaskStatus from,\n        TaskStatus to,\n        uint256 indexed date,\n        address indexed changedBy,\n        string username,\n        uint256 projectId\n    );\n\n    modifier statusIs(TaskInfo memory status, uint256 id) {\n        require(tasks[id].status == TaskStatus.CREATED);\n        _;\n    }\n\n    /*\n    Function to add new task to the BC providing all useful info.\n    */\n    function addTask(\n        string memory name,\n        string memory description,\n        uint256 projectId,\n        uint256 subProjectId,\n        uint256 estimatedDuration,\n        uint256 allocatedBudget\n    ) public {\n        count++;\n        tasks[count] = TaskInfo(\n            count,\n            name,\n            description,\n            projectId,\n            subProjectId,\n            estimatedDuration,\n            TaskStatus.CREATED,\n            0,\n            '',\n            block.timestamp * 1000\n        );\n        \n        emit AddedTask(\n            count,\n            name,\n            description,\n            projectId,\n            subProjectId,\n            estimatedDuration,\n            TaskStatus.CREATED,\n            allocatedBudget,\n            block.timestamp * 1000\n        );\n    }\n\n    //TODO add modifier to check whether the sender is financial manager of a specific project\n    //TODO add modifier to check wheather the money is valid or not\n    function financialManagerSubmitBudgetAllocation(\n        uint256 taskid,\n        uint256 allocatedBudget,\n        string memory remark,\n        string memory username,\n        uint256 projectId\n\n    ) public {\n        tasks[taskid].allocatedBudget = allocatedBudget;\n        tasks[taskid].status = TaskStatus.ALLOCATED_BY_FINANCIAL_MANAGER;\n        tasks[taskid].remark = remark;\n        emit ChangedTaskStatus(taskid ,TaskStatus.CREATED, TaskStatus.ALLOCATED_BY_FINANCIAL_MANAGER, block.timestamp, msg.sender, username, projectId);\n    }\n\n    function budgetAndProcurementManagerApproveTaskCompletion(uint256 _taskId, string memory remark,string memory username,\n        uint256 projectId)\n        public\n    {\n        tasks[_taskId].status = TaskStatus.APPROVED_BY_BUDGET_AND_PROCUREMENT_MANAGER;\n        tasks[_taskId].remark = remark;\n        emit ChangedTaskStatus(_taskId ,TaskStatus.ALLOCATED_BY_FINANCIAL_MANAGER, TaskStatus.APPROVED_BY_BUDGET_AND_PROCUREMENT_MANAGER, block.timestamp, msg.sender, username, projectId);\n    }\n\n    function projectManagerApproveTaskCompletion(uint256 _taskId, string memory remark,string memory username,\n        uint256 projectId) public {\n        tasks[_taskId].status = TaskStatus.APPROVED_BY_PROJECT_MANAGER;\n        tasks[_taskId].remark = remark;\n        emit ChangedTaskStatus(_taskId ,TaskStatus.APPROVED_BY_BUDGET_AND_PROCUREMENT_MANAGER, TaskStatus.APPROVED_BY_PROJECT_MANAGER, block.timestamp, msg.sender, username, projectId);\n    }\n\n    function externalAuditorApproveTaskCompletion(uint256 _taskId, string memory remark,string memory username,\n        uint256 projectId) public {\n        tasks[_taskId].status = TaskStatus.APPROVED_BY_EXTERNAL_AUDITOR;\n        tasks[_taskId].remark = remark;\n        emit ChangedTaskStatus(_taskId ,TaskStatus.APPROVED_BY_PROJECT_MANAGER, TaskStatus.APPROVED_BY_EXTERNAL_AUDITOR, block.timestamp, msg.sender, username, projectId);\n    }\n\n    function budgetAndProcurementManagerDeclineTaskApproval(uint256 _taskId, string memory remark, string memory username,\n        uint256 projectId)\n        public\n    {\n        tasks[_taskId].status = TaskStatus.CREATED;\n        tasks[_taskId].remark = remark;\n        emit ChangedTaskStatus(_taskId ,TaskStatus.ALLOCATED_BY_FINANCIAL_MANAGER, TaskStatus.CREATED, block.timestamp, msg.sender, username, projectId);\n    }\n\n    function projectManagerDeclineTaskApproval(uint256 _taskId, string memory remark, string memory username,\n        uint256 projectId) public {\n        tasks[_taskId].status = TaskStatus.ALLOCATED_BY_FINANCIAL_MANAGER;\n        tasks[_taskId].remark = remark;\n        emit ChangedTaskStatus(_taskId ,TaskStatus.APPROVED_BY_BUDGET_AND_PROCUREMENT_MANAGER, TaskStatus.ALLOCATED_BY_FINANCIAL_MANAGER, block.timestamp, msg.sender, username, projectId);\n        }\n\n    function externalAuditorDeclinedTaskAllocation(uint256 _taskId, string memory remark,string memory username,\n        uint256 projectId) public {\n        tasks[_taskId].status = TaskStatus.APPROVED_BY_BUDGET_AND_PROCUREMENT_MANAGER;\n        tasks[_taskId].remark = remark;\n        emit ChangedTaskStatus(_taskId ,TaskStatus.APPROVED_BY_PROJECT_MANAGER, TaskStatus.APPROVED_BY_BUDGET_AND_PROCUREMENT_MANAGER, block.timestamp, msg.sender, username, projectId);\n    }\n\n    function deleteTask(uint256 _taskId) public {\n        delete tasks[_taskId];\n    }\n\n    function getTaskById(uint256 _taskId) public view returns(TaskInfo memory) {\n        return tasks[_taskId];\n    }\n\n    /*\n    As we cannot create dynamic array which we can push to, we should use this function to return the \n    length of tasks with a given project id.    \n    */\n    function getTasksCountByProjectId(uint256 _projectId) internal view returns(uint256 length) {\n        for (uint256 index = 0; index < count + 1; index++) {\n            if(tasks[index].projectId == _projectId) {\n                    length++;\n                }\n        }\n    }\n\n    /*\n    As we cannot create dynamic array which we can push to, we should use this function to return the \n    length of tasks with a given project id.    \n    */\n    function getTasksCountBySubProjectId(uint256 _subProjectId) internal view returns(uint256 length) {\n        for (uint256 index = 0; index < count + 1; index++) {\n            if(tasks[index].subProjectId == _subProjectId) {\n                    length++;\n                }\n        }\n    }\n    \n\n    /*\n    This function returns array of tasks that belong to one project\n    */\n    function getTasksListFromProjectId(uint256 _projectId) public view returns(TaskInfo[] memory) {\n        uint256 length = getTasksCountByProjectId(_projectId);\n        TaskInfo[] memory ft = new TaskInfo[](length);\n        uint256 counter = 0;\n        for (uint256 index = 1; index < count + 1; index++) {\n            if(tasks[index].projectId == _projectId) {\n                    ft[counter] = tasks[index];\n                    counter++;\n                }\n        }\n        return ft;\n    }\n\n    /*\n    This function returns array of tasks that belongs to one subproject\n    */\n    function getTasksListFromSubProjectId(uint256 _subProjectId) public view returns(TaskInfo[] memory) {\n        uint256 length = getTasksCountBySubProjectId(_subProjectId);\n        TaskInfo[] memory ft = new TaskInfo[](length);\n        uint256 counter = 0;\n        for (uint256 index = 1; index < count + 1; index++) {\n            if(tasks[index].subProjectId == _subProjectId) {\n                    ft[counter] = tasks[index];\n                    counter++;\n                }\n        }\n        return ft;\n    }\n\n    /*\n    Function to return status of completed and in progress tasks by project id\n    */\n    function getTaskStatusByProjectId(uint256 _projectId) public view returns(uint256 approved, uint256 unapproved) {\n        for (uint256 i = 1; i <= count; i++) {\n            if(tasks[i].status == TaskStatus.APPROVED_BY_PROJECT_MANAGER && tasks[i].projectId == _projectId) {\n                approved += 1;\n            }\n            else if(tasks[i].projectId == _projectId){\n                unapproved += 1;\n            }\n        }\n        return (approved, unapproved);\n    }\n\n    /*\n    Function to return status of completed and in progress tasks by sub-project id\n    */\n    function getTaskStatusBySubProjectId(uint256 _subProjectId) public view returns(uint256 approved, uint256 unapproved) {\n        for (uint256 i = 1; i <= count; i++) {\n            if(tasks[i].status == TaskStatus.APPROVED_BY_PROJECT_MANAGER && tasks[i].subProjectId == _subProjectId) {\n                approved += 1;\n            }\n            else if(tasks[i].projectId == _subProjectId){\n                unapproved += 1;\n            }\n        }\n        return (approved, unapproved);\n    }\n\n         /*\n    This function returns array of tasks so we can iterate over them\n    */\n    function getAllTasks() public view returns(TaskInfo[] memory) {\n        uint256 length;\n        for (uint256 index = 0; index < count + 1; index++) {\n            if(tasks[index].projectId != 0) {\n                    length++;\n                }\n        }\n        TaskInfo[] memory sp = new TaskInfo[](length);\n        uint256 counter = 0;\n        for (uint256 index = 1; index < count + 1; index++) {\n            sp[counter] = tasks[index];\n            counter++;\n        }\n        return sp;\n    }\n}\n",
  "sourcePath": "/home/jeremy/Desktop/fets_front_end/src/contracts/project_management/Task.sol",
  "compiler": {
    "name": "solc",
    "version": "0.8.9+commit.e5eed63a.Emscripten.clang"
  },
  "schemaVersion": "3.4.3",
  "updatedAt": "2022-06-19T21:54:34.439Z",
  "networkType": "ethereum",
  "devdoc": {
    "kind": "dev",
    "methods": {},
    "version": 1
  },
  "userdoc": {
    "kind": "user",
    "methods": {},
    "version": 1
  }
}