{
  "contractName": "Task",
  "abi": [
    {
      "anonymous": false,
      "inputs": [
        {
          "indexed": true,
          "internalType": "uint256",
          "name": "id",
          "type": "uint256"
        },
        {
          "indexed": true,
          "internalType": "string",
          "name": "name",
          "type": "string"
        },
        {
          "indexed": false,
          "internalType": "string",
          "name": "description",
          "type": "string"
        },
        {
          "indexed": true,
          "internalType": "uint256",
          "name": "projectId",
          "type": "uint256"
        },
        {
          "indexed": false,
          "internalType": "uint256",
          "name": "subProjectId",
          "type": "uint256"
        },
        {
          "indexed": false,
          "internalType": "uint256",
          "name": "estimatedDuration",
          "type": "uint256"
        },
        {
          "indexed": false,
          "internalType": "enum Task.TaskStatus",
          "name": "status",
          "type": "uint8"
        },
        {
          "indexed": false,
          "internalType": "uint256",
          "name": "allocatedBudget",
          "type": "uint256"
        },
        {
          "indexed": false,
          "internalType": "uint256",
          "name": "createdAt",
          "type": "uint256"
        }
      ],
      "name": "AddedTask",
      "type": "event"
    },
    {
      "anonymous": false,
      "inputs": [
        {
          "indexed": true,
          "internalType": "uint256",
          "name": "taskid",
          "type": "uint256"
        },
        {
          "indexed": false,
          "internalType": "enum Task.TaskStatus",
          "name": "from",
          "type": "uint8"
        },
        {
          "indexed": false,
          "internalType": "enum Task.TaskStatus",
          "name": "to",
          "type": "uint8"
        },
        {
          "indexed": true,
          "internalType": "uint256",
          "name": "date",
          "type": "uint256"
        },
        {
          "indexed": true,
          "internalType": "address",
          "name": "changedBy",
          "type": "address"
        }
      ],
      "name": "ChangeedTaskStatus",
      "type": "event"
    },
    {
      "inputs": [
        {
          "internalType": "string",
          "name": "name",
          "type": "string"
        },
        {
          "internalType": "string",
          "name": "description",
          "type": "string"
        },
        {
          "internalType": "uint256",
          "name": "projectId",
          "type": "uint256"
        },
        {
          "internalType": "uint256",
          "name": "subProjectId",
          "type": "uint256"
        },
        {
          "internalType": "uint256",
          "name": "estimatedDuration",
          "type": "uint256"
        },
        {
          "internalType": "uint256",
          "name": "allocatedBudget",
          "type": "uint256"
        }
      ],
      "name": "addTask",
      "outputs": [],
      "stateMutability": "nonpayable",
      "type": "function"
    },
    {
      "inputs": [
        {
          "internalType": "uint256",
          "name": "taskid",
          "type": "uint256"
        },
        {
          "internalType": "uint256",
          "name": "allocatedBudget",
          "type": "uint256"
        }
      ],
      "name": "financialManagerSubmitBudgetAllocation",
      "outputs": [],
      "stateMutability": "nonpayable",
      "type": "function"
    },
    {
      "inputs": [
        {
          "internalType": "uint256",
          "name": "_taskId",
          "type": "uint256"
        }
      ],
      "name": "budgetAndProcurementManagerApproveTaskCompletion",
      "outputs": [],
      "stateMutability": "nonpayable",
      "type": "function"
    },
    {
      "inputs": [
        {
          "internalType": "uint256",
          "name": "_taskId",
          "type": "uint256"
        }
      ],
      "name": "projectManagerApproveTaskCompletion",
      "outputs": [],
      "stateMutability": "nonpayable",
      "type": "function"
    },
    {
      "inputs": [
        {
          "internalType": "uint256",
          "name": "_taskId",
          "type": "uint256"
        }
      ],
      "name": "externalAuditorApproveTaskCompletion",
      "outputs": [],
      "stateMutability": "nonpayable",
      "type": "function"
    },
    {
      "inputs": [
        {
          "internalType": "uint256",
          "name": "_taskId",
          "type": "uint256"
        }
      ],
      "name": "deleteTask",
      "outputs": [],
      "stateMutability": "nonpayable",
      "type": "function"
    },
    {
      "inputs": [
        {
          "internalType": "uint256",
          "name": "_taskId",
          "type": "uint256"
        }
      ],
      "name": "getTaskById",
      "outputs": [
        {
          "components": [
            {
              "internalType": "uint256",
              "name": "id",
              "type": "uint256"
            },
            {
              "internalType": "string",
              "name": "name",
              "type": "string"
            },
            {
              "internalType": "string",
              "name": "description",
              "type": "string"
            },
            {
              "internalType": "uint256",
              "name": "projectId",
              "type": "uint256"
            },
            {
              "internalType": "uint256",
              "name": "subProjectId",
              "type": "uint256"
            },
            {
              "internalType": "uint256",
              "name": "estimatedDuration",
              "type": "uint256"
            },
            {
              "internalType": "enum Task.TaskStatus",
              "name": "status",
              "type": "uint8"
            },
            {
              "internalType": "uint256",
              "name": "allocatedBudget",
              "type": "uint256"
            },
            {
              "internalType": "string",
              "name": "remark",
              "type": "string"
            },
            {
              "internalType": "uint256",
              "name": "createdAt",
              "type": "uint256"
            }
          ],
          "internalType": "struct Task.TaskInfo",
          "name": "",
          "type": "tuple"
        }
      ],
      "stateMutability": "view",
      "type": "function",
      "constant": true
    },
    {
      "inputs": [
        {
          "internalType": "uint256",
          "name": "_projectId",
          "type": "uint256"
        }
      ],
      "name": "getTasksListFromProjectId",
      "outputs": [
        {
          "components": [
            {
              "internalType": "uint256",
              "name": "id",
              "type": "uint256"
            },
            {
              "internalType": "string",
              "name": "name",
              "type": "string"
            },
            {
              "internalType": "string",
              "name": "description",
              "type": "string"
            },
            {
              "internalType": "uint256",
              "name": "projectId",
              "type": "uint256"
            },
            {
              "internalType": "uint256",
              "name": "subProjectId",
              "type": "uint256"
            },
            {
              "internalType": "uint256",
              "name": "estimatedDuration",
              "type": "uint256"
            },
            {
              "internalType": "enum Task.TaskStatus",
              "name": "status",
              "type": "uint8"
            },
            {
              "internalType": "uint256",
              "name": "allocatedBudget",
              "type": "uint256"
            },
            {
              "internalType": "string",
              "name": "remark",
              "type": "string"
            },
            {
              "internalType": "uint256",
              "name": "createdAt",
              "type": "uint256"
            }
          ],
          "internalType": "struct Task.TaskInfo[]",
          "name": "",
          "type": "tuple[]"
        }
      ],
      "stateMutability": "view",
      "type": "function",
      "constant": true
    },
    {
      "inputs": [
        {
          "internalType": "uint256",
          "name": "_subProjectId",
          "type": "uint256"
        }
      ],
      "name": "getTasksListFromSubProjectId",
      "outputs": [
        {
          "components": [
            {
              "internalType": "uint256",
              "name": "id",
              "type": "uint256"
            },
            {
              "internalType": "string",
              "name": "name",
              "type": "string"
            },
            {
              "internalType": "string",
              "name": "description",
              "type": "string"
            },
            {
              "internalType": "uint256",
              "name": "projectId",
              "type": "uint256"
            },
            {
              "internalType": "uint256",
              "name": "subProjectId",
              "type": "uint256"
            },
            {
              "internalType": "uint256",
              "name": "estimatedDuration",
              "type": "uint256"
            },
            {
              "internalType": "enum Task.TaskStatus",
              "name": "status",
              "type": "uint8"
            },
            {
              "internalType": "uint256",
              "name": "allocatedBudget",
              "type": "uint256"
            },
            {
              "internalType": "string",
              "name": "remark",
              "type": "string"
            },
            {
              "internalType": "uint256",
              "name": "createdAt",
              "type": "uint256"
            }
          ],
          "internalType": "struct Task.TaskInfo[]",
          "name": "",
          "type": "tuple[]"
        }
      ],
      "stateMutability": "view",
      "type": "function",
      "constant": true
    },
    {
      "inputs": [
        {
          "internalType": "uint256",
          "name": "_projectId",
          "type": "uint256"
        }
      ],
      "name": "getTaskStatusByProjectId",
      "outputs": [
        {
          "internalType": "uint256",
          "name": "approved",
          "type": "uint256"
        },
        {
          "internalType": "uint256",
          "name": "unapproved",
          "type": "uint256"
        }
      ],
      "stateMutability": "view",
      "type": "function",
      "constant": true
    },
    {
      "inputs": [
        {
          "internalType": "uint256",
          "name": "_subProjectId",
          "type": "uint256"
        }
      ],
      "name": "getTaskStatusBySubProjectId",
      "outputs": [
        {
          "internalType": "uint256",
          "name": "approved",
          "type": "uint256"
        },
        {
          "internalType": "uint256",
          "name": "unapproved",
          "type": "uint256"
        }
      ],
      "stateMutability": "view",
      "type": "function",
      "constant": true
    },
    {
      "inputs": [],
      "name": "getAllTasks",
      "outputs": [
        {
          "components": [
            {
              "internalType": "uint256",
              "name": "id",
              "type": "uint256"
            },
            {
              "internalType": "string",
              "name": "name",
              "type": "string"
            },
            {
              "internalType": "string",
              "name": "description",
              "type": "string"
            },
            {
              "internalType": "uint256",
              "name": "projectId",
              "type": "uint256"
            },
            {
              "internalType": "uint256",
              "name": "subProjectId",
              "type": "uint256"
            },
            {
              "internalType": "uint256",
              "name": "estimatedDuration",
              "type": "uint256"
            },
            {
              "internalType": "enum Task.TaskStatus",
              "name": "status",
              "type": "uint8"
            },
            {
              "internalType": "uint256",
              "name": "allocatedBudget",
              "type": "uint256"
            },
            {
              "internalType": "string",
              "name": "remark",
              "type": "string"
            },
            {
              "internalType": "uint256",
              "name": "createdAt",
              "type": "uint256"
            }
          ],
          "internalType": "struct Task.TaskInfo[]",
          "name": "",
          "type": "tuple[]"
        }
      ],
      "stateMutability": "view",
      "type": "function",
      "constant": true
    }
  ],
  "bytecode": "0x608060405234801561001057600080fd5b506120ef806100206000396000f3fe608060405234801561001057600080fd5b50600436106100b45760003560e01c80638c1d4efa116100715780638c1d4efa1461018c578063976217cd146101a8578063a83243da146101d8578063c50c58cd14610208578063c6086e8414610239578063f521bfde14610255576100b4565b80633f699b71146100b9578063505a4c55146100d5578063560f3192146100f15780635e0f94d31461010d5780635ea62f561461013e578063779900b41461016e575b600080fd5b6100d360048036038101906100ce919061178a565b610271565b005b6100ef60048036038101906100ea91906118fd565b610307565b005b61010b6004803603810190610106919061178a565b6104c9565b005b6101276004803603810190610122919061178a565b610556565b6040516101359291906119d1565b60405180910390f35b6101586004803603810190610153919061178a565b610636565b6040516101659190611cb2565b60405180910390f35b610176610971565b6040516101839190611cb2565b60405180910390f35b6101a660048036038101906101a1919061178a565b610cdd565b005b6101c260048036038101906101bd919061178a565b610d73565b6040516101cf9190611dbc565b60405180910390f35b6101f260048036038101906101ed919061178a565b610fce565b6040516101ff9190611cb2565b60405180910390f35b610222600480360381019061021d919061178a565b611309565b6040516102309291906119d1565b60405180910390f35b610253600480360381019061024e919061178a565b6113e9565b005b61026f600480360381019061026a9190611dde565b61147f565b005b60046001600083815260200190815260200160002060060160006101000a81548160ff021916908360078111156102ab576102aa611abd565b5b02179055503373ffffffffffffffffffffffffffffffffffffffff1642827f42ca22b58274c0d3dce198b7a71dea299d40e7d46bcd2e854c1578e93b4e249a600360046040516102fc929190611e2d565b60405180910390a450565b60008081548092919061031990611e85565b919050555060405180610140016040528060005481526020018781526020018681526020018581526020018481526020018381526020016000600781111561036457610363611abd565b5b8152602001600081526020016040518060200160405280600081525081526020014281525060016000805481526020019081526020016000206000820151816000015560208201518160010190805190602001906103c39291906115f8565b5060408201518160020190805190602001906103e09291906115f8565b50606082015181600301556080820151816004015560a0820151816005015560c08201518160060160006101000a81548160ff0219169083600781111561042a57610429611abd565b5b021790555060e082015181600701556101008201518160080190805190602001906104569291906115f8565b50610120820151816009015590505083866040516104749190611f0a565b60405180910390206000547f1928f5b53d4abb4811152d21f62bcbd48d2966ec602e936aeacc3436274c04c5888787600088426040516104b996959493929190611f6b565b60405180910390a4505050505050565b600160008281526020019081526020016000206000808201600090556001820160006104f5919061167e565b600282016000610505919061167e565b6003820160009055600482016000905560058201600090556006820160006101000a81549060ff02191690556007820160009055600882016000610549919061167e565b6009820160009055505050565b6000806000600190505b6000548111610630576003600781111561057d5761057c611abd565b5b6001600083815260200190815260200160002060060160009054906101000a900460ff1660078111156105b3576105b2611abd565b5b1480156105d55750836001600083815260200190815260200160002060040154145b156105ee576001836105e79190611fd3565b925061061d565b836001600083815260200190815260200160002060030154141561061c576001826106199190611fd3565b91505b5b808061062890611e85565b915050610560565b50915091565b6060600061064383611530565b905060008167ffffffffffffffff811115610661576106606117d2565b5b60405190808252806020026020018201604052801561069a57816020015b6106876116be565b81526020019060019003908161067f5790505b509050600080600190505b60016000546106b49190611fd3565b8110156109655785600160008381526020019081526020016000206004015414156109525760016000828152602001908152602001600020604051806101400160405290816000820154815260200160018201805461071290612058565b80601f016020809104026020016040519081016040528092919081815260200182805461073e90612058565b801561078b5780601f106107605761010080835404028352916020019161078b565b820191906000526020600020905b81548152906001019060200180831161076e57829003601f168201915b505050505081526020016002820180546107a490612058565b80601f01602080910402602001604051908101604052809291908181526020018280546107d090612058565b801561081d5780601f106107f25761010080835404028352916020019161081d565b820191906000526020600020905b81548152906001019060200180831161080057829003601f168201915b505050505081526020016003820154815260200160048201548152602001600582015481526020016006820160009054906101000a900460ff16600781111561086957610868611abd565b5b600781111561087b5761087a611abd565b5b81526020016007820154815260200160088201805461089990612058565b80601f01602080910402602001604051908101604052809291908181526020018280546108c590612058565b80156109125780601f106108e757610100808354040283529160200191610912565b820191906000526020600020905b8154815290600101906020018083116108f557829003601f168201915b505050505081526020016009820154815250508383815181106109385761093761208a565b5b6020026020010181905250818061094e90611e85565b9250505b808061095d90611e85565b9150506106a5565b50819350505050919050565b6060600080600090505b600160005461098a9190611fd3565b8110156109d15760006001600083815260200190815260200160002060030154146109be5781806109ba90611e85565b9250505b80806109c990611e85565b91505061097b565b5060008167ffffffffffffffff8111156109ee576109ed6117d2565b5b604051908082528060200260200182016040528015610a2757816020015b610a146116be565b815260200190600190039081610a0c5790505b509050600080600190505b6001600054610a419190611fd3565b811015610cd357600160008281526020019081526020016000206040518061014001604052908160008201548152602001600182018054610a8190612058565b80601f0160208091040260200160405190810160405280929190818152602001828054610aad90612058565b8015610afa5780601f10610acf57610100808354040283529160200191610afa565b820191906000526020600020905b815481529060010190602001808311610add57829003601f168201915b50505050508152602001600282018054610b1390612058565b80601f0160208091040260200160405190810160405280929190818152602001828054610b3f90612058565b8015610b8c5780601f10610b6157610100808354040283529160200191610b8c565b820191906000526020600020905b815481529060010190602001808311610b6f57829003601f168201915b505050505081526020016003820154815260200160048201548152602001600582015481526020016006820160009054906101000a900460ff166007811115610bd857610bd7611abd565b5b6007811115610bea57610be9611abd565b5b815260200160078201548152602001600882018054610c0890612058565b80601f0160208091040260200160405190810160405280929190818152602001828054610c3490612058565b8015610c815780601f10610c5657610100808354040283529160200191610c81565b820191906000526020600020905b815481529060010190602001808311610c6457829003601f168201915b50505050508152602001600982015481525050838381518110610ca757610ca661208a565b5b60200260200101819052508180610cbd90611e85565b9250508080610ccb90611e85565b915050610a32565b5081935050505090565b60026001600083815260200190815260200160002060060160006101000a81548160ff02191690836007811115610d1757610d16611abd565b5b02179055503373ffffffffffffffffffffffffffffffffffffffff1642827f42ca22b58274c0d3dce198b7a71dea299d40e7d46bcd2e854c1578e93b4e249a60016002604051610d68929190611e2d565b60405180910390a450565b610d7b6116be565b600160008381526020019081526020016000206040518061014001604052908160008201548152602001600182018054610db490612058565b80601f0160208091040260200160405190810160405280929190818152602001828054610de090612058565b8015610e2d5780601f10610e0257610100808354040283529160200191610e2d565b820191906000526020600020905b815481529060010190602001808311610e1057829003601f168201915b50505050508152602001600282018054610e4690612058565b80601f0160208091040260200160405190810160405280929190818152602001828054610e7290612058565b8015610ebf5780601f10610e9457610100808354040283529160200191610ebf565b820191906000526020600020905b815481529060010190602001808311610ea257829003601f168201915b505050505081526020016003820154815260200160048201548152602001600582015481526020016006820160009054906101000a900460ff166007811115610f0b57610f0a611abd565b5b6007811115610f1d57610f1c611abd565b5b815260200160078201548152602001600882018054610f3b90612058565b80601f0160208091040260200160405190810160405280929190818152602001828054610f6790612058565b8015610fb45780601f10610f8957610100808354040283529160200191610fb4565b820191906000526020600020905b815481529060010190602001808311610f9757829003601f168201915b505050505081526020016009820154815250509050919050565b60606000610fdb83611594565b905060008167ffffffffffffffff811115610ff957610ff86117d2565b5b60405190808252806020026020018201604052801561103257816020015b61101f6116be565b8152602001906001900390816110175790505b509050600080600190505b600160005461104c9190611fd3565b8110156112fd5785600160008381526020019081526020016000206003015414156112ea576001600082815260200190815260200160002060405180610140016040529081600082015481526020016001820180546110aa90612058565b80601f01602080910402602001604051908101604052809291908181526020018280546110d690612058565b80156111235780601f106110f857610100808354040283529160200191611123565b820191906000526020600020905b81548152906001019060200180831161110657829003601f168201915b5050505050815260200160028201805461113c90612058565b80601f016020809104026020016040519081016040528092919081815260200182805461116890612058565b80156111b55780601f1061118a576101008083540402835291602001916111b5565b820191906000526020600020905b81548152906001019060200180831161119857829003601f168201915b505050505081526020016003820154815260200160048201548152602001600582015481526020016006820160009054906101000a900460ff16600781111561120157611200611abd565b5b600781111561121357611212611abd565b5b81526020016007820154815260200160088201805461123190612058565b80601f016020809104026020016040519081016040528092919081815260200182805461125d90612058565b80156112aa5780601f1061127f576101008083540402835291602001916112aa565b820191906000526020600020905b81548152906001019060200180831161128d57829003601f168201915b505050505081526020016009820154815250508383815181106112d0576112cf61208a565b5b602002602001018190525081806112e690611e85565b9250505b80806112f590611e85565b91505061103d565b50819350505050919050565b6000806000600190505b60005481116113e357600360078111156113305761132f611abd565b5b6001600083815260200190815260200160002060060160009054906101000a900460ff16600781111561136657611365611abd565b5b1480156113885750836001600083815260200190815260200160002060030154145b156113a15760018361139a9190611fd3565b92506113d0565b83600160008381526020019081526020016000206003015414156113cf576001826113cc9190611fd3565b91505b5b80806113db90611e85565b915050611313565b50915091565b60036001600083815260200190815260200160002060060160006101000a81548160ff0219169083600781111561142357611422611abd565b5b02179055503373ffffffffffffffffffffffffffffffffffffffff1642827f42ca22b58274c0d3dce198b7a71dea299d40e7d46bcd2e854c1578e93b4e249a60026003604051611474929190611e2d565b60405180910390a450565b806001600084815260200190815260200160002060070181905550600180600084815260200190815260200160002060060160006101000a81548160ff021916908360078111156114d3576114d2611abd565b5b02179055503373ffffffffffffffffffffffffffffffffffffffff1642837f42ca22b58274c0d3dce198b7a71dea299d40e7d46bcd2e854c1578e93b4e249a60006001604051611524929190611e2d565b60405180910390a45050565b600080600090505b60016000546115479190611fd3565b81101561158e57826001600083815260200190815260200160002060040154141561157b57818061157790611e85565b9250505b808061158690611e85565b915050611538565b50919050565b600080600090505b60016000546115ab9190611fd3565b8110156115f25782600160008381526020019081526020016000206003015414156115df5781806115db90611e85565b9250505b80806115ea90611e85565b91505061159c565b50919050565b82805461160490612058565b90600052602060002090601f016020900481019282611626576000855561166d565b82601f1061163f57805160ff191683800117855561166d565b8280016001018555821561166d579182015b8281111561166c578251825591602001919060010190611651565b5b50905061167a9190611723565b5090565b50805461168a90612058565b6000825580601f1061169c57506116bb565b601f0160209004906000526020600020908101906116ba9190611723565b5b50565b6040518061014001604052806000815260200160608152602001606081526020016000815260200160008152602001600081526020016000600781111561170857611707611abd565b5b81526020016000815260200160608152602001600081525090565b5b8082111561173c576000816000905550600101611724565b5090565b6000604051905090565b600080fd5b600080fd5b6000819050919050565b61176781611754565b811461177257600080fd5b50565b6000813590506117848161175e565b92915050565b6000602082840312156117a05761179f61174a565b5b60006117ae84828501611775565b91505092915050565b600080fd5b600080fd5b6000601f19601f8301169050919050565b7f4e487b7100000000000000000000000000000000000000000000000000000000600052604160045260246000fd5b61180a826117c1565b810181811067ffffffffffffffff82111715611829576118286117d2565b5b80604052505050565b600061183c611740565b90506118488282611801565b919050565b600067ffffffffffffffff821115611868576118676117d2565b5b611871826117c1565b9050602081019050919050565b82818337600083830152505050565b60006118a061189b8461184d565b611832565b9050828152602081018484840111156118bc576118bb6117bc565b5b6118c784828561187e565b509392505050565b600082601f8301126118e4576118e36117b7565b5b81356118f484826020860161188d565b91505092915050565b60008060008060008060c0878903121561191a5761191961174a565b5b600087013567ffffffffffffffff8111156119385761193761174f565b5b61194489828a016118cf565b965050602087013567ffffffffffffffff8111156119655761196461174f565b5b61197189828a016118cf565b955050604061198289828a01611775565b945050606061199389828a01611775565b93505060806119a489828a01611775565b92505060a06119b589828a01611775565b9150509295509295509295565b6119cb81611754565b82525050565b60006040820190506119e660008301856119c2565b6119f360208301846119c2565b9392505050565b600081519050919050565b600082825260208201905092915050565b6000819050602082019050919050565b611a2f81611754565b82525050565b600081519050919050565b600082825260208201905092915050565b60005b83811015611a6f578082015181840152602081019050611a54565b83811115611a7e576000848401525b50505050565b6000611a8f82611a35565b611a998185611a40565b9350611aa9818560208601611a51565b611ab2816117c1565b840191505092915050565b7f4e487b7100000000000000000000000000000000000000000000000000000000600052602160045260246000fd5b60088110611afd57611afc611abd565b5b50565b6000819050611b0e82611aec565b919050565b6000611b1e82611b00565b9050919050565b611b2e81611b13565b82525050565b600061014083016000830151611b4d6000860182611a26565b5060208301518482036020860152611b658282611a84565b91505060408301518482036040860152611b7f8282611a84565b9150506060830151611b946060860182611a26565b506080830151611ba76080860182611a26565b5060a0830151611bba60a0860182611a26565b5060c0830151611bcd60c0860182611b25565b5060e0830151611be060e0860182611a26565b50610100830151848203610100860152611bfa8282611a84565b915050610120830151611c11610120860182611a26565b508091505092915050565b6000611c288383611b34565b905092915050565b6000602082019050919050565b6000611c48826119fa565b611c528185611a05565b935083602082028501611c6485611a16565b8060005b85811015611ca05784840389528151611c818582611c1c565b9450611c8c83611c30565b925060208a01995050600181019050611c68565b50829750879550505050505092915050565b60006020820190508181036000830152611ccc8184611c3d565b905092915050565b600061014083016000830151611ced6000860182611a26565b5060208301518482036020860152611d058282611a84565b91505060408301518482036040860152611d1f8282611a84565b9150506060830151611d346060860182611a26565b506080830151611d476080860182611a26565b5060a0830151611d5a60a0860182611a26565b5060c0830151611d6d60c0860182611b25565b5060e0830151611d8060e0860182611a26565b50610100830151848203610100860152611d9a8282611a84565b915050610120830151611db1610120860182611a26565b508091505092915050565b60006020820190508181036000830152611dd68184611cd4565b905092915050565b60008060408385031215611df557611df461174a565b5b6000611e0385828601611775565b9250506020611e1485828601611775565b9150509250929050565b611e2781611b13565b82525050565b6000604082019050611e426000830185611e1e565b611e4f6020830184611e1e565b9392505050565b7f4e487b7100000000000000000000000000000000000000000000000000000000600052601160045260246000fd5b6000611e9082611754565b91507fffffffffffffffffffffffffffffffffffffffffffffffffffffffffffffffff821415611ec357611ec2611e56565b5b600182019050919050565b600081905092915050565b6000611ee482611a35565b611eee8185611ece565b9350611efe818560208601611a51565b80840191505092915050565b6000611f168284611ed9565b915081905092915050565b600082825260208201905092915050565b6000611f3d82611a35565b611f478185611f21565b9350611f57818560208601611a51565b611f60816117c1565b840191505092915050565b600060c0820190508181036000830152611f858189611f32565b9050611f9460208301886119c2565b611fa160408301876119c2565b611fae6060830186611e1e565b611fbb60808301856119c2565b611fc860a08301846119c2565b979650505050505050565b6000611fde82611754565b9150611fe983611754565b9250827fffffffffffffffffffffffffffffffffffffffffffffffffffffffffffffffff0382111561201e5761201d611e56565b5b828201905092915050565b7f4e487b7100000000000000000000000000000000000000000000000000000000600052602260045260246000fd5b6000600282049050600182168061207057607f821691505b6020821081141561208457612083612029565b5b50919050565b7f4e487b7100000000000000000000000000000000000000000000000000000000600052603260045260246000fdfea2646970667358221220986c829fdb55b8cdc86ae2070184374de980a6a4dbf7697231f2673ed2d54d3264736f6c63430008090033",
  "immutableReferences": {},
  "source": "// SPDX-License-Identifier: MIT\n\npragma solidity ^0.8;\n\ncontract Task {\n    uint256 private count;\n\n    enum TaskStatus {\n        CREATED,\n        ALLOCATED_BY_FINANCIAL_MANAGER,\n\n        APPROVED_BY_BUDGET_AND_PROCUREMENT_MANAGER,\n        APPROVED_BY_PROJECT_MANAGER,\n        APPROVED_BY_EXTERNAL_AUDITOR,\n\n        REJECTED_BY_BUDGET_AND_PROCUREMENT_MANAGER,\n        REJECTED_BY_PROJECT_MANAGER,\n        REJECTED_BY_EXTERNAL_AUDITOR\n    }\n\n    struct TaskInfo {\n        uint256 id;\n        string name;\n        string description;\n        uint256 projectId;\n        uint256 subProjectId;\n        uint256 estimatedDuration;\n        TaskStatus status;\n        uint256 allocatedBudget;\n        string remark;\n        uint256 createdAt;\n    }\n\n    mapping(uint256 => TaskInfo) private tasks;\n\n    event AddedTask(\n        uint256 indexed id,\n        string indexed name,\n        string description,\n        uint256 indexed projectId,\n        uint256 subProjectId,\n        uint256 estimatedDuration,\n        TaskStatus status,\n        uint256 allocatedBudget,\n        uint256 createdAt\n    );\n\n    event ChangeedTaskStatus(\n        uint256 indexed taskid,\n        TaskStatus from,\n        TaskStatus to,\n        uint256 indexed date,\n        address indexed changedBy\n    );\n\n    modifier statusIs(TaskInfo memory status, uint256 id) {\n        require(tasks[id].status == TaskStatus.CREATED);\n        _;\n    }\n\n    /*\n    Function to add new task to the BC providing all useful info.\n    */\n    function addTask(\n        string memory name,\n        string memory description,\n        uint256 projectId,\n        uint256 subProjectId,\n        uint256 estimatedDuration,\n        uint256 allocatedBudget\n    ) public {\n        count++;\n        tasks[count] = TaskInfo(\n            count,\n            name,\n            description,\n            projectId,\n            subProjectId,\n            estimatedDuration,\n            TaskStatus.CREATED,\n            0,\n            '',\n            block.timestamp\n        );\n        \n        emit AddedTask(\n            count,\n            name,\n            description,\n            projectId,\n            subProjectId,\n            estimatedDuration,\n            TaskStatus.CREATED,\n            allocatedBudget,\n            block.timestamp\n        );\n    }\n\n    //TODO add modifier to check whether the sender is financial manager of a specific project\n    //TODO add modifier to check wheather the money is valid or not\n    function financialManagerSubmitBudgetAllocation(\n        uint256 taskid,\n        uint256 allocatedBudget\n    ) public {\n        tasks[taskid].allocatedBudget = allocatedBudget;\n        tasks[taskid].status = TaskStatus.ALLOCATED_BY_FINANCIAL_MANAGER;\n        emit ChangeedTaskStatus(taskid ,TaskStatus.CREATED, TaskStatus.ALLOCATED_BY_FINANCIAL_MANAGER, block.timestamp, msg.sender);\n    }\n\n    function budgetAndProcurementManagerApproveTaskCompletion(uint256 _taskId)\n        public\n    {\n        tasks[_taskId].status = TaskStatus.APPROVED_BY_BUDGET_AND_PROCUREMENT_MANAGER;\n        emit ChangeedTaskStatus(_taskId ,TaskStatus.ALLOCATED_BY_FINANCIAL_MANAGER, TaskStatus.APPROVED_BY_BUDGET_AND_PROCUREMENT_MANAGER, block.timestamp, msg.sender);\n    }\n\n    function projectManagerApproveTaskCompletion(uint256 _taskId) public {\n        tasks[_taskId].status = TaskStatus.APPROVED_BY_PROJECT_MANAGER;\n        emit ChangeedTaskStatus(_taskId ,TaskStatus.APPROVED_BY_BUDGET_AND_PROCUREMENT_MANAGER, TaskStatus.APPROVED_BY_PROJECT_MANAGER, block.timestamp, msg.sender);\n    }\n\n    function externalAuditorApproveTaskCompletion(uint256 _taskId) public {\n         tasks[_taskId].status = TaskStatus.APPROVED_BY_EXTERNAL_AUDITOR;\n        emit ChangeedTaskStatus(_taskId ,TaskStatus.APPROVED_BY_PROJECT_MANAGER, TaskStatus.APPROVED_BY_EXTERNAL_AUDITOR, block.timestamp, msg.sender);\n    }\n\n    function deleteTask(uint256 _taskId) public {\n        delete tasks[_taskId];\n    }\n\n    function getTaskById(uint256 _taskId) public view returns(TaskInfo memory) {\n        return tasks[_taskId];\n    }\n\n    /*\n    As we cannot create dynamic array which we can push to, we should use this function to return the \n    length of tasks with a given project id.    \n    */\n    function getTasksCountByProjectId(uint256 _projectId) internal view returns(uint256 length) {\n        for (uint256 index = 0; index < count + 1; index++) {\n            if(tasks[index].projectId == _projectId) {\n                    length++;\n                }\n        }\n    }\n\n    /*\n    As we cannot create dynamic array which we can push to, we should use this function to return the \n    length of tasks with a given project id.    \n    */\n    function getTasksCountBySubProjectId(uint256 _subProjectId) internal view returns(uint256 length) {\n        for (uint256 index = 0; index < count + 1; index++) {\n            if(tasks[index].subProjectId == _subProjectId) {\n                    length++;\n                }\n        }\n    }\n    \n\n    /*\n    This function returns array of tasks that belong to one project\n    */\n    function getTasksListFromProjectId(uint256 _projectId) public view returns(TaskInfo[] memory) {\n        uint256 length = getTasksCountByProjectId(_projectId);\n        TaskInfo[] memory ft = new TaskInfo[](length);\n        uint256 counter = 0;\n        for (uint256 index = 1; index < count + 1; index++) {\n            if(tasks[index].projectId == _projectId) {\n                    ft[counter] = tasks[index];\n                    counter++;\n                }\n        }\n        return ft;\n    }\n\n    /*\n    This function returns array of tasks that belongs to one subproject\n    */\n    function getTasksListFromSubProjectId(uint256 _subProjectId) public view returns(TaskInfo[] memory) {\n        uint256 length = getTasksCountBySubProjectId(_subProjectId);\n        TaskInfo[] memory ft = new TaskInfo[](length);\n        uint256 counter = 0;\n        for (uint256 index = 1; index < count + 1; index++) {\n            if(tasks[index].subProjectId == _subProjectId) {\n                    ft[counter] = tasks[index];\n                    counter++;\n                }\n        }\n        return ft;\n    }\n\n    /*\n    Function to return status of completed and in progress tasks by project id\n    */\n    function getTaskStatusByProjectId(uint256 _projectId) public view returns(uint256 approved, uint256 unapproved) {\n        for (uint256 i = 1; i <= count; i++) {\n            if(tasks[i].status == TaskStatus.APPROVED_BY_PROJECT_MANAGER && tasks[i].projectId == _projectId) {\n                approved += 1;\n            }\n            else if(tasks[i].projectId == _projectId){\n                unapproved += 1;\n            }\n        }\n        return (approved, unapproved);\n    }\n\n    /*\n    Function to return status of completed and in progress tasks by sub-project id\n    */\n    function getTaskStatusBySubProjectId(uint256 _subProjectId) public view returns(uint256 approved, uint256 unapproved) {\n        for (uint256 i = 1; i <= count; i++) {\n            if(tasks[i].status == TaskStatus.APPROVED_BY_PROJECT_MANAGER && tasks[i].subProjectId == _subProjectId) {\n                approved += 1;\n            }\n            else if(tasks[i].projectId == _subProjectId){\n                unapproved += 1;\n            }\n        }\n        return (approved, unapproved);\n    }\n\n         /*\n    This function returns array of tasks so we can iterate over them\n    */\n    function getAllTasks() public view returns(TaskInfo[] memory) {\n        uint256 length;\n        for (uint256 index = 0; index < count + 1; index++) {\n            if(tasks[index].projectId != 0) {\n                    length++;\n                }\n        }\n        TaskInfo[] memory sp = new TaskInfo[](length);\n        uint256 counter = 0;\n        for (uint256 index = 1; index < count + 1; index++) {\n            sp[counter] = tasks[index];\n            counter++;\n        }\n        return sp;\n    }\n}\n",
  "sourcePath": "/home/bone/WebProjects/fets_front_end/src/contracts/project_management/Task.sol",
  "compiler": {
    "name": "solc",
    "version": "0.8.9+commit.e5eed63a.Emscripten.clang"
  },
  "schemaVersion": "3.4.7",
  "updatedAt": "2022-06-03T07:50:41.078Z",
  "networkType": "ethereum",
  "devdoc": {
    "kind": "dev",
    "methods": {},
    "version": 1
  },
  "userdoc": {
    "kind": "user",
    "methods": {},
    "version": 1
  }
}