{
  "contractName": "TestsAccounts",
  "abi": [
    {
      "inputs": [
        {
          "internalType": "uint256",
          "name": "index",
          "type": "uint256"
        }
      ],
      "name": "getAccount",
      "outputs": [
        {
          "internalType": "address",
          "name": "",
          "type": "address"
        }
      ],
      "stateMutability": "pure",
      "type": "function"
    }
  ],
  "bytecode": "0x6102e1610053600b82828239805160001a607314610046577f4e487b7100000000000000000000000000000000000000000000000000000000600052600060045260246000fd5b30600052607381538281f3fe7300000000000000000000000000000000000000003014608060405260043610610051577c01000000000000000000000000000000000000000000000000000000006000350463ce88b1458114610056575b600080fd5b610069610064366004610263565b610092565b60405173ffffffffffffffffffffffffffffffffffffffff909116815260200160405180910390f35b600061009c610244565b735b38da6a701c568545dcfcb03fcb875f56beddc4815273ab8483f64d9c6d1ecf9b849ae677dd3315835cb26020820152734b20993bc481177ec7e8f571cecae8a9e22c02db60408201527378731d3ca6b7e34ac0f824c42a7cc18a495cabab606082015273617f2e2fd72fd9d5503197092ac168c91465e7f260808201527317f6ad8ef982297579c203069c1dbffe4348c37260a0820152735c6b0f7bf3e7ce046039bd8fabdfd3f9f502167860c08201527303c6fced478cbbc9a4fab34ef9f40767739d1ff760e0820152731ae0ea34a72d944a8c7603ffb3ec30a6669e454c610100820152730a098eda01ce92ff4a4ccb7a4fffb5a43ebc70dc61012082015273ca35b7d915458ef540ade6068dfe2f44e8fa733c6101408201527314723a09acff6d2a60dcdf7aa4aff308fddc160c610160820152734b0897b0513fdc7c541b6d9d7e929c4e5364d2db61018082015273583031d1113ad414f02576bd6afabfb3021402256101a082015273dd870fa1b7c4700f2bd7f44238821c26f73921486101c08201528083600f81106102385761023861027c565b60200201519392505050565b604051806101e00160405280600f906020820280368337509192915050565b60006020828403121561027557600080fd5b5035919050565b7f4e487b7100000000000000000000000000000000000000000000000000000000600052603260045260246000fdfea26469706673582212204d7c71756a6e977bf7d3b1e1c9a5d39eeec2dc50643854265948fb8967a6a2e364736f6c63430008090033",
  "immutableReferences": {},
  "source": "// SPDX-License-Identifier: GPL-3.0\n\npragma solidity >=0.4.22 <0.9.0;\n\nlibrary TestsAccounts {\n    function getAccount(uint index) pure public returns (address) {\n        address[15] memory accounts;\n\t\taccounts[0] = 0x5B38Da6a701c568545dCfcB03FcB875f56beddC4;\n\n\t\taccounts[1] = 0xAb8483F64d9C6d1EcF9b849Ae677dD3315835cb2;\n\n\t\taccounts[2] = 0x4B20993Bc481177ec7E8f571ceCaE8A9e22C02db;\n\n\t\taccounts[3] = 0x78731D3Ca6b7E34aC0F824c42a7cC18A495cabaB;\n\n\t\taccounts[4] = 0x617F2E2fD72FD9D5503197092aC168c91465E7f2;\n\n\t\taccounts[5] = 0x17F6AD8Ef982297579C203069C1DbfFE4348c372;\n\n\t\taccounts[6] = 0x5c6B0f7Bf3E7ce046039Bd8FABdfD3f9F5021678;\n\n\t\taccounts[7] = 0x03C6FcED478cBbC9a4FAB34eF9f40767739D1Ff7;\n\n\t\taccounts[8] = 0x1aE0EA34a72D944a8C7603FfB3eC30a6669E454C;\n\n\t\taccounts[9] = 0x0A098Eda01Ce92ff4A4CCb7A4fFFb5A43EBC70DC;\n\n\t\taccounts[10] = 0xCA35b7d915458EF540aDe6068dFe2F44E8fa733c;\n\n\t\taccounts[11] = 0x14723A09ACff6D2A60DcdF7aA4AFf308FDDC160C;\n\n\t\taccounts[12] = 0x4B0897b0513fdC7C541B6d9D7E929C4e5364D2dB;\n\n\t\taccounts[13] = 0x583031D1113aD414F02576BD6afaBfb302140225;\n\n\t\taccounts[14] = 0xdD870fA1b7C4700F2BD7f44238821C26f7392148;\n\n        return accounts[index];\n    }\n}\n",
  "sourcePath": "/home/jeremy/Desktop/fets_front_end/src/contracts/.deps/remix-tests/remix_accounts.sol",
  "compiler": {
    "name": "solc",
    "version": "0.8.9+commit.e5eed63a.Emscripten.clang"
  },
  "schemaVersion": "3.4.3",
  "updatedAt": "2022-06-19T21:48:49.821Z",
  "devdoc": {
    "kind": "dev",
    "methods": {},
    "version": 1
  },
  "userdoc": {
    "kind": "user",
    "methods": {},
    "version": 1
  }
}